{
  "abi": [
    {
      "inputs": [],
      "stateMutability": "nonpayable",
      "type": "constructor"
    },
    {
      "anonymous": false,
      "inputs": [
        {
          "indexed": true,
          "internalType": "address",
          "name": "did",
          "type": "address"
        },
        {
          "indexed": false,
          "internalType": "address[]",
          "name": "owners",
          "type": "address[]"
        },
        {
          "indexed": false,
          "internalType": "address[]",
          "name": "masters",
          "type": "address[]"
        },
        {
          "indexed": false,
          "internalType": "uint256",
          "name": "saltNonce",
          "type": "uint256"
        }
      ],
      "name": "NewDID",
      "type": "event"
    },
    {
      "anonymous": false,
      "inputs": [
        {
          "indexed": true,
          "internalType": "address",
          "name": "previousOwner",
          "type": "address"
        },
        {
          "indexed": true,
          "internalType": "address",
          "name": "newOwner",
          "type": "address"
        }
      ],
      "name": "OwnershipTransferStarted",
      "type": "event"
    },
    {
      "anonymous": false,
      "inputs": [
        {
          "indexed": true,
          "internalType": "address",
          "name": "previousOwner",
          "type": "address"
        },
        {
          "indexed": true,
          "internalType": "address",
          "name": "newOwner",
          "type": "address"
        }
      ],
      "name": "OwnershipTransferred",
      "type": "event"
    },
    {
      "inputs": [],
      "name": "acceptOwnership",
      "outputs": [],
      "stateMutability": "nonpayable",
      "type": "function"
    },
    {
      "inputs": [
        {
          "internalType": "address[]",
          "name": "_owners",
          "type": "address[]"
        },
        {
          "internalType": "address[]",
          "name": "_masters",
          "type": "address[]"
        },
        {
          "internalType": "address",
          "name": "gnosisProxyFactory",
          "type": "address"
        },
        {
          "internalType": "address",
          "name": "singleton",
          "type": "address"
        },
        {
          "internalType": "address",
          "name": "fallbackHandler",
          "type": "address"
        },
        {
          "internalType": "uint256",
          "name": "saltNonce",
          "type": "uint256"
        }
      ],
      "name": "createDID",
      "outputs": [
        {
          "internalType": "address",
          "name": "",
          "type": "address"
        }
      ],
      "stateMutability": "nonpayable",
      "type": "function"
    },
    {
      "inputs": [],
      "name": "implementation",
      "outputs": [
        {
          "internalType": "address",
          "name": "",
          "type": "address"
        }
      ],
      "stateMutability": "view",
      "type": "function"
    },
    {
      "inputs": [
        {
          "internalType": "address",
          "name": "",
          "type": "address"
        }
      ],
      "name": "isDID",
      "outputs": [
        {
          "internalType": "bool",
          "name": "",
          "type": "bool"
        }
      ],
      "stateMutability": "view",
      "type": "function"
    },
    {
      "inputs": [],
      "name": "owner",
      "outputs": [
        {
          "internalType": "address",
          "name": "",
          "type": "address"
        }
      ],
      "stateMutability": "view",
      "type": "function"
    },
    {
      "inputs": [],
      "name": "pendingOwner",
      "outputs": [
        {
          "internalType": "address",
          "name": "",
          "type": "address"
        }
      ],
      "stateMutability": "view",
      "type": "function"
    },
    {
      "inputs": [],
      "name": "renounceOwnership",
      "outputs": [],
      "stateMutability": "nonpayable",
      "type": "function"
    },
    {
      "inputs": [
        {
          "internalType": "address",
          "name": "newOwner",
          "type": "address"
        }
      ],
      "name": "transferOwnership",
      "outputs": [],
      "stateMutability": "nonpayable",
      "type": "function"
    }
  ],
  "bytecode": {
    "object": "0x608060405234801561001057600080fd5b5061001a33610068565b604051610026906100df565b604051809103906000f080158015610042573d6000803e3d6000fd5b50600280546001600160a01b0319166001600160a01b03929092169190911790556100ec565b600180546001600160a01b031916905561008c8161008f602090811b61029d17901c565b50565b600080546001600160a01b038381166001600160a01b0319831681178455604051919092169283917f8be0079c531659141344cd1fd0a4f28419497f9722a3daafe3b4186f6b6457e09190a35050565b6118a880610fd783390190565b610edc806100fb6000396000f3fe60806040523480156200001157600080fd5b5060043610620000935760003560e01c806379ba5097116200006257806379ba509714620001235780638da5cb5b146200012d578063e30c3978146200013f578063f2fde38b146200015157600080fd5b806311adf8df14620000985780632de61e3e14620000cc5780635c60da1b1462000103578063715018a61462000117575b600080fd5b620000af620000a936600462000571565b62000168565b6040516001600160a01b0390911681526020015b60405180910390f35b620000f2620000dd3660046200061c565b60036020526000908152604090205460ff1681565b6040519015158152602001620000c3565b600254620000af906001600160a01b031681565b620001216200018f565b005b62000121620001a7565b6000546001600160a01b0316620000af565b6001546001600160a01b0316620000af565b62000121620001623660046200061c565b62000229565b600062000174620002ed565b6200018487878787878762000349565b979650505050505050565b62000199620002ed565b620001a560006200042e565b565b60015433906001600160a01b031681146200021b5760405162461bcd60e51b815260206004820152602960248201527f4f776e61626c6532537465703a2063616c6c6572206973206e6f7420746865206044820152683732bb9037bbb732b960b91b60648201526084015b60405180910390fd5b62000226816200042e565b50565b62000233620002ed565b600180546001600160a01b0383166001600160a01b03199091168117909155620002656000546001600160a01b031690565b6001600160a01b03167f38d16b8cac22d99fc7c124b9cd0de2d3fa1faef420bfe791d8c362d765e2270060405160405180910390a350565b600080546001600160a01b038381166001600160a01b0319831681178455604051919092169283917f8be0079c531659141344cd1fd0a4f28419497f9722a3daafe3b4186f6b6457e09190a35050565b6000546001600160a01b03163314620001a55760405162461bcd60e51b815260206004820181905260248201527f4f776e61626c653a2063616c6c6572206973206e6f7420746865206f776e6572604482015260640162000212565b60008063e7f9dc2860e01b868686868c8c604051602401620003719695949392919062000687565b60408051601f198184030181529190526020810180516001600160e01b03166001600160e01b031990931692909217909152600254909150620003be906001600160a01b03168262000449565b6001600160a01b03811660008181526003602052604090819020805460ff1916600117905551919350907f218a41241a7f55b8a9f450043ab9e3597ae53030862eb5fe2a0c4b3b206e95f8906200041b908b908b908890620006e5565b60405180910390a2509695505050505050565b600180546001600160a01b031916905562000226816200029d565b600082826040516200045b906200048d565b620004689291906200071f565b604051809103906000f08015801562000485573d6000803e3d6000fd5b509392505050565b610727806200078083390190565b634e487b7160e01b600052604160045260246000fd5b80356001600160a01b0381168114620004c957600080fd5b919050565b600082601f830112620004e057600080fd5b8135602067ffffffffffffffff808311156200050057620005006200049b565b8260051b604051601f19603f830116810181811084821117156200052857620005286200049b565b6040529384528581018301938381019250878511156200054757600080fd5b83870191505b8482101562000184576200056182620004b1565b835291830191908301906200054d565b60008060008060008060c087890312156200058b57600080fd5b863567ffffffffffffffff80821115620005a457600080fd5b620005b28a838b01620004ce565b97506020890135915080821115620005c957600080fd5b50620005d889828a01620004ce565b955050620005e960408801620004b1565b9350620005f960608801620004b1565b92506200060960808801620004b1565b915060a087013590509295509295509295565b6000602082840312156200062f57600080fd5b6200063a82620004b1565b9392505050565b600081518084526020808501945080840160005b838110156200067c5781516001600160a01b03168752958201959082019060010162000655565b509495945050505050565b6001600160a01b0387811682528681166020830152851660408201526060810184905260c060808201819052600090620006c49083018562000641565b82810360a0840152620006d8818562000641565b9998505050505050505050565b606081526000620006fa606083018662000641565b82810360208401526200070e818662000641565b915050826040830152949350505050565b60018060a01b038316815260006020604081840152835180604085015260005b818110156200075d578581018301518582016060015282016200073f565b506000606082860101526060601f19601f83011685010192505050939250505056fe608060405260405161072738038061072783398101604081905261002291610319565b61002e82826000610035565b5050610436565b61003e8361006b565b60008251118061004b5750805b156100665761006483836100ab60201b6100291760201c565b505b505050565b610074816100d7565b6040516001600160a01b038216907fbc7cd75a20ee27fd9adebab32041f755214dbc6bffa90cc0225b39da2e5c2d3b90600090a250565b60606100d08383604051806060016040528060278152602001610700602791396101a9565b9392505050565b6100ea8161022260201b6100551760201c565b6101515760405162461bcd60e51b815260206004820152602d60248201527f455243313936373a206e657720696d706c656d656e746174696f6e206973206e60448201526c1bdd08184818dbdb9d1c9858dd609a1b60648201526084015b60405180910390fd5b806101887f360894a13ba1a3210667c828492db98dca3e2076cc3735a920a3ca505d382bbc60001b61023160201b6100641760201c565b80546001600160a01b0319166001600160a01b039290921691909117905550565b6060600080856001600160a01b0316856040516101c691906103e7565b600060405180830381855af49150503d8060008114610201576040519150601f19603f3d011682016040523d82523d6000602084013e610206565b606091505b50909250905061021886838387610234565b9695505050505050565b6001600160a01b03163b151590565b90565b606083156102a357825160000361029c576001600160a01b0385163b61029c5760405162461bcd60e51b815260206004820152601d60248201527f416464726573733a2063616c6c20746f206e6f6e2d636f6e74726163740000006044820152606401610148565b50816102ad565b6102ad83836102b5565b949350505050565b8151156102c55781518083602001fd5b8060405162461bcd60e51b81526004016101489190610403565b634e487b7160e01b600052604160045260246000fd5b60005b838110156103105781810151838201526020016102f8565b50506000910152565b6000806040838503121561032c57600080fd5b82516001600160a01b038116811461034357600080fd5b60208401519092506001600160401b038082111561036057600080fd5b818501915085601f83011261037457600080fd5b815181811115610386576103866102df565b604051601f8201601f19908116603f011681019083821181831017156103ae576103ae6102df565b816040528281528860208487010111156103c757600080fd5b6103d88360208301602088016102f5565b80955050505050509250929050565b600082516103f98184602087016102f5565b9190910192915050565b60208152600082518060208401526104228160408501602087016102f5565b601f01601f19169190910160400192915050565b6102bb806104456000396000f3fe60806040523661001357610011610017565b005b6100115b610027610022610067565b61009f565b565b606061004e838360405180606001604052806027815260200161025f602791396100c3565b9392505050565b6001600160a01b03163b151590565b90565b600061009a7f360894a13ba1a3210667c828492db98dca3e2076cc3735a920a3ca505d382bbc546001600160a01b031690565b905090565b3660008037600080366000845af43d6000803e8080156100be573d6000f35b3d6000fd5b6060600080856001600160a01b0316856040516100e0919061020f565b600060405180830381855af49150503d806000811461011b576040519150601f19603f3d011682016040523d82523d6000602084013e610120565b606091505b50915091506101318683838761013b565b9695505050505050565b606083156101af5782516000036101a8576001600160a01b0385163b6101a85760405162461bcd60e51b815260206004820152601d60248201527f416464726573733a2063616c6c20746f206e6f6e2d636f6e747261637400000060448201526064015b60405180910390fd5b50816101b9565b6101b983836101c1565b949350505050565b8151156101d15781518083602001fd5b8060405162461bcd60e51b815260040161019f919061022b565b60005b838110156102065781810151838201526020016101ee565b50506000910152565b600082516102218184602087016101eb565b9190910192915050565b602081526000825180602084015261024a8160408501602087016101eb565b601f01601f1916919091016040019291505056fe416464726573733a206c6f772d6c6576656c2064656c65676174652063616c6c206661696c6564a2646970667358221220312d662442d188f3138cfd8cbe58b5cc8ef0e444ef8090022f12330f1b1d864c64736f6c63430008100033416464726573733a206c6f772d6c6576656c2064656c65676174652063616c6c206661696c6564a2646970667358221220b91dd3d5a79587b77eea4b862ca4cf53478a66a937f02906c1c0537cc064baac64736f6c6343000810003360a06040523060805234801561001457600080fd5b506001805561002161002e565b61002961002e565b6100ee565b600054610100900460ff161561009a5760405162461bcd60e51b815260206004820152602760248201527f496e697469616c697a61626c653a20636f6e747261637420697320696e697469604482015266616c697a696e6760c81b606482015260840160405180910390fd5b60005460ff90811610156100ec576000805460ff191660ff9081179091556040519081527f7f26b83ff96e1f2b6a682f133852f6798a09c465da95921460cefb38474024989060200160405180910390a15b565b6080516117836101256000396000818161026e015281816102b70152818161033f0152818161037f01526103fb01526117836000f3fe6080604052600436106100c25760003560e01c80638723ed151161007f578063c3f5968711610059578063c3f59687146101e6578063e7f9dc2814610206578063ee97f7f314610226578063f2fde38b1461024457600080fd5b80638723ed151461017b5780638da5cb5b146101a85780638e4976a2146101c657600080fd5b80633659cfe6146100c75780634f1ef286146100e957806352d1902d146100fc5780635c60da1b146101245780636153733514610151578063715018a614610166575b600080fd5b3480156100d357600080fd5b506100e76100e23660046110ec565b610264565b005b6100e76100f73660046111ce565b610335565b34801561010857600080fd5b506101116103ee565b6040519081526020015b60405180910390f35b34801561013057600080fd5b506101396104a1565b6040516001600160a01b03909116815260200161011b565b34801561015d57600080fd5b506100e76104b0565b34801561017257600080fd5b506100e76104f5565b34801561018757600080fd5b5061019b61019636600461121e565b610538565b60405161011b91906112ce565b3480156101b457600080fd5b506002546001600160a01b0316610139565b3480156101d257600080fd5b5061019b6101e136600461121e565b610588565b3480156101f257600080fd5b506100e76102013660046110ec565b6105e8565b34801561021257600080fd5b506100e761022136600461132d565b61069d565b34801561023257600080fd5b506003546001600160a01b0316610139565b34801561025057600080fd5b506100e761025f3660046110ec565b6107d0565b6001600160a01b037f00000000000000000000000000000000000000000000000000000000000000001630036102b55760405162461bcd60e51b81526004016102ac906113de565b60405180910390fd5b7f00000000000000000000000000000000000000000000000000000000000000006001600160a01b03166102e7610884565b6001600160a01b03161461030d5760405162461bcd60e51b81526004016102ac9061142a565b610316816108a0565b60408051600080825260208201909252610332918391906108d9565b50565b6001600160a01b037f000000000000000000000000000000000000000000000000000000000000000016300361037d5760405162461bcd60e51b81526004016102ac906113de565b7f00000000000000000000000000000000000000000000000000000000000000006001600160a01b03166103af610884565b6001600160a01b0316146103d55760405162461bcd60e51b81526004016102ac9061142a565b6103de826108a0565b6103ea828260016108d9565b5050565b6000306001600160a01b037f0000000000000000000000000000000000000000000000000000000000000000161461048e5760405162461bcd60e51b815260206004820152603860248201527f555550535570677261646561626c653a206d757374206e6f742062652063616c60448201527f6c6564207468726f7567682064656c656761746563616c6c000000000000000060648201526084016102ac565b5060008051602061170783398151915290565b60006104ab610884565b905090565b336104c36003546001600160a01b031690565b6001600160a01b0316146104e95760405162461bcd60e51b81526004016102ac90611476565b6104f36000610a49565b565b336105086002546001600160a01b031690565b6001600160a01b03161461052e5760405162461bcd60e51b81526004016102ac906114c4565b6104f36000610a9b565b60603361054d6003546001600160a01b031690565b6001600160a01b0316146105735760405162461bcd60e51b81526004016102ac90611476565b61057f85858585610aed565b95945050505050565b60603361059d6002546001600160a01b031690565b6001600160a01b0316146105c35760405162461bcd60e51b81526004016102ac906114c4565b84848460405162461bcd60e51b815260206004820152600060248201526044016102ac565b336105fb6003546001600160a01b031690565b6001600160a01b0316146106215760405162461bcd60e51b81526004016102ac90611476565b6001600160a01b0381166106945760405162461bcd60e51b815260206004820152603460248201527f4f776e61626c65416e644d617374657261626c653a206e6577206d617374657260448201527320697320746865207a65726f206164647265737360601b60648201526084016102ac565b61033281610a49565b600054610100900460ff16158080156106bd5750600054600160ff909116105b806106d75750303b1580156106d7575060005460ff166001145b61073a5760405162461bcd60e51b815260206004820152602e60248201527f496e697469616c697a61626c653a20636f6e747261637420697320616c72656160448201526d191e481a5b9a5d1a585b1a5e995960921b60648201526084016102ac565b6000805460ff19166001179055801561075d576000805461ff0019166101001790555b606880546001600160a01b0319163317905561077f8989898989898989610b86565b80156107c5576000805461ff0019169055604051600181527f7f26b83ff96e1f2b6a682f133852f6798a09c465da95921460cefb38474024989060200160405180910390a15b505050505050505050565b336107e36002546001600160a01b031690565b6001600160a01b0316146108095760405162461bcd60e51b81526004016102ac906114c4565b6001600160a01b03811661087b5760405162461bcd60e51b815260206004820152603360248201527f4f776e61626c65416e644d617374657261626c653a206e6577206f776e657220604482015272697320746865207a65726f206164647265737360681b60648201526084016102ac565b61033281610a9b565b600080516020611707833981519152546001600160a01b031690565b336108b36003546001600160a01b031690565b6001600160a01b0316146103325760405162461bcd60e51b81526004016102ac90611476565b7f4910fdfa16fed3260ed0e7147f7cc6da11a60208b5b9406d12a635614ffd91435460ff16156109115761090c83610ba0565b505050565b826001600160a01b03166352d1902d6040518163ffffffff1660e01b8152600401602060405180830381865afa92505050801561096b575060408051601f3d908101601f1916820190925261096891810190611511565b60015b6109ce5760405162461bcd60e51b815260206004820152602e60248201527f45524331393637557067726164653a206e657720696d706c656d656e7461746960448201526d6f6e206973206e6f74205555505360901b60648201526084016102ac565b6000805160206117078339815191528114610a3d5760405162461bcd60e51b815260206004820152602960248201527f45524331393637557067726164653a20756e737570706f727465642070726f786044820152681a58589b195555525160ba1b60648201526084016102ac565b5061090c838383610c3c565b600380546001600160a01b038381166001600160a01b0319831681179093556040519116919082907fcdcbd4b72fc8f770531ce2b3fd5fa59dd682740e699d4a37fd65062507a8d22c90600090a35050565b600280546001600160a01b038381166001600160a01b0319831681179093556040519116919082907f8be0079c531659141344cd1fd0a4f28419497f9722a3daafe3b4186f6b6457e090600090a35050565b6060600080866001600160a01b031685859088604051610b0d919061152a565b600060405180830381858888f193505050503d8060008114610b4b576040519150601f19603f3d011682016040523d82523d6000602084013e610b50565b606091505b509150915081610b7c57610b6381610c67565b60405162461bcd60e51b81526004016102ac91906112ce565b9695505050505050565b610b968888888888888888610ccc565b5050505050505050565b6001600160a01b0381163b610c0d5760405162461bcd60e51b815260206004820152602d60248201527f455243313936373a206e657720696d706c656d656e746174696f6e206973206e60448201526c1bdd08184818dbdb9d1c9858dd609a1b60648201526084016102ac565b60008051602061170783398151915280546001600160a01b0319166001600160a01b0392909216919091179055565b610c4583610d20565b600082511180610c525750805b1561090c57610c618383610d60565b50505050565b6060604482511015610cac57505060408051808201909152601d81527f5472616e73616374696f6e2072657665727465642073696c656e746c79000000602082015290565b60048201915081806020019051810190610cc69190611546565b92915050565b600054610100900460ff16610cf35760405162461bcd60e51b81526004016102ac906115b4565b600080610d068a8a8a8a8a8a8a8a610e4b565b91509150610d148282611015565b50505050505050505050565b610d2981610ba0565b6040516001600160a01b038216907fbc7cd75a20ee27fd9adebab32041f755214dbc6bffa90cc0225b39da2e5c2d3b90600090a250565b60606001600160a01b0383163b610dc85760405162461bcd60e51b815260206004820152602660248201527f416464726573733a2064656c65676174652063616c6c20746f206e6f6e2d636f6044820152651b9d1c9858dd60d21b60648201526084016102ac565b600080846001600160a01b031684604051610de3919061152a565b600060405180830381855af49150503d8060008114610e1e576040519150601f19603f3d011682016040523d82523d6000602084013e610e23565b606091505b509150915061057f82826040518060600160405280602781526020016117276027913961108d565b600080548190610100900460ff16610e755760405162461bcd60e51b81526004016102ac906115b4565b60408051600080825260208201909252610e9d9088908890819085908e8280604484016115ff565b60408051601f19818403018152918152602080830180516001600160e01b031663b63e800d60e01b17905281516000808252918101909252919250610ef09087908790819085908f8280604484016115ff565b60408051601f198184030181529181526020820180516001600160e01b031663b63e800d60e01b17905251631688f0b960e01b81529091506001600160a01b038d1690631688f0b990610f4b908e9086908e906004016116b5565b6020604051808303816000875af1158015610f6a573d6000803e3d6000fd5b505050506040513d601f19601f82011682018060405250810190610f8e91906116e9565b604051631688f0b960e01b81529094506001600160a01b038d1690631688f0b990610fc1908e9085908e906004016116b5565b6020604051808303816000875af1158015610fe0573d6000803e3d6000fd5b505050506040513d601f19601f8201168201806040525081019061100491906116e9565b925050509850989650505050505050565b600154156110775760405162461bcd60e51b815260206004820152602960248201527f4f776e61626c65416e644d617374657261626c653a20616c726561647920696e6044820152681a5d1a585b1a5e995960ba1b60648201526084016102ac565b6001805561108482610a9b565b6103ea81610a49565b6060831561109c5750816110a6565b6110a683836110ad565b9392505050565b8151156110bd5781518083602001fd5b8060405162461bcd60e51b81526004016102ac91906112ce565b6001600160a01b038116811461033257600080fd5b6000602082840312156110fe57600080fd5b81356110a6816110d7565b634e487b7160e01b600052604160045260246000fd5b604051601f8201601f1916810167ffffffffffffffff8111828210171561114857611148611109565b604052919050565b600067ffffffffffffffff82111561116a5761116a611109565b50601f01601f191660200190565b600082601f83011261118957600080fd5b813561119c61119782611150565b61111f565b8181528460208386010111156111b157600080fd5b816020850160208301376000918101602001919091529392505050565b600080604083850312156111e157600080fd5b82356111ec816110d7565b9150602083013567ffffffffffffffff81111561120857600080fd5b61121485828601611178565b9150509250929050565b6000806000806080858703121561123457600080fd5b843561123f816110d7565b9350602085013567ffffffffffffffff81111561125b57600080fd5b61126787828801611178565b949794965050505060408301359260600135919050565b60005b83811015611299578181015183820152602001611281565b50506000910152565b600081518084526112ba81602086016020860161127e565b601f01601f19169290920160200192915050565b6020815260006110a660208301846112a2565b60008083601f8401126112f357600080fd5b50813567ffffffffffffffff81111561130b57600080fd5b6020830191508360208260051b850101111561132657600080fd5b9250929050565b60008060008060008060008060c0898b03121561134957600080fd5b8835611354816110d7565b97506020890135611364816110d7565b96506040890135611374816110d7565b955060608901359450608089013567ffffffffffffffff8082111561139857600080fd5b6113a48c838d016112e1565b909650945060a08b01359150808211156113bd57600080fd5b506113ca8b828c016112e1565b999c989b5096995094979396929594505050565b6020808252602c908201527f46756e6374696f6e206d7573742062652063616c6c6564207468726f7567682060408201526b19195b1959d85d1958d85b1b60a21b606082015260800190565b6020808252602c908201527f46756e6374696f6e206d7573742062652063616c6c6564207468726f7567682060408201526b6163746976652070726f787960a01b606082015260800190565b6020808252602e908201527f4f776e61626c65416e644d617374657261626c653a2063616c6c65722069732060408201526d3737ba103a34329036b0b9ba32b960911b606082015260800190565b6020808252602d908201527f4f776e61626c65416e644d617374657261626c653a2063616c6c65722069732060408201526c3737ba103a34329037bbb732b960991b606082015260800190565b60006020828403121561152357600080fd5b5051919050565b6000825161153c81846020870161127e565b9190910192915050565b60006020828403121561155857600080fd5b815167ffffffffffffffff81111561156f57600080fd5b8201601f8101841361158057600080fd5b805161158e61119782611150565b8181528560208385010111156115a357600080fd5b61057f82602083016020860161127e565b6020808252602b908201527f496e697469616c697a61626c653a20636f6e7472616374206973206e6f74206960408201526a6e697469616c697a696e6760a81b606082015260800190565b60e080825281018890526000896101008301825b8b811015611643578235611626816110d7565b6001600160a01b0316825260209283019290910190600101611613565b5089602085015261165f604085018a6001600160a01b03169052565b838103606085015261167181896112a2565b9250505061168a60808301866001600160a01b03169052565b6001600160a01b03841660a08301526001600160a01b03831660c08301529998505050505050505050565b6001600160a01b03841681526060602082018190526000906116d9908301856112a2565b9050826040830152949350505050565b6000602082840312156116fb57600080fd5b81516110a6816110d756fe360894a13ba1a3210667c828492db98dca3e2076cc3735a920a3ca505d382bbc416464726573733a206c6f772d6c6576656c2064656c65676174652063616c6c206661696c6564a2646970667358221220d80d74e8fea2aa01c6eefd91434c8cfe00cb2f7ecbb8f74dd78b1498c55937c464736f6c63430008100033",
    "linkReferences": {}
  },
  "methodIdentifiers": {
    "acceptOwnership()": "79ba5097",
    "createDID(address[],address[],address,address,address,uint256)": "11adf8df",
    "implementation()": "5c60da1b",
    "isDID(address)": "2de61e3e",
    "owner()": "8da5cb5b",
    "pendingOwner()": "e30c3978",
    "renounceOwnership()": "715018a6",
    "transferOwnership(address)": "f2fde38b"
  },
  "id": 81
}