{
  "abi": [
    {
      "inputs": [],
      "stateMutability": "nonpayable",
      "type": "constructor"
    },
    {
      "inputs": [
        {
          "internalType": "uint256",
          "name": "opIndex",
          "type": "uint256"
        },
        {
          "internalType": "string",
          "name": "reason",
          "type": "string"
        }
      ],
      "name": "FailedOp",
      "type": "error"
    },
    {
      "inputs": [
        {
          "internalType": "address",
          "name": "aggregator",
          "type": "address"
        }
      ],
      "name": "SignatureValidationFailed",
      "type": "error"
    },
    {
      "anonymous": false,
      "inputs": [
        {
          "indexed": true,
          "internalType": "bytes32",
          "name": "userOpHash",
          "type": "bytes32"
        },
        {
          "indexed": true,
          "internalType": "address",
          "name": "sender",
          "type": "address"
        },
        {
          "indexed": false,
          "internalType": "address",
          "name": "factory",
          "type": "address"
        },
        {
          "indexed": false,
          "internalType": "address",
          "name": "paymaster",
          "type": "address"
        }
      ],
      "name": "AccountDeployed",
      "type": "event"
    },
    {
      "anonymous": false,
      "inputs": [
        {
          "indexed": false,
          "internalType": "address",
          "name": "previousAdmin",
          "type": "address"
        },
        {
          "indexed": false,
          "internalType": "address",
          "name": "newAdmin",
          "type": "address"
        }
      ],
      "name": "AdminChanged",
      "type": "event"
    },
    {
      "anonymous": false,
      "inputs": [
        {
          "indexed": true,
          "internalType": "address",
          "name": "beacon",
          "type": "address"
        }
      ],
      "name": "BeaconUpgraded",
      "type": "event"
    },
    {
      "anonymous": false,
      "inputs": [
        {
          "indexed": false,
          "internalType": "uint8",
          "name": "version",
          "type": "uint8"
        }
      ],
      "name": "Initialized",
      "type": "event"
    },
    {
      "anonymous": false,
      "inputs": [
        {
          "indexed": true,
          "internalType": "address",
          "name": "previousOwner",
          "type": "address"
        },
        {
          "indexed": true,
          "internalType": "address",
          "name": "newOwner",
          "type": "address"
        }
      ],
      "name": "OwnershipTransferStarted",
      "type": "event"
    },
    {
      "anonymous": false,
      "inputs": [
        {
          "indexed": true,
          "internalType": "address",
          "name": "previousOwner",
          "type": "address"
        },
        {
          "indexed": true,
          "internalType": "address",
          "name": "newOwner",
          "type": "address"
        }
      ],
      "name": "OwnershipTransferred",
      "type": "event"
    },
    {
      "anonymous": false,
      "inputs": [
        {
          "indexed": true,
          "internalType": "address",
          "name": "implementation",
          "type": "address"
        }
      ],
      "name": "Upgraded",
      "type": "event"
    },
    {
      "anonymous": false,
      "inputs": [
        {
          "indexed": true,
          "internalType": "bytes32",
          "name": "userOpHash",
          "type": "bytes32"
        },
        {
          "indexed": true,
          "internalType": "address",
          "name": "sender",
          "type": "address"
        },
        {
          "indexed": false,
          "internalType": "uint256",
          "name": "nonce",
          "type": "uint256"
        },
        {
          "indexed": false,
          "internalType": "bytes",
          "name": "revertReason",
          "type": "bytes"
        }
      ],
      "name": "UserOperationRevertReason",
      "type": "event"
    },
    {
      "inputs": [],
      "name": "acceptOwnership",
      "outputs": [],
      "stateMutability": "nonpayable",
      "type": "function"
    },
    {
      "inputs": [
        {
          "components": [
            {
              "internalType": "address",
              "name": "sender",
              "type": "address"
            },
            {
              "internalType": "uint256",
              "name": "nonce",
              "type": "uint256"
            },
            {
              "internalType": "bytes",
              "name": "initCode",
              "type": "bytes"
            },
            {
              "internalType": "bytes",
              "name": "callData",
              "type": "bytes"
            },
            {
              "internalType": "uint256",
              "name": "callGasLimit",
              "type": "uint256"
            },
            {
              "internalType": "uint256",
              "name": "verificationGasLimit",
              "type": "uint256"
            },
            {
              "internalType": "uint256",
              "name": "preVerificationGas",
              "type": "uint256"
            },
            {
              "internalType": "uint256",
              "name": "maxFeePerGas",
              "type": "uint256"
            },
            {
              "internalType": "uint256",
              "name": "maxPriorityFeePerGas",
              "type": "uint256"
            },
            {
              "internalType": "bytes",
              "name": "paymasterAndData",
              "type": "bytes"
            },
            {
              "internalType": "bytes",
              "name": "signature",
              "type": "bytes"
            }
          ],
          "internalType": "struct UserOperation",
          "name": "userOp",
          "type": "tuple"
        }
      ],
      "name": "getUserOpHash",
      "outputs": [
        {
          "internalType": "bytes32",
          "name": "",
          "type": "bytes32"
        }
      ],
      "stateMutability": "view",
      "type": "function"
    },
    {
      "inputs": [
        {
          "components": [
            {
              "internalType": "address",
              "name": "sender",
              "type": "address"
            },
            {
              "internalType": "uint256",
              "name": "nonce",
              "type": "uint256"
            },
            {
              "internalType": "bytes",
              "name": "initCode",
              "type": "bytes"
            },
            {
              "internalType": "bytes",
              "name": "callData",
              "type": "bytes"
            },
            {
              "internalType": "uint256",
              "name": "callGasLimit",
              "type": "uint256"
            },
            {
              "internalType": "uint256",
              "name": "verificationGasLimit",
              "type": "uint256"
            },
            {
              "internalType": "uint256",
              "name": "preVerificationGas",
              "type": "uint256"
            },
            {
              "internalType": "uint256",
              "name": "maxFeePerGas",
              "type": "uint256"
            },
            {
              "internalType": "uint256",
              "name": "maxPriorityFeePerGas",
              "type": "uint256"
            },
            {
              "internalType": "bytes",
              "name": "paymasterAndData",
              "type": "bytes"
            },
            {
              "internalType": "bytes",
              "name": "signature",
              "type": "bytes"
            }
          ],
          "internalType": "struct UserOperation[]",
          "name": "ops",
          "type": "tuple[]"
        },
        {
          "internalType": "address payable",
          "name": "beneficiary",
          "type": "address"
        }
      ],
      "name": "handleOps",
      "outputs": [],
      "stateMutability": "nonpayable",
      "type": "function"
    },
    {
      "inputs": [
        {
          "internalType": "address",
          "name": "owner_",
          "type": "address"
        }
      ],
      "name": "initialize",
      "outputs": [],
      "stateMutability": "nonpayable",
      "type": "function"
    },
    {
      "inputs": [],
      "name": "owner",
      "outputs": [
        {
          "internalType": "address",
          "name": "",
          "type": "address"
        }
      ],
      "stateMutability": "view",
      "type": "function"
    },
    {
      "inputs": [],
      "name": "pendingOwner",
      "outputs": [
        {
          "internalType": "address",
          "name": "",
          "type": "address"
        }
      ],
      "stateMutability": "view",
      "type": "function"
    },
    {
      "inputs": [],
      "name": "proxiableUUID",
      "outputs": [
        {
          "internalType": "bytes32",
          "name": "",
          "type": "bytes32"
        }
      ],
      "stateMutability": "view",
      "type": "function"
    },
    {
      "inputs": [],
      "name": "renounceOwnership",
      "outputs": [],
      "stateMutability": "nonpayable",
      "type": "function"
    },
    {
      "inputs": [
        {
          "internalType": "address",
          "name": "newOwner",
          "type": "address"
        }
      ],
      "name": "transferOwnership",
      "outputs": [],
      "stateMutability": "nonpayable",
      "type": "function"
    },
    {
      "inputs": [
        {
          "internalType": "address",
          "name": "newImplementation",
          "type": "address"
        }
      ],
      "name": "upgradeTo",
      "outputs": [],
      "stateMutability": "nonpayable",
      "type": "function"
    },
    {
      "inputs": [
        {
          "internalType": "address",
          "name": "newImplementation",
          "type": "address"
        },
        {
          "internalType": "bytes",
          "name": "data",
          "type": "bytes"
        }
      ],
      "name": "upgradeToAndCall",
      "outputs": [],
      "stateMutability": "payable",
      "type": "function"
    }
  ],
  "bytecode": {
    "object": "0x60a06040523060805234801561001457600080fd5b5061001d610022565b6100e2565b600054610100900460ff161561008e5760405162461bcd60e51b815260206004820152602760248201527f496e697469616c697a61626c653a20636f6e747261637420697320696e697469604482015266616c697a696e6760c81b606482015260840160405180910390fd5b60005460ff90811610156100e0576000805460ff191660ff9081179091556040519081527f7f26b83ff96e1f2b6a682f133852f6798a09c465da95921460cefb38474024989060200160405180910390a15b565b6080516119f1610119600039600081816103540152818161039d0152818161043c0152818161047c015261050f01526119f16000f3fe60806040526004361061009c5760003560e01c806379ba50971161006457806379ba5097146101335780638da5cb5b14610148578063a61935311461017a578063c4d66de81461019a578063e30c3978146101ba578063f2fde38b146101d857600080fd5b80631fad948c146100a15780633659cfe6146100c35780634f1ef286146100e357806352d1902d146100f6578063715018a61461011e575b600080fd5b3480156100ad57600080fd5b506100c16100bc3660046112dc565b6101f8565b005b3480156100cf57600080fd5b506100c16100de366004611372565b61034a565b6100c16100f13660046113d2565b610432565b34801561010257600080fd5b5061010b610502565b6040519081526020015b60405180910390f35b34801561012a57600080fd5b506100c16105b6565b34801561013f57600080fd5b506100c16105ca565b34801561015457600080fd5b506097546001600160a01b03165b6040516001600160a01b039091168152602001610115565b34801561018657600080fd5b5061010b61019536600461147e565b610641565b3480156101a657600080fd5b506100c16101b5366004611372565b610683565b3480156101c657600080fd5b5060c9546001600160a01b0316610162565b3480156101e457600080fd5b506100c16101f3366004611372565b6107a5565b8160008167ffffffffffffffff8111156102145761021461138f565b60405190808252806020026020018201604052801561026f57816020015b6040805160a08101825260009181018281526060820183905260808201839052815260208101919091528152602001906001900390816102325790505b50905060005b828110156102de576000828281518110610291576102916114ba565b602002602001015190506102c9828888858181106102b1576102b16114ba565b90506020028101906102c391906114d0565b83610816565b505080806102d6906114f1565b915050610275565b5060005b82811015610342576103308686838181106102ff576102ff6114ba565b905060200281019061031191906114d0565b838381518110610323576103236114ba565b6020026020010151610977565b8061033a816114f1565b9150506102e2565b505050505050565b6001600160a01b037f000000000000000000000000000000000000000000000000000000000000000016300361039b5760405162461bcd60e51b815260040161039290611518565b60405180910390fd5b7f00000000000000000000000000000000000000000000000000000000000000006001600160a01b03166103e4600080516020611975833981519152546001600160a01b031690565b6001600160a01b03161461040a5760405162461bcd60e51b815260040161039290611564565b610413816109c3565b6040805160008082526020820190925261042f918391906109cb565b50565b6001600160a01b037f000000000000000000000000000000000000000000000000000000000000000016300361047a5760405162461bcd60e51b815260040161039290611518565b7f00000000000000000000000000000000000000000000000000000000000000006001600160a01b03166104c3600080516020611975833981519152546001600160a01b031690565b6001600160a01b0316146104e95760405162461bcd60e51b815260040161039290611564565b6104f2826109c3565b6104fe828260016109cb565b5050565b6000306001600160a01b037f000000000000000000000000000000000000000000000000000000000000000016146105a25760405162461bcd60e51b815260206004820152603860248201527f555550535570677261646561626c653a206d757374206e6f742062652063616c60448201527f6c6564207468726f7567682064656c656761746563616c6c00000000000000006064820152608401610392565b506000805160206119758339815191525b90565b6105be610b3b565b6105c86000610b95565b565b60c95433906001600160a01b031681146106385760405162461bcd60e51b815260206004820152602960248201527f4f776e61626c6532537465703a2063616c6c6572206973206e6f7420746865206044820152683732bb9037bbb732b960b91b6064820152608401610392565b61042f81610b95565b600061064c82610bae565b6040805160208101929092523090820152466060820152608001604051602081830303815290604052805190602001209050919050565b600054610100900460ff16158080156106a35750600054600160ff909116105b806106bd5750303b1580156106bd575060005460ff166001145b6107205760405162461bcd60e51b815260206004820152602e60248201527f496e697469616c697a61626c653a20636f6e747261637420697320616c72656160448201526d191e481a5b9a5d1a585b1a5e995960921b6064820152608401610392565b6000805460ff191660011790558015610743576000805461ff0019166101001790555b61074b610bc7565b610753610bc7565b61075c82610b95565b80156104fe576000805461ff0019169055604051600181527f7f26b83ff96e1f2b6a682f133852f6798a09c465da95921460cefb38474024989060200160405180910390a15050565b6107ad610b3b565b60c980546001600160a01b0383166001600160a01b031990911681179091556107de6097546001600160a01b031690565b6001600160a01b03167f38d16b8cac22d99fc7c124b9cd0de2d3fa1faef420bfe791d8c362d765e2270060405160405180910390a350565b80516000906108258482610c32565b61082e84610641565b6020840152805161084c868561084760408901896115b0565b610c62565b6020840151604051633a871cdd60e01b81526001600160a01b03831691633a871cdd9161088091899160009060040161166d565b6020604051808303816000875af19250505080156108bb575060408051601f3d908101601f191682019092526108b89181019061178a565b60015b61096d576108c76117a3565b806308c379a00361092057506108db6117be565b806108e65750610922565b86816040516020016108f8919061186c565b60408051601f1981840301815290829052631101335b60e11b825261039292916004016118cf565b505b85604051631101335b60e11b8152600401610392918152604060208201819052601690820152754141323320726576657274656420286f72204f4f472960501b606082015260800190565b9695505050505050565b6104fe61098760608401846115b0565b8080601f016020809104026020016040519081016040528093929190818152602001838380828437600092019190915250859250610e8d915050565b61042f610b3b565b7f4910fdfa16fed3260ed0e7147f7cc6da11a60208b5b9406d12a635614ffd91435460ff1615610a03576109fe83610f26565b505050565b826001600160a01b03166352d1902d6040518163ffffffff1660e01b8152600401602060405180830381865afa925050508015610a5d575060408051601f3d908101601f19168201909252610a5a9181019061178a565b60015b610ac05760405162461bcd60e51b815260206004820152602e60248201527f45524331393637557067726164653a206e657720696d706c656d656e7461746960448201526d6f6e206973206e6f74205555505360901b6064820152608401610392565b6000805160206119758339815191528114610b2f5760405162461bcd60e51b815260206004820152602960248201527f45524331393637557067726164653a20756e737570706f727465642070726f786044820152681a58589b195555525160ba1b6064820152608401610392565b506109fe838383610fc2565b6097546001600160a01b031633146105c85760405162461bcd60e51b815260206004820181905260248201527f4f776e61626c653a2063616c6c6572206973206e6f7420746865206f776e65726044820152606401610392565b60c980546001600160a01b031916905561042f81610fe7565b6000610bb982611039565b805190602001209050919050565b600054610100900460ff166105c85760405162461bcd60e51b815260206004820152602b60248201527f496e697469616c697a61626c653a20636f6e7472616374206973206e6f74206960448201526a6e697469616c697a696e6760a81b6064820152608401610392565b610c3f6020830183611372565b6001600160a01b0316815260208083013590820152608090910135604090910152565b8015610e87578251516001600160a01b0381163b15610ccd5784604051631101335b60e11b8152600401610392918152604060208201819052601f908201527f414131302073656e64657220616c726561647920636f6e737472756374656400606082015260800190565b6000610cd98484611078565b90506001600160a01b038116610d3b5785604051631101335b60e11b8152600401610392918152604060208201819052601b908201527f4141313320696e6974436f6465206661696c6564206f72204f4f470000000000606082015260800190565b816001600160a01b0316816001600160a01b031614610da55785604051631101335b60e11b815260040161039291815260406020808301829052908201527f4141313420696e6974436f6465206d7573742072657475726e2073656e646572606082015260800190565b806001600160a01b03163b600003610e085785604051631101335b60e11b815260040161039291815260406020808301829052908201527f4141313520696e6974436f6465206d757374206372656174652073656e646572606082015260800190565b6000610e1760148286886118f0565b610e209161191a565b60601c9050826001600160a01b031686602001517fd51a9c61267aa6196961883ecf5ff2da6619c37dac0fa92122513fb32c032d2d836000604051610e7b9291906001600160a01b0392831681529116602082015260400190565b60405180910390a35050505b50505050565b805160005a845190915015610e87576000610eaf836000015160008785611105565b905080610f1f576000610ec361080061111d565b8051909150156103425783600001516001600160a01b031685602001517f1c4fada7374c0a9ee8841fc38afe82932dc0f8e69012e927f061a8bae611a201866020015184604051610f159291906118cf565b60405180910390a3505b5050505050565b6001600160a01b0381163b610f935760405162461bcd60e51b815260206004820152602d60248201527f455243313936373a206e657720696d706c656d656e746174696f6e206973206e60448201526c1bdd08184818dbdb9d1c9858dd609a1b6064820152608401610392565b60008051602061197583398151915280546001600160a01b0319166001600160a01b0392909216919091179055565b610fcb83611149565b600082511180610fd85750805b156109fe57610e878383611189565b609780546001600160a01b038381166001600160a01b0319831681179093556040519116919082907f8be0079c531659141344cd1fd0a4f28419497f9722a3daafe3b4186f6b6457e090600090a35050565b606036600061104c6101408501856115b0565b915091508360208184030360405194506020810185016040528085528082602087013750505050919050565b60008061108860148285876118f0565b6110919161191a565b60601c905060006110a584601481886118f0565b8080601f016020809104026020016040519081016040528093929190818152602001838380828437600092018290525084519495509360209350849250905082850182875af190506000519350806110fc57600093505b50505092915050565b6000806000845160208601878987f195945050505050565b60603d8281111561112b5750815b604051602082018101604052818152816000602083013e9392505050565b61115281610f26565b6040516001600160a01b038216907fbc7cd75a20ee27fd9adebab32041f755214dbc6bffa90cc0225b39da2e5c2d3b90600090a250565b60606001600160a01b0383163b6111f15760405162461bcd60e51b815260206004820152602660248201527f416464726573733a2064656c65676174652063616c6c20746f206e6f6e2d636f6044820152651b9d1c9858dd60d21b6064820152608401610392565b600080846001600160a01b03168460405161120c919061194f565b600060405180830381855af49150503d8060008114611247576040519150601f19603f3d011682016040523d82523d6000602084013e61124c565b606091505b509150915061127482826040518060600160405280602781526020016119956027913961127d565b95945050505050565b6060831561128c575081611296565b611296838361129d565b9392505050565b8151156112ad5781518083602001fd5b8060405162461bcd60e51b81526004016103929190611961565b6001600160a01b038116811461042f57600080fd5b6000806000604084860312156112f157600080fd5b833567ffffffffffffffff8082111561130957600080fd5b818601915086601f83011261131d57600080fd5b81358181111561132c57600080fd5b8760208260051b850101111561134157600080fd5b60209283019550935050840135611357816112c7565b809150509250925092565b803561136d816112c7565b919050565b60006020828403121561138457600080fd5b8135611296816112c7565b634e487b7160e01b600052604160045260246000fd5b601f8201601f1916810167ffffffffffffffff811182821017156113cb576113cb61138f565b6040525050565b600080604083850312156113e557600080fd5b82356113f0816112c7565b915060208381013567ffffffffffffffff8082111561140e57600080fd5b818601915086601f83011261142257600080fd5b8135818111156114345761143461138f565b604051915061144c601f8201601f19168501836113a5565b808252878482850101111561146057600080fd5b80848401858401376000848284010152508093505050509250929050565b60006020828403121561149057600080fd5b813567ffffffffffffffff8111156114a757600080fd5b8201610160818503121561129657600080fd5b634e487b7160e01b600052603260045260246000fd5b6000823561015e198336030181126114e757600080fd5b9190910192915050565b60006001820161151157634e487b7160e01b600052601160045260246000fd5b5060010190565b6020808252602c908201527f46756e6374696f6e206d7573742062652063616c6c6564207468726f7567682060408201526b19195b1959d85d1958d85b1b60a21b606082015260800190565b6020808252602c908201527f46756e6374696f6e206d7573742062652063616c6c6564207468726f7567682060408201526b6163746976652070726f787960a01b606082015260800190565b6000808335601e198436030181126115c757600080fd5b83018035915067ffffffffffffffff8211156115e257600080fd5b6020019150368190038213156115f757600080fd5b9250929050565b6000808335601e1984360301811261161557600080fd5b830160208101925035905067ffffffffffffffff81111561163557600080fd5b8036038213156115f757600080fd5b81835281816020850137506000828201602090810191909152601f909101601f19169091010190565b6060815261168e6060820161168186611362565b6001600160a01b03169052565b6020840135608082015260006116a760408601866115fe565b6101608060a08601526116bf6101c086018385611644565b92506116ce60608901896115fe565b9250605f19808786030160c08801526116e8858584611644565b945060808a013560e0880152610100935060a08a013584880152610120915060c08a01358288015261014060e08b013581890152848b013584890152611730838c018c6115fe565b95509350818887030161018089015261174a868686611644565b9550611758818c018c6115fe565b955093505080878603016101a08801525050611775838383611644565b60208601979097525050505060400152919050565b60006020828403121561179c57600080fd5b5051919050565b600060033d11156105b35760046000803e5060005160e01c90565b600060443d10156117cc5790565b6040516003193d81016004833e81513d67ffffffffffffffff81602484011181841117156117fc57505050505090565b82850191508151818111156118145750505050505090565b843d870101602082850101111561182e5750505050505090565b61183d602082860101876113a5565b509095945050505050565b60005b8381101561186357818101518382015260200161184b565b50506000910152565b6e020a09919903932bb32b93a32b21d1608d1b81526000825161189681600f850160208701611848565b91909101600f0192915050565b600081518084526118bb816020860160208601611848565b601f01601f19169290920160200192915050565b8281526040602082015260006118e860408301846118a3565b949350505050565b6000808585111561190057600080fd5b8386111561190d57600080fd5b5050820193919092039150565b6bffffffffffffffffffffffff1981358181169160148510156119475780818660140360031b1b83161692505b505092915050565b600082516114e7818460208701611848565b60208152600061129660208301846118a356fe360894a13ba1a3210667c828492db98dca3e2076cc3735a920a3ca505d382bbc416464726573733a206c6f772d6c6576656c2064656c65676174652063616c6c206661696c6564a26469706673582212206ec47c7378a16d3e1995ce31dd7025a2a849dae14036a36260cedb815de9614764736f6c63430008100033",
    "linkReferences": {}
  },
  "methodIdentifiers": {
    "acceptOwnership()": "79ba5097",
    "getUserOpHash((address,uint256,bytes,bytes,uint256,uint256,uint256,uint256,uint256,bytes,bytes))": "a6193531",
    "handleOps((address,uint256,bytes,bytes,uint256,uint256,uint256,uint256,uint256,bytes,bytes)[],address)": "1fad948c",
    "initialize(address)": "c4d66de8",
    "owner()": "8da5cb5b",
    "pendingOwner()": "e30c3978",
    "proxiableUUID()": "52d1902d",
    "renounceOwnership()": "715018a6",
    "transferOwnership(address)": "f2fde38b",
    "upgradeTo(address)": "3659cfe6",
    "upgradeToAndCall(address,bytes)": "4f1ef286"
  },
  "id": 116
}