{
  "abi": [
    {
      "inputs": [],
      "stateMutability": "nonpayable",
      "type": "constructor"
    },
    {
      "inputs": [],
      "name": "ERC725X_ExecuteParametersLengthMismatch",
      "type": "error"
    },
    {
      "inputs": [
        {
          "internalType": "uint256",
          "name": "balance",
          "type": "uint256"
        },
        {
          "internalType": "uint256",
          "name": "value",
          "type": "uint256"
        }
      ],
      "name": "ERC725X_InsufficientBalance",
      "type": "error"
    },
    {
      "inputs": [
        {
          "internalType": "uint256",
          "name": "operationTypeProvided",
          "type": "uint256"
        }
      ],
      "name": "ERC725X_UnknownOperationType",
      "type": "error"
    },
    {
      "anonymous": false,
      "inputs": [
        {
          "indexed": false,
          "internalType": "address",
          "name": "previousAdmin",
          "type": "address"
        },
        {
          "indexed": false,
          "internalType": "address",
          "name": "newAdmin",
          "type": "address"
        }
      ],
      "name": "AdminChanged",
      "type": "event"
    },
    {
      "anonymous": false,
      "inputs": [
        {
          "indexed": true,
          "internalType": "address",
          "name": "beacon",
          "type": "address"
        }
      ],
      "name": "BeaconUpgraded",
      "type": "event"
    },
    {
      "anonymous": false,
      "inputs": [
        {
          "indexed": true,
          "internalType": "uint256",
          "name": "operationType",
          "type": "uint256"
        },
        {
          "indexed": true,
          "internalType": "address",
          "name": "contractAddress",
          "type": "address"
        },
        {
          "indexed": true,
          "internalType": "uint256",
          "name": "value",
          "type": "uint256"
        },
        {
          "indexed": false,
          "internalType": "bytes32",
          "name": "salt",
          "type": "bytes32"
        }
      ],
      "name": "ContractCreated",
      "type": "event"
    },
    {
      "anonymous": false,
      "inputs": [
        {
          "indexed": true,
          "internalType": "uint256",
          "name": "operationType",
          "type": "uint256"
        },
        {
          "indexed": true,
          "internalType": "address",
          "name": "target",
          "type": "address"
        },
        {
          "indexed": true,
          "internalType": "uint256",
          "name": "value",
          "type": "uint256"
        },
        {
          "indexed": false,
          "internalType": "bytes4",
          "name": "selector",
          "type": "bytes4"
        }
      ],
      "name": "Executed",
      "type": "event"
    },
    {
      "anonymous": false,
      "inputs": [
        {
          "indexed": false,
          "internalType": "uint8",
          "name": "version",
          "type": "uint8"
        }
      ],
      "name": "Initialized",
      "type": "event"
    },
    {
      "anonymous": false,
      "inputs": [
        {
          "indexed": true,
          "internalType": "address",
          "name": "previousOwner",
          "type": "address"
        },
        {
          "indexed": true,
          "internalType": "address",
          "name": "newOwner",
          "type": "address"
        }
      ],
      "name": "OwnershipTransferStarted",
      "type": "event"
    },
    {
      "anonymous": false,
      "inputs": [
        {
          "indexed": true,
          "internalType": "address",
          "name": "previousOwner",
          "type": "address"
        },
        {
          "indexed": true,
          "internalType": "address",
          "name": "newOwner",
          "type": "address"
        }
      ],
      "name": "OwnershipTransferred",
      "type": "event"
    },
    {
      "anonymous": false,
      "inputs": [
        {
          "indexed": true,
          "internalType": "address",
          "name": "from",
          "type": "address"
        },
        {
          "indexed": false,
          "internalType": "uint256",
          "name": "value",
          "type": "uint256"
        }
      ],
      "name": "Receive",
      "type": "event"
    },
    {
      "anonymous": false,
      "inputs": [
        {
          "indexed": true,
          "internalType": "address",
          "name": "prevMaster",
          "type": "address"
        },
        {
          "indexed": true,
          "internalType": "address",
          "name": "newMaster",
          "type": "address"
        }
      ],
      "name": "UpdateMaster",
      "type": "event"
    },
    {
      "anonymous": false,
      "inputs": [
        {
          "indexed": true,
          "internalType": "address",
          "name": "implementation",
          "type": "address"
        }
      ],
      "name": "Upgraded",
      "type": "event"
    },
    {
      "inputs": [],
      "name": "acceptOwnership",
      "outputs": [],
      "stateMutability": "nonpayable",
      "type": "function"
    },
    {
      "inputs": [],
      "name": "entryPoint",
      "outputs": [
        {
          "internalType": "address",
          "name": "",
          "type": "address"
        }
      ],
      "stateMutability": "view",
      "type": "function"
    },
    {
      "inputs": [
        {
          "internalType": "uint256[]",
          "name": "operationsType",
          "type": "uint256[]"
        },
        {
          "internalType": "address[]",
          "name": "targets",
          "type": "address[]"
        },
        {
          "internalType": "uint256[]",
          "name": "values",
          "type": "uint256[]"
        },
        {
          "internalType": "bytes[]",
          "name": "datas",
          "type": "bytes[]"
        }
      ],
      "name": "execute",
      "outputs": [
        {
          "internalType": "bytes[]",
          "name": "",
          "type": "bytes[]"
        }
      ],
      "stateMutability": "payable",
      "type": "function"
    },
    {
      "inputs": [
        {
          "internalType": "uint256",
          "name": "operationType",
          "type": "uint256"
        },
        {
          "internalType": "address",
          "name": "target",
          "type": "address"
        },
        {
          "internalType": "uint256",
          "name": "value",
          "type": "uint256"
        },
        {
          "internalType": "bytes",
          "name": "data",
          "type": "bytes"
        }
      ],
      "name": "execute",
      "outputs": [
        {
          "internalType": "bytes",
          "name": "",
          "type": "bytes"
        }
      ],
      "stateMutability": "payable",
      "type": "function"
    },
    {
      "inputs": [],
      "name": "guardians",
      "outputs": [
        {
          "internalType": "address",
          "name": "",
          "type": "address"
        }
      ],
      "stateMutability": "view",
      "type": "function"
    },
    {
      "inputs": [],
      "name": "inactivityReqTime",
      "outputs": [
        {
          "internalType": "uint256",
          "name": "",
          "type": "uint256"
        }
      ],
      "stateMutability": "view",
      "type": "function"
    },
    {
      "inputs": [
        {
          "internalType": "address",
          "name": "owner_",
          "type": "address"
        },
        {
          "internalType": "address",
          "name": "master_",
          "type": "address"
        },
        {
          "internalType": "address",
          "name": "guardians_",
          "type": "address"
        },
        {
          "internalType": "address",
          "name": "entryPoint_",
          "type": "address"
        },
        {
          "internalType": "contract IHumanExecutePolicies",
          "name": "policies_",
          "type": "address"
        },
        {
          "internalType": "uint256",
          "name": "inactivityReqTime_",
          "type": "uint256"
        }
      ],
      "name": "initialize",
      "outputs": [],
      "stateMutability": "nonpayable",
      "type": "function"
    },
    {
      "inputs": [],
      "name": "lastExecutionTime",
      "outputs": [
        {
          "internalType": "uint256",
          "name": "",
          "type": "uint256"
        }
      ],
      "stateMutability": "view",
      "type": "function"
    },
    {
      "inputs": [],
      "name": "master",
      "outputs": [
        {
          "internalType": "address",
          "name": "",
          "type": "address"
        }
      ],
      "stateMutability": "view",
      "type": "function"
    },
    {
      "inputs": [],
      "name": "nonce",
      "outputs": [
        {
          "internalType": "uint256",
          "name": "",
          "type": "uint256"
        }
      ],
      "stateMutability": "view",
      "type": "function"
    },
    {
      "inputs": [
        {
          "internalType": "address",
          "name": "",
          "type": "address"
        },
        {
          "internalType": "address",
          "name": "",
          "type": "address"
        },
        {
          "internalType": "uint256[]",
          "name": "",
          "type": "uint256[]"
        },
        {
          "internalType": "uint256[]",
          "name": "",
          "type": "uint256[]"
        },
        {
          "internalType": "bytes",
          "name": "",
          "type": "bytes"
        }
      ],
      "name": "onERC1155BatchReceived",
      "outputs": [
        {
          "internalType": "bytes4",
          "name": "",
          "type": "bytes4"
        }
      ],
      "stateMutability": "nonpayable",
      "type": "function"
    },
    {
      "inputs": [
        {
          "internalType": "address",
          "name": "",
          "type": "address"
        },
        {
          "internalType": "address",
          "name": "",
          "type": "address"
        },
        {
          "internalType": "uint256",
          "name": "",
          "type": "uint256"
        },
        {
          "internalType": "uint256",
          "name": "",
          "type": "uint256"
        },
        {
          "internalType": "bytes",
          "name": "",
          "type": "bytes"
        }
      ],
      "name": "onERC1155Received",
      "outputs": [
        {
          "internalType": "bytes4",
          "name": "",
          "type": "bytes4"
        }
      ],
      "stateMutability": "nonpayable",
      "type": "function"
    },
    {
      "inputs": [
        {
          "internalType": "address",
          "name": "",
          "type": "address"
        },
        {
          "internalType": "address",
          "name": "",
          "type": "address"
        },
        {
          "internalType": "uint256",
          "name": "",
          "type": "uint256"
        },
        {
          "internalType": "bytes",
          "name": "",
          "type": "bytes"
        }
      ],
      "name": "onERC721Received",
      "outputs": [
        {
          "internalType": "bytes4",
          "name": "",
          "type": "bytes4"
        }
      ],
      "stateMutability": "nonpayable",
      "type": "function"
    },
    {
      "inputs": [],
      "name": "owner",
      "outputs": [
        {
          "internalType": "address",
          "name": "",
          "type": "address"
        }
      ],
      "stateMutability": "view",
      "type": "function"
    },
    {
      "inputs": [],
      "name": "pendingOwner",
      "outputs": [
        {
          "internalType": "address",
          "name": "",
          "type": "address"
        }
      ],
      "stateMutability": "view",
      "type": "function"
    },
    {
      "inputs": [],
      "name": "policies",
      "outputs": [
        {
          "internalType": "contract IHumanExecutePolicies",
          "name": "",
          "type": "address"
        }
      ],
      "stateMutability": "view",
      "type": "function"
    },
    {
      "inputs": [],
      "name": "proxiableUUID",
      "outputs": [
        {
          "internalType": "bytes32",
          "name": "",
          "type": "bytes32"
        }
      ],
      "stateMutability": "view",
      "type": "function"
    },
    {
      "inputs": [],
      "name": "renounceOwnership",
      "outputs": [],
      "stateMutability": "nonpayable",
      "type": "function"
    },
    {
      "inputs": [
        {
          "internalType": "bytes4",
          "name": "interfaceId",
          "type": "bytes4"
        }
      ],
      "name": "supportsInterface",
      "outputs": [
        {
          "internalType": "bool",
          "name": "",
          "type": "bool"
        }
      ],
      "stateMutability": "view",
      "type": "function"
    },
    {
      "inputs": [
        {
          "internalType": "address",
          "name": "operator",
          "type": "address"
        },
        {
          "internalType": "address",
          "name": "from",
          "type": "address"
        },
        {
          "internalType": "address",
          "name": "to",
          "type": "address"
        },
        {
          "internalType": "uint256",
          "name": "amount",
          "type": "uint256"
        },
        {
          "internalType": "bytes",
          "name": "userData",
          "type": "bytes"
        },
        {
          "internalType": "bytes",
          "name": "operatorData",
          "type": "bytes"
        }
      ],
      "name": "tokensReceived",
      "outputs": [],
      "stateMutability": "nonpayable",
      "type": "function"
    },
    {
      "inputs": [
        {
          "internalType": "address",
          "name": "newOwner",
          "type": "address"
        }
      ],
      "name": "transferOwnership",
      "outputs": [],
      "stateMutability": "nonpayable",
      "type": "function"
    },
    {
      "inputs": [
        {
          "internalType": "address",
          "name": "newMaster",
          "type": "address"
        },
        {
          "internalType": "uint256",
          "name": "deadline",
          "type": "uint256"
        },
        {
          "internalType": "bytes",
          "name": "signature",
          "type": "bytes"
        }
      ],
      "name": "updateMaster",
      "outputs": [],
      "stateMutability": "nonpayable",
      "type": "function"
    },
    {
      "inputs": [
        {
          "internalType": "address",
          "name": "newMaster",
          "type": "address"
        }
      ],
      "name": "updateMasterFromGuardian",
      "outputs": [],
      "stateMutability": "nonpayable",
      "type": "function"
    },
    {
      "inputs": [
        {
          "internalType": "address",
          "name": "newImplementation",
          "type": "address"
        }
      ],
      "name": "upgradeTo",
      "outputs": [],
      "stateMutability": "nonpayable",
      "type": "function"
    },
    {
      "inputs": [
        {
          "internalType": "address",
          "name": "newImplementation",
          "type": "address"
        },
        {
          "internalType": "bytes",
          "name": "data",
          "type": "bytes"
        }
      ],
      "name": "upgradeToAndCall",
      "outputs": [],
      "stateMutability": "payable",
      "type": "function"
    },
    {
      "inputs": [
        {
          "components": [
            {
              "internalType": "address",
              "name": "sender",
              "type": "address"
            },
            {
              "internalType": "uint256",
              "name": "nonce",
              "type": "uint256"
            },
            {
              "internalType": "bytes",
              "name": "initCode",
              "type": "bytes"
            },
            {
              "internalType": "bytes",
              "name": "callData",
              "type": "bytes"
            },
            {
              "internalType": "uint256",
              "name": "callGasLimit",
              "type": "uint256"
            },
            {
              "internalType": "uint256",
              "name": "verificationGasLimit",
              "type": "uint256"
            },
            {
              "internalType": "uint256",
              "name": "preVerificationGas",
              "type": "uint256"
            },
            {
              "internalType": "uint256",
              "name": "maxFeePerGas",
              "type": "uint256"
            },
            {
              "internalType": "uint256",
              "name": "maxPriorityFeePerGas",
              "type": "uint256"
            },
            {
              "internalType": "bytes",
              "name": "paymasterAndData",
              "type": "bytes"
            },
            {
              "internalType": "bytes",
              "name": "signature",
              "type": "bytes"
            }
          ],
          "internalType": "struct UserOperation",
          "name": "userOp",
          "type": "tuple"
        },
        {
          "internalType": "bytes32",
          "name": "userOpHash",
          "type": "bytes32"
        },
        {
          "internalType": "uint256",
          "name": "missingAccountFunds",
          "type": "uint256"
        }
      ],
      "name": "validateUserOp",
      "outputs": [
        {
          "internalType": "uint256",
          "name": "validationData",
          "type": "uint256"
        }
      ],
      "stateMutability": "nonpayable",
      "type": "function"
    },
    {
      "stateMutability": "payable",
      "type": "receive"
    }
  ],
  "bytecode": {
    "object": "0x60a0604052306080523480156200001557600080fd5b506200002062000026565b620000e8565b600054610100900460ff1615620000935760405162461bcd60e51b815260206004820152602760248201527f496e697469616c697a61626c653a20636f6e747261637420697320696e697469604482015266616c697a696e6760c81b606482015260840160405180910390fd5b60005460ff9081161015620000e6576000805460ff191660ff9081179091556040519081527f7f26b83ff96e1f2b6a682f133852f6798a09c465da95921460cefb38474024989060200160405180910390a15b565b6080516128d56200012060003960008181610686015281816106c6015281816107af015281816107ef015261088201526128d56000f3fe6080604052600436106101845760003560e01c806373b379bd116100d1578063bc197c811161008a578063e30c397811610064578063e30c3978146104a2578063ee97f7f3146104c0578063f23a6e61146104e0578063f2fde38b1461050c57600080fd5b8063bc197c811461043f578063be166c711461046b578063c9697e7e1461048257600080fd5b806373b379bd146103a857806379ba5097146103bf5780638da5cb5b146103d457806395b6ef0c146103e9578063affed0e014610409578063b0d691fe1461041f57600080fd5b80633a871cdd1161013e57806352d1902d1161011857806352d1902d146103265780635a81d4ba1461033b578063702e7e1f14610373578063715018a61461039357600080fd5b80633a871cdd146102c557806344c028fe146102f35780634f1ef2861461031357600080fd5b806223de29146101c557806301ffc9a7146101ec578063121a86f81461022157806313ced88d14610241578063150b7a02146102615780633659cfe6146102a557600080fd5b366101c05760405134815233907fd6717f327e0cb88b4a97a7f67a453e9258252c34937ccbdd86de7cb840e7def39060200160405180910390a2005b600080fd5b3480156101d157600080fd5b506101ea6101e0366004611dd7565b5050505050505050565b005b3480156101f857600080fd5b5061020c610207366004611e87565b61052c565b60405190151581526020015b60405180910390f35b34801561022d57600080fd5b506101ea61023c366004611f74565b61054c565b61025461024f3660046120d4565b610663565b604051610218919061222d565b34801561026d57600080fd5b5061028c61027c36600461228f565b630a85bd0160e11b949350505050565b6040516001600160e01b03199091168152602001610218565b3480156102b157600080fd5b506101ea6102c03660046122ee565b61067c565b3480156102d157600080fd5b506102e56102e036600461230b565b61075b565b604051908152602001610218565b61030661030136600461235e565b610797565b6040516102189190612386565b6101ea610321366004612399565b6107a5565b34801561033257600080fd5b506102e5610875565b34801561034757600080fd5b5060fc5461035b906001600160a01b031681565b6040516001600160a01b039091168152602001610218565b34801561037f57600080fd5b5060ff5461035b906001600160a01b031681565b34801561039f57600080fd5b506101ea610928565b3480156103b457600080fd5b506102e56101005481565b3480156103cb57600080fd5b506101ea61093c565b3480156103e057600080fd5b5061035b6109b3565b3480156103f557600080fd5b506101ea6104043660046123e8565b6109cc565b34801561041557600080fd5b506102e560fd5481565b34801561042b57600080fd5b5060fe5461035b906001600160a01b031681565b34801561044b57600080fd5b5061028c61045a366004612461565b63bc197c8160e01b95945050505050565b34801561047757600080fd5b506102e56101015481565b34801561048e57600080fd5b506101ea61049d3660046122ee565b610b4e565b3480156104ae57600080fd5b5060c9546001600160a01b031661035b565b3480156104cc57600080fd5b5060fb5461035b906001600160a01b031681565b3480156104ec57600080fd5b5061028c6104fb36600461250e565b63f23a6e6160e01b95945050505050565b34801561051857600080fd5b506101ea6105273660046122ee565b610bb2565b600061053782610c0e565b80610546575061054682610c43565b92915050565b610554610c94565b8142111561059a5760405162461bcd60e51b815260206004820152600e60248201526d48756d616e3a646561646c696e6560901b60448201526064015b60405180910390fd5b60fb546040805130602082015263024350df60e31b918101919091526001600160a01b03918216606082015290841660808201524660a082015260c0810183905260009060e0016040516020818303038152906040528051906020012090506106038183610d24565b60fb546040516001600160a01b038087169216907f9b8edc34129aa80345926fcafdcdbbf0ec52c61a5cfe9f4ca60759070045c50d90600090a3505060fb80546001600160a01b0319166001600160a01b03939093169290921790915550565b606061067185858585610e22565b90505b949350505050565b6001600160a01b037f00000000000000000000000000000000000000000000000000000000000000001630036106c45760405162461bcd60e51b815260040161059190612576565b7f00000000000000000000000000000000000000000000000000000000000000006001600160a01b031661070d600080516020612859833981519152546001600160a01b031690565b6001600160a01b0316146107335760405162461bcd60e51b8152600401610591906125c2565b61073c81610f66565b6040805160008082526020820190925261075891839190610fa2565b50565b6000610765611112565b61076f8484611178565b905061077e604085018561260e565b90506000036107905761079084611207565b9392505050565b606061067185858585611266565b6001600160a01b037f00000000000000000000000000000000000000000000000000000000000000001630036107ed5760405162461bcd60e51b815260040161059190612576565b7f00000000000000000000000000000000000000000000000000000000000000006001600160a01b0316610836600080516020612859833981519152546001600160a01b031690565b6001600160a01b03161461085c5760405162461bcd60e51b8152600401610591906125c2565b61086582610f66565b61087182826001610fa2565b5050565b6000306001600160a01b037f000000000000000000000000000000000000000000000000000000000000000016146109155760405162461bcd60e51b815260206004820152603860248201527f555550535570677261646561626c653a206d757374206e6f742062652063616c60448201527f6c6564207468726f7567682064656c656761746563616c6c00000000000000006064820152608401610591565b5060008051602061285983398151915290565b6109306112ad565b61093a6000611313565b565b60c95433906001600160a01b031681146109aa5760405162461bcd60e51b815260206004820152602960248201527f4f776e61626c6532537465703a2063616c6c6572206973206e6f7420746865206044820152683732bb9037bbb732b960b91b6064820152608401610591565b61075881611313565b60006109c76097546001600160a01b031690565b905090565b600054610100900460ff16158080156109ec5750600054600160ff909116105b80610a065750303b158015610a06575060005460ff166001145b610a695760405162461bcd60e51b815260206004820152602e60248201527f496e697469616c697a61626c653a20636f6e747261637420697320616c72656160448201526d191e481a5b9a5d1a585b1a5e995960921b6064820152608401610591565b6000805460ff191660011790558015610a8c576000805461ff0019166101001790555b610a9461132c565b610a9c61132c565b610aa587611313565b60fb80546001600160a01b038089166001600160a01b03199283161790925560fc8054888416908316179055600060fd5560fe805487841690831617905560ff80549286169290911691909117905542610100556101018290558015610b45576000805461ff0019169055604051600181527f7f26b83ff96e1f2b6a682f133852f6798a09c465da95921460cefb38474024989060200160405180910390a15b50505050505050565b610b566112ad565b60fb546040516001600160a01b038084169216907f9b8edc34129aa80345926fcafdcdbbf0ec52c61a5cfe9f4ca60759070045c50d90600090a360fb80546001600160a01b0319166001600160a01b0392909216919091179055565b426101015461010054610bc5919061266a565b10610c055760405162461bcd60e51b815260206004820152601060248201526f48756d616e3a696e616374697669747960801b6044820152606401610591565b61075881611397565b60006001600160e01b0319821663570ef07360e01b148061054657506301ffc9a760e01b6001600160e01b0319831614610546565b60006001600160e01b03198216630a85bd0160e11b1480610c7457506001600160e01b03198216630271189760e51b145b8061054657506001600160e01b031982166301ffc9a760e01b1492915050565b60fe546001600160a01b0316331480610cc55750610cb06109b3565b6001600160a01b0316336001600160a01b0316145b61093a5760405162461bcd60e51b815260206004820152602a60248201527f48756d616e455243343333373a5f7265717569726546726f6d456e747279506f60448201526934b73a27b927bbb732b960b11b6064820152608401610591565b60fb546000906001600160a01b03163b610d495760fb546001600160a01b0316610dc0565b60fb60009054906101000a90046001600160a01b03166001600160a01b031663ee97f7f36040518163ffffffff1660e01b8152600401602060405180830381865afa158015610d9c573d6000803e3d6000fd5b505050506040513d601f19601f82011682018060405250810190610dc0919061267d565b90506000610dd782610dd1866113fd565b85611450565b905080610e1c5760405162461bcd60e51b815260206004820152601360248201527248756d616e3a324641207369676e617475726560681b6044820152606401610591565b50505050565b606083518551141580610e43575082518451141580610e4357508151835114155b15610e6157604051633ff55f4d60e01b815260040160405180910390fd5b600085516001600160401b03811115610e7c57610e7c611eb1565b604051908082528060200260200182016040528015610eaf57816020015b6060815260200190600190039081610e9a5790505b50905060005b8651811015610f5c57610f2e878281518110610ed357610ed361269a565b6020026020010151878381518110610eed57610eed61269a565b6020026020010151878481518110610f0757610f0761269a565b6020026020010151878581518110610f2157610f2161269a565b6020026020010151611266565b828281518110610f4057610f4061269a565b6020026020010181905250610f558160010190565b9050610eb5565b5095945050505050565b3330146107585760405162461bcd60e51b815260206004820152600a602482015269243ab6b0b71d39b2b63360b11b6044820152606401610591565b7f4910fdfa16fed3260ed0e7147f7cc6da11a60208b5b9406d12a635614ffd91435460ff1615610fda57610fd583611592565b505050565b826001600160a01b03166352d1902d6040518163ffffffff1660e01b8152600401602060405180830381865afa925050508015611034575060408051601f3d908101601f19168201909252611031918101906126b0565b60015b6110975760405162461bcd60e51b815260206004820152602e60248201527f45524331393637557067726164653a206e657720696d706c656d656e7461746960448201526d6f6e206973206e6f74205555505360901b6064820152608401610591565b60008051602061285983398151915281146111065760405162461bcd60e51b815260206004820152602960248201527f45524331393637557067726164653a20756e737570706f727465642070726f786044820152681a58589b195555525160ba1b6064820152608401610591565b50610fd583838361162e565b60fe546001600160a01b0316331461093a5760405162461bcd60e51b815260206004820152602360248201527f48756d616e455243343333373a5f7265717569726546726f6d456e747279506f6044820152621a5b9d60ea1b6064820152608401610591565b600080611184836113fd565b90506111d461119761014086018661260e565b8080601f01602080910402602001604051908101604052809392919081815260200183838082843760009201919091525085939250506116539050565b6001600160a01b03166111e56109b3565b6001600160a01b0316146111fd576001915050610546565b5060009392505050565b60fd8054602083013591600061121c836126c9565b91905055146107585760405162461bcd60e51b81526020600482015260166024820152756163636f756e743a20696e76616c6964206e6f6e636560501b6044820152606401610591565b606061127485858585611677565b61127e4261010055565b6000828060200190518101906112949190612727565b5090506112a3868686846117bb565b9695505050505050565b60fc546001600160a01b0316331461093a5760405162461bcd60e51b8152602060048201526024808201527f4f776e61626c653a2063616c6c6572206973206e6f742074686520677561726460448201526369616e7360e01b6064820152608401610591565b60c980546001600160a01b0319169055610758816117f0565b600054610100900460ff1661093a5760405162461bcd60e51b815260206004820152602b60248201527f496e697469616c697a61626c653a20636f6e7472616374206973206e6f74206960448201526a6e697469616c697a696e6760a81b6064820152608401610591565b61139f6112ad565b60c980546001600160a01b0319166001600160a01b0383169081179091556113c56109b3565b6001600160a01b03167f38d16b8cac22d99fc7c124b9cd0de2d3fa1faef420bfe791d8c362d765e2270060405160405180910390a350565b6040517f19457468657265756d205369676e6564204d6573736167653a0a3332000000006020820152603c8101829052600090605c01604051602081830303815290604052805190602001209050919050565b600080600061145f8585611842565b9092509050600081600481111561147857611478612780565b1480156114965750856001600160a01b0316826001600160a01b0316145b156114a657600192505050610790565b600080876001600160a01b0316631626ba7e60e01b88886040516024016114ce929190612796565b60408051601f198184030181529181526020820180516001600160e01b03166001600160e01b031990941693909317909252905161150c91906127af565b600060405180830381855afa9150503d8060008114611547576040519150601f19603f3d011682016040523d82523d6000602084013e61154c565b606091505b509150915081801561155f575080516020145b801561158657508051630b135d3f60e11b9061158490830160209081019084016126b0565b145b98975050505050505050565b6001600160a01b0381163b6115ff5760405162461bcd60e51b815260206004820152602d60248201527f455243313936373a206e657720696d706c656d656e746174696f6e206973206e60448201526c1bdd08184818dbdb9d1c9858dd609a1b6064820152608401610591565b60008051602061285983398151915280546001600160a01b0319166001600160a01b0392909216919091179055565b61163783611887565b6000825111806116445750805b15610fd557610e1c83836118c7565b60008060006116628585611842565b9150915061166f816119bb565b509392505050565b61167f610c94565b83156116c65760405162461bcd60e51b8152602060048201526016602482015275121d5b585b8e93d4115490551253d397cc17d0d0531360521b6044820152606401610591565b306001600160a01b038416036117125760405162461bcd60e51b8152602060048201526011602482015270121d5b585b8e9cd95b198b5d185c99d95d607a1b6044820152606401610591565b600080828060200190518101906117299190612727565b60ff546040516320f9e50b60e21b81529294509092506000916001600160a01b03909116906383e7942c9061176690899087908a906004016127cb565b602060405180830381865afa158015611783573d6000803e3d6000fd5b505050506040513d601f19601f820116820180604052508101906117a791906127ff565b905080610b4557610b458787878686611b05565b6060846117d4576117cd848484611b64565b9050610674565b604051631d60ecef60e21b815260048101869052602401610591565b609780546001600160a01b038381166001600160a01b0319831681179093556040519116919082907f8be0079c531659141344cd1fd0a4f28419497f9722a3daafe3b4186f6b6457e090600090a35050565b60008082516041036118785760208301516040840151606085015160001a61186c87828585611c7f565b94509450505050611880565b506000905060025b9250929050565b61189081611592565b6040516001600160a01b038216907fbc7cd75a20ee27fd9adebab32041f755214dbc6bffa90cc0225b39da2e5c2d3b90600090a250565b60606001600160a01b0383163b61192f5760405162461bcd60e51b815260206004820152602660248201527f416464726573733a2064656c65676174652063616c6c20746f206e6f6e2d636f6044820152651b9d1c9858dd60d21b6064820152608401610591565b600080846001600160a01b03168460405161194a91906127af565b600060405180830381855af49150503d8060008114611985576040519150601f19603f3d011682016040523d82523d6000602084013e61198a565b606091505b50915091506119b2828260405180606001604052806027815260200161287960279139611d43565b95945050505050565b60008160048111156119cf576119cf612780565b036119d75750565b60018160048111156119eb576119eb612780565b03611a385760405162461bcd60e51b815260206004820152601860248201527f45434453413a20696e76616c6964207369676e617475726500000000000000006044820152606401610591565b6002816004811115611a4c57611a4c612780565b03611a995760405162461bcd60e51b815260206004820152601f60248201527f45434453413a20696e76616c6964207369676e6174757265206c656e677468006044820152606401610591565b6003816004811115611aad57611aad612780565b036107585760405162461bcd60e51b815260206004820152602260248201527f45434453413a20696e76616c6964207369676e6174757265202773272076616c604482015261756560f01b6064820152608401610591565b81516020808401919091206040805130818501528082018990526001600160a01b03881660608201526080810187905260a0808201939093528151808203909301835260c00190528051910120611b5c8183610d24565b505050505050565b606082471015611b90576040516301bf351f60e31b815247600482015260248101849052604401610591565b826001600160a01b03851660007f4810874456b8e6487bd861375cf6abd8e1c8bb5858c8ce36a86a04dabfac199e611bc786612821565b6040516001600160e01b0319909116815260200160405180910390a4600080856001600160a01b03168585604051611bff91906127af565b60006040518083038185875af1925050503d8060008114611c3c576040519150601f19603f3d011682016040523d82523d6000602084013e611c41565b606091505b50915091506112a382826040518060400160405280601681526020017522a9219b991aac1d102ab735b737bbb71022b93937b960511b815250611d43565b6000807f7fffffffffffffffffffffffffffffff5d576e7357a4501ddfe92f46681b20a0831115611cb65750600090506003611d3a565b6040805160008082526020820180845289905260ff881692820192909252606081018690526080810185905260019060a0016020604051602081039080840390855afa158015611d0a573d6000803e3d6000fd5b5050604051601f1901519150506001600160a01b038116611d3357600060019250925050611d3a565b9150600090505b94509492505050565b60608315611d52575081610790565b6107908383815115611d675781518083602001fd5b8060405162461bcd60e51b81526004016105919190612386565b6001600160a01b038116811461075857600080fd5b60008083601f840112611da857600080fd5b5081356001600160401b03811115611dbf57600080fd5b60208301915083602082850101111561188057600080fd5b60008060008060008060008060c0898b031215611df357600080fd5b8835611dfe81611d81565b97506020890135611e0e81611d81565b96506040890135611e1e81611d81565b95506060890135945060808901356001600160401b0380821115611e4157600080fd5b611e4d8c838d01611d96565b909650945060a08b0135915080821115611e6657600080fd5b50611e738b828c01611d96565b999c989b5096995094979396929594505050565b600060208284031215611e9957600080fd5b81356001600160e01b03198116811461079057600080fd5b634e487b7160e01b600052604160045260246000fd5b604051601f8201601f191681016001600160401b0381118282101715611eef57611eef611eb1565b604052919050565b60006001600160401b03821115611f1057611f10611eb1565b50601f01601f191660200190565b600082601f830112611f2f57600080fd5b8135611f42611f3d82611ef7565b611ec7565b818152846020838601011115611f5757600080fd5b816020850160208301376000918101602001919091529392505050565b600080600060608486031215611f8957600080fd5b8335611f9481611d81565b92506020840135915060408401356001600160401b03811115611fb657600080fd5b611fc286828701611f1e565b9150509250925092565b60006001600160401b03821115611fe557611fe5611eb1565b5060051b60200190565b600082601f83011261200057600080fd5b81356020612010611f3d83611fcc565b82815260059290921b8401810191818101908684111561202f57600080fd5b8286015b8481101561204a5780358352918301918301612033565b509695505050505050565b600082601f83011261206657600080fd5b81356020612076611f3d83611fcc565b82815260059290921b8401810191818101908684111561209557600080fd5b8286015b8481101561204a5780356001600160401b038111156120b85760008081fd5b6120c68986838b0101611f1e565b845250918301918301612099565b600080600080608085870312156120ea57600080fd5b84356001600160401b038082111561210157600080fd5b61210d88838901611fef565b955060209150818701358181111561212457600080fd5b8701601f8101891361213557600080fd5b8035612143611f3d82611fcc565b81815260059190911b8201840190848101908b83111561216257600080fd5b928501925b8284101561218957833561217a81611d81565b82529285019290850190612167565b975050505060408701359150808211156121a257600080fd5b6121ae88838901611fef565b935060608701359150808211156121c457600080fd5b506121d187828801612055565b91505092959194509250565b60005b838110156121f85781810151838201526020016121e0565b50506000910152565b600081518084526122198160208601602086016121dd565b601f01601f19169290920160200192915050565b6000602080830181845280855180835260408601915060408160051b870101925083870160005b8281101561228257603f19888603018452612270858351612201565b94509285019290850190600101612254565b5092979650505050505050565b600080600080608085870312156122a557600080fd5b84356122b081611d81565b935060208501356122c081611d81565b92506040850135915060608501356001600160401b038111156122e257600080fd5b6121d187828801611f1e565b60006020828403121561230057600080fd5b813561079081611d81565b60008060006060848603121561232057600080fd5b83356001600160401b0381111561233657600080fd5b8401610160818703121561234957600080fd5b95602085013595506040909401359392505050565b6000806000806080858703121561237457600080fd5b8435935060208501356122c081611d81565b6020815260006107906020830184612201565b600080604083850312156123ac57600080fd5b82356123b781611d81565b915060208301356001600160401b038111156123d257600080fd5b6123de85828601611f1e565b9150509250929050565b60008060008060008060c0878903121561240157600080fd5b863561240c81611d81565b9550602087013561241c81611d81565b9450604087013561242c81611d81565b9350606087013561243c81611d81565b9250608087013561244c81611d81565b8092505060a087013590509295509295509295565b600080600080600060a0868803121561247957600080fd5b853561248481611d81565b9450602086013561249481611d81565b935060408601356001600160401b03808211156124b057600080fd5b6124bc89838a01611fef565b945060608801359150808211156124d257600080fd5b6124de89838a01611fef565b935060808801359150808211156124f457600080fd5b5061250188828901611f1e565b9150509295509295909350565b600080600080600060a0868803121561252657600080fd5b853561253181611d81565b9450602086013561254181611d81565b9350604086013592506060860135915060808601356001600160401b0381111561256a57600080fd5b61250188828901611f1e565b6020808252602c908201527f46756e6374696f6e206d7573742062652063616c6c6564207468726f7567682060408201526b19195b1959d85d1958d85b1b60a21b606082015260800190565b6020808252602c908201527f46756e6374696f6e206d7573742062652063616c6c6564207468726f7567682060408201526b6163746976652070726f787960a01b606082015260800190565b6000808335601e1984360301811261262557600080fd5b8301803591506001600160401b0382111561263f57600080fd5b60200191503681900382131561188057600080fd5b634e487b7160e01b600052601160045260246000fd5b8082018082111561054657610546612654565b60006020828403121561268f57600080fd5b815161079081611d81565b634e487b7160e01b600052603260045260246000fd5b6000602082840312156126c257600080fd5b5051919050565b6000600182016126db576126db612654565b5060010190565b600082601f8301126126f357600080fd5b8151612701611f3d82611ef7565b81815284602083860101111561271657600080fd5b6106748260208301602087016121dd565b6000806040838503121561273a57600080fd5b82516001600160401b038082111561275157600080fd5b61275d868387016126e2565b9350602085015191508082111561277357600080fd5b506123de858286016126e2565b634e487b7160e01b600052602160045260246000fd5b8281526040602082015260006106746040830184612201565b600082516127c18184602087016121dd565b9190910192915050565b6001600160a01b03841681526060602082018190526000906127ef90830185612201565b9050826040830152949350505050565b60006020828403121561281157600080fd5b8151801515811461079057600080fd5b805160208201516001600160e01b031980821692919060048310156128505780818460040360031b1b83161693505b50505091905056fe360894a13ba1a3210667c828492db98dca3e2076cc3735a920a3ca505d382bbc416464726573733a206c6f772d6c6576656c2064656c65676174652063616c6c206661696c6564a264697066735822122023e53b2600aeb8fe03523c490ea959c804a561d8d7265f787e8308fe6be2e05964736f6c63430008100033",
    "linkReferences": {}
  },
  "methodIdentifiers": {
    "acceptOwnership()": "79ba5097",
    "entryPoint()": "b0d691fe",
    "execute(uint256,address,uint256,bytes)": "44c028fe",
    "execute(uint256[],address[],uint256[],bytes[])": "13ced88d",
    "guardians()": "5a81d4ba",
    "inactivityReqTime()": "be166c71",
    "initialize(address,address,address,address,address,uint256)": "95b6ef0c",
    "lastExecutionTime()": "73b379bd",
    "master()": "ee97f7f3",
    "nonce()": "affed0e0",
    "onERC1155BatchReceived(address,address,uint256[],uint256[],bytes)": "bc197c81",
    "onERC1155Received(address,address,uint256,uint256,bytes)": "f23a6e61",
    "onERC721Received(address,address,uint256,bytes)": "150b7a02",
    "owner()": "8da5cb5b",
    "pendingOwner()": "e30c3978",
    "policies()": "702e7e1f",
    "proxiableUUID()": "52d1902d",
    "renounceOwnership()": "715018a6",
    "supportsInterface(bytes4)": "01ffc9a7",
    "tokensReceived(address,address,address,uint256,bytes,bytes)": "0023de29",
    "transferOwnership(address)": "f2fde38b",
    "updateMaster(address,uint256,bytes)": "121a86f8",
    "updateMasterFromGuardian(address)": "c9697e7e",
    "upgradeTo(address)": "3659cfe6",
    "upgradeToAndCall(address,bytes)": "4f1ef286",
    "validateUserOp((address,uint256,bytes,bytes,uint256,uint256,uint256,uint256,uint256,bytes,bytes),bytes32,uint256)": "3a871cdd"
  },
  "id": 100
}