{
  "abi": [
    {
      "inputs": [],
      "stateMutability": "nonpayable",
      "type": "constructor"
    },
    {
      "anonymous": false,
      "inputs": [
        {
          "indexed": false,
          "internalType": "address",
          "name": "previousAdmin",
          "type": "address"
        },
        {
          "indexed": false,
          "internalType": "address",
          "name": "newAdmin",
          "type": "address"
        }
      ],
      "name": "AdminChanged",
      "type": "event"
    },
    {
      "anonymous": false,
      "inputs": [
        {
          "indexed": true,
          "internalType": "address",
          "name": "beacon",
          "type": "address"
        }
      ],
      "name": "BeaconUpgraded",
      "type": "event"
    },
    {
      "anonymous": false,
      "inputs": [
        {
          "indexed": false,
          "internalType": "uint8",
          "name": "version",
          "type": "uint8"
        }
      ],
      "name": "Initialized",
      "type": "event"
    },
    {
      "anonymous": false,
      "inputs": [
        {
          "indexed": true,
          "internalType": "address",
          "name": "proxy",
          "type": "address"
        },
        {
          "indexed": true,
          "internalType": "address",
          "name": "owner",
          "type": "address"
        },
        {
          "indexed": false,
          "internalType": "string",
          "name": "stringSalt",
          "type": "string"
        },
        {
          "indexed": false,
          "internalType": "address",
          "name": "guardian",
          "type": "address"
        },
        {
          "indexed": false,
          "internalType": "address",
          "name": "master",
          "type": "address"
        },
        {
          "indexed": false,
          "internalType": "uint256",
          "name": "inactivityTime",
          "type": "uint256"
        }
      ],
      "name": "NewHuman",
      "type": "event"
    },
    {
      "anonymous": false,
      "inputs": [
        {
          "indexed": true,
          "internalType": "address",
          "name": "safe",
          "type": "address"
        },
        {
          "indexed": false,
          "internalType": "address[]",
          "name": "owners",
          "type": "address[]"
        },
        {
          "indexed": false,
          "internalType": "uint256",
          "name": "salt",
          "type": "uint256"
        },
        {
          "indexed": false,
          "internalType": "uint256",
          "name": "threshold",
          "type": "uint256"
        }
      ],
      "name": "NewSafe",
      "type": "event"
    },
    {
      "anonymous": false,
      "inputs": [
        {
          "indexed": true,
          "internalType": "address",
          "name": "timelock",
          "type": "address"
        },
        {
          "indexed": false,
          "internalType": "uint256",
          "name": "delay",
          "type": "uint256"
        },
        {
          "indexed": false,
          "internalType": "address[]",
          "name": "proposers",
          "type": "address[]"
        },
        {
          "indexed": false,
          "internalType": "address[]",
          "name": "executors",
          "type": "address[]"
        }
      ],
      "name": "NewTimeLockController",
      "type": "event"
    },
    {
      "anonymous": false,
      "inputs": [
        {
          "indexed": true,
          "internalType": "address",
          "name": "previousOwner",
          "type": "address"
        },
        {
          "indexed": true,
          "internalType": "address",
          "name": "newOwner",
          "type": "address"
        }
      ],
      "name": "OwnershipTransferStarted",
      "type": "event"
    },
    {
      "anonymous": false,
      "inputs": [
        {
          "indexed": true,
          "internalType": "address",
          "name": "previousOwner",
          "type": "address"
        },
        {
          "indexed": true,
          "internalType": "address",
          "name": "newOwner",
          "type": "address"
        }
      ],
      "name": "OwnershipTransferred",
      "type": "event"
    },
    {
      "anonymous": false,
      "inputs": [
        {
          "indexed": false,
          "internalType": "address",
          "name": "signer",
          "type": "address"
        },
        {
          "indexed": false,
          "internalType": "address",
          "name": "policies",
          "type": "address"
        },
        {
          "indexed": false,
          "internalType": "address",
          "name": "entryPoint",
          "type": "address"
        }
      ],
      "name": "UpdateConfig",
      "type": "event"
    },
    {
      "anonymous": false,
      "inputs": [
        {
          "indexed": false,
          "internalType": "address",
          "name": "gnosisFactory",
          "type": "address"
        },
        {
          "indexed": false,
          "internalType": "address",
          "name": "fallbackHandler",
          "type": "address"
        },
        {
          "indexed": false,
          "internalType": "address",
          "name": "singleton",
          "type": "address"
        }
      ],
      "name": "UpdateSafe",
      "type": "event"
    },
    {
      "anonymous": false,
      "inputs": [
        {
          "indexed": true,
          "internalType": "address",
          "name": "implementation",
          "type": "address"
        }
      ],
      "name": "Upgraded",
      "type": "event"
    },
    {
      "inputs": [],
      "name": "acceptOwnership",
      "outputs": [],
      "stateMutability": "nonpayable",
      "type": "function"
    },
    {
      "inputs": [],
      "name": "beacon",
      "outputs": [
        {
          "internalType": "address",
          "name": "",
          "type": "address"
        }
      ],
      "stateMutability": "view",
      "type": "function"
    },
    {
      "inputs": [
        {
          "internalType": "address[]",
          "name": "safeOwners",
          "type": "address[]"
        },
        {
          "internalType": "uint256",
          "name": "safeSaltNonce",
          "type": "uint256"
        },
        {
          "internalType": "uint256",
          "name": "timelockMinDelay",
          "type": "uint256"
        },
        {
          "internalType": "address",
          "name": "owner",
          "type": "address"
        },
        {
          "internalType": "address",
          "name": "master",
          "type": "address"
        },
        {
          "internalType": "uint256",
          "name": "humanInactivityRequiredTime",
          "type": "uint256"
        },
        {
          "internalType": "string",
          "name": "create2StringSalt",
          "type": "string"
        }
      ],
      "name": "deployHuman",
      "outputs": [
        {
          "internalType": "address payable",
          "name": "",
          "type": "address"
        }
      ],
      "stateMutability": "nonpayable",
      "type": "function"
    },
    {
      "inputs": [],
      "name": "entryPoint",
      "outputs": [
        {
          "internalType": "address",
          "name": "",
          "type": "address"
        }
      ],
      "stateMutability": "view",
      "type": "function"
    },
    {
      "inputs": [],
      "name": "fallbackHandler",
      "outputs": [
        {
          "internalType": "address",
          "name": "",
          "type": "address"
        }
      ],
      "stateMutability": "view",
      "type": "function"
    },
    {
      "inputs": [
        {
          "internalType": "string",
          "name": "stringSalt",
          "type": "string"
        }
      ],
      "name": "getHuman",
      "outputs": [
        {
          "internalType": "address",
          "name": "",
          "type": "address"
        }
      ],
      "stateMutability": "view",
      "type": "function"
    },
    {
      "inputs": [],
      "name": "gnosisFactory",
      "outputs": [
        {
          "internalType": "contract ISafeProxyFactory",
          "name": "",
          "type": "address"
        }
      ],
      "stateMutability": "view",
      "type": "function"
    },
    {
      "inputs": [
        {
          "internalType": "address",
          "name": "human_",
          "type": "address"
        },
        {
          "internalType": "address",
          "name": "owner_",
          "type": "address"
        },
        {
          "internalType": "address",
          "name": "signer_",
          "type": "address"
        },
        {
          "internalType": "contract ISafeProxyFactory",
          "name": "gnosisFactory_",
          "type": "address"
        },
        {
          "internalType": "address",
          "name": "fallbackHandler_",
          "type": "address"
        },
        {
          "internalType": "address",
          "name": "singleton_",
          "type": "address"
        },
        {
          "internalType": "address",
          "name": "policies_",
          "type": "address"
        },
        {
          "internalType": "address",
          "name": "entryPoint_",
          "type": "address"
        }
      ],
      "name": "initialize",
      "outputs": [],
      "stateMutability": "nonpayable",
      "type": "function"
    },
    {
      "inputs": [],
      "name": "owner",
      "outputs": [
        {
          "internalType": "address",
          "name": "",
          "type": "address"
        }
      ],
      "stateMutability": "view",
      "type": "function"
    },
    {
      "inputs": [],
      "name": "pendingOwner",
      "outputs": [
        {
          "internalType": "address",
          "name": "",
          "type": "address"
        }
      ],
      "stateMutability": "view",
      "type": "function"
    },
    {
      "inputs": [],
      "name": "policies",
      "outputs": [
        {
          "internalType": "address",
          "name": "",
          "type": "address"
        }
      ],
      "stateMutability": "view",
      "type": "function"
    },
    {
      "inputs": [],
      "name": "proxiableUUID",
      "outputs": [
        {
          "internalType": "bytes32",
          "name": "",
          "type": "bytes32"
        }
      ],
      "stateMutability": "view",
      "type": "function"
    },
    {
      "inputs": [],
      "name": "renounceOwnership",
      "outputs": [],
      "stateMutability": "nonpayable",
      "type": "function"
    },
    {
      "inputs": [],
      "name": "signer",
      "outputs": [
        {
          "internalType": "address",
          "name": "",
          "type": "address"
        }
      ],
      "stateMutability": "view",
      "type": "function"
    },
    {
      "inputs": [],
      "name": "singleton",
      "outputs": [
        {
          "internalType": "address",
          "name": "",
          "type": "address"
        }
      ],
      "stateMutability": "view",
      "type": "function"
    },
    {
      "inputs": [
        {
          "internalType": "address",
          "name": "newOwner",
          "type": "address"
        }
      ],
      "name": "transferOwnership",
      "outputs": [],
      "stateMutability": "nonpayable",
      "type": "function"
    },
    {
      "inputs": [
        {
          "internalType": "address",
          "name": "signer_",
          "type": "address"
        },
        {
          "internalType": "address",
          "name": "policies_",
          "type": "address"
        },
        {
          "internalType": "address",
          "name": "entryPoint_",
          "type": "address"
        }
      ],
      "name": "updateConfig",
      "outputs": [],
      "stateMutability": "nonpayable",
      "type": "function"
    },
    {
      "inputs": [
        {
          "internalType": "contract ISafeProxyFactory",
          "name": "gnosisFactory_",
          "type": "address"
        },
        {
          "internalType": "address",
          "name": "fallbackHandler_",
          "type": "address"
        },
        {
          "internalType": "address",
          "name": "singleton_",
          "type": "address"
        }
      ],
      "name": "updateSafe",
      "outputs": [],
      "stateMutability": "nonpayable",
      "type": "function"
    },
    {
      "inputs": [
        {
          "internalType": "address",
          "name": "newImplementation",
          "type": "address"
        }
      ],
      "name": "upgradeTo",
      "outputs": [],
      "stateMutability": "nonpayable",
      "type": "function"
    },
    {
      "inputs": [
        {
          "internalType": "address",
          "name": "newImplementation",
          "type": "address"
        },
        {
          "internalType": "bytes",
          "name": "data",
          "type": "bytes"
        }
      ],
      "name": "upgradeToAndCall",
      "outputs": [],
      "stateMutability": "payable",
      "type": "function"
    }
  ],
  "bytecode": {
    "object": "0x60a06040523060805234801561001457600080fd5b5061001d610022565b6100e2565b600054610100900460ff161561008e5760405162461bcd60e51b815260206004820152602760248201527f496e697469616c697a61626c653a20636f6e747261637420697320696e697469604482015266616c697a696e6760c81b606482015260840160405180910390fd5b60005460ff90811610156100e0576000805460ff191660ff9081179091556040519081527f7f26b83ff96e1f2b6a682f133852f6798a09c465da95921460cefb38474024989060200160405180910390a15b565b6080516150746200011a6000396000818161051d01528181610569015281816106110152818161065401526106f001526150746000f3fe608060405260043610620001375760003560e01c806379ba509711620000ad578063b62654fb116200006c578063b62654fb146200034e578063e30c39781462000370578063eed2f2521462000390578063f2fde38b14620003b2578063fe59957214620003d757600080fd5b806379ba509714620002ac5780638a29e2de14620002c45780638da5cb5b14620002e9578063b0d691fe1462000309578063b1486fd5146200032c57600080fd5b806352d1902d11620000fa57806352d1902d146200020357806359659e90146200022a578063650d0994146200024d578063702e7e1f1462000272578063715018a6146200029457600080fd5b806311c9a94d146200013c578063229c67a51462000163578063238ac93314620001885780633659cfe614620001c75780634f1ef28614620001ec575b600080fd5b3480156200014957600080fd5b50620001616200015b36600462001717565b620003fc565b005b3480156200017057600080fd5b50620001616200018236600462001717565b6200048c565b3480156200019557600080fd5b5060fe54620001aa906001600160a01b031681565b6040516001600160a01b0390911681526020015b60405180910390f35b348015620001d457600080fd5b5062000161620001e636600462001769565b62000513565b62000161620001fd3660046200181c565b62000607565b3480156200021057600080fd5b506200021b620006e3565b604051908152602001620001be565b3480156200023757600080fd5b5061010154620001aa906001600160a01b031681565b3480156200025a57600080fd5b50620001aa6200026c366004620018d3565b62000799565b3480156200027f57600080fd5b5060ff54620001aa906001600160a01b031681565b348015620002a157600080fd5b506200016162000809565b348015620002b957600080fd5b506200016162000821565b348015620002d157600080fd5b5062000161620002e3366004620019be565b6200089c565b348015620002f657600080fd5b506097546001600160a01b0316620001aa565b3480156200031657600080fd5b5061010054620001aa906001600160a01b031681565b3480156200033957600080fd5b5060fb54620001aa906001600160a01b031681565b3480156200035b57600080fd5b5060fd54620001aa906001600160a01b031681565b3480156200037d57600080fd5b5060c9546001600160a01b0316620001aa565b3480156200039d57600080fd5b5060fc54620001aa906001600160a01b031681565b348015620003bf57600080fd5b5062000161620003d136600462001769565b62000ae1565b348015620003e457600080fd5b50620001aa620003f636600462001a78565b62000b55565b6200040662000c65565b60fe80546001600160a01b038581166001600160a01b0319928316811790935560ff805486831690841681179091556101008054928616929093168217909255604080519384526020840192909252908201527f35f180c3b8e1453b18b442cd6962e98c45d53fe080b4e2fa37065c95d5ae9b1d906060015b60405180910390a1505050565b6200049662000c65565b60fb80546001600160a01b038581166001600160a01b0319928316811790935560fc8054868316908416811790915560fd8054928616929093168217909255604080519384526020840192909252908201527fb71118ea1ce278550d48de23143322f740f1c3d9685bf44835f03349a2cadf8b906060016200047f565b6001600160a01b037f0000000000000000000000000000000000000000000000000000000000000000163003620005675760405162461bcd60e51b81526004016200055e9062001ace565b60405180910390fd5b7f00000000000000000000000000000000000000000000000000000000000000006001600160a01b0316620005b260008051602062004ff8833981519152546001600160a01b031690565b6001600160a01b031614620005db5760405162461bcd60e51b81526004016200055e9062001b1a565b620005e68162000cc1565b60408051600080825260208201909252620006049183919062000ccb565b50565b6001600160a01b037f0000000000000000000000000000000000000000000000000000000000000000163003620006525760405162461bcd60e51b81526004016200055e9062001ace565b7f00000000000000000000000000000000000000000000000000000000000000006001600160a01b03166200069d60008051602062004ff8833981519152546001600160a01b031690565b6001600160a01b031614620006c65760405162461bcd60e51b81526004016200055e9062001b1a565b620006d18262000cc1565b620006df8282600162000ccb565b5050565b6000306001600160a01b037f00000000000000000000000000000000000000000000000000000000000000001614620007855760405162461bcd60e51b815260206004820152603860248201527f555550535570677261646561626c653a206d757374206e6f742062652063616c60448201527f6c6564207468726f7567682064656c656761746563616c6c000000000000000060648201526084016200055e565b5060008051602062004ff883398151915290565b60fe546000906001600160a01b03163314620007e85760405162461bcd60e51b815260206004820152600d60248201526c243ab6b0b72330b1ba37b93c9d60991b60448201526064016200055e565b620007fb8a8a8a8a8a8a8a8a8a62000e48565b9a9950505050505050505050565b6200081362000c65565b6200081f600062000f3e565b565b60c95433906001600160a01b03168114620008915760405162461bcd60e51b815260206004820152602960248201527f4f776e61626c6532537465703a2063616c6c6572206973206e6f7420746865206044820152683732bb9037bbb732b960b91b60648201526084016200055e565b620006048162000f3e565b600054610100900460ff1615808015620008bd5750600054600160ff909116105b80620008d95750303b158015620008d9575060005460ff166001145b6200093e5760405162461bcd60e51b815260206004820152602e60248201527f496e697469616c697a61626c653a20636f6e747261637420697320616c72656160448201526d191e481a5b9a5d1a585b1a5e995960921b60648201526084016200055e565b6000805460ff19166001179055801562000962576000805461ff0019166101001790555b6200096c62000f59565b6200097662000f59565b620009818862000f3e565b6000896040516200099290620016c5565b6001600160a01b039091168152602001604051809103906000f080158015620009bf573d6000803e3d6000fd5b5060405163f2fde38b60e01b81526001600160a01b038b811660048301529192509082169063f2fde38b90602401600060405180830381600087803b15801562000a0857600080fd5b505af115801562000a1d573d6000803e3d6000fd5b505061010180546001600160a01b03199081166001600160a01b039586161790915560fe805482168c861617905560fb805482168b861617905560fc805482168a861617905560fd8054821689861617905560ff805482168886161790556101008054909116938616939093179092555050801562000ad6576000805461ff0019169055604051600181527f7f26b83ff96e1f2b6a682f133852f6798a09c465da95921460cefb38474024989060200160405180910390a15b505050505050505050565b62000aeb62000c65565b60c980546001600160a01b0383166001600160a01b0319909116811790915562000b1d6097546001600160a01b031690565b6001600160a01b03167f38d16b8cac22d99fc7c124b9cd0de2d3fa1faef420bfe791d8c362d765e2270060405160405180910390a350565b6000808260405160200162000b6b919062001bba565b6040516020818303038152906040528051906020012060001c905060006040518060200162000b9a90620016d3565b601f1982820381018352601f909101166040818152610101546001600160a01b0316602083015280820152600060608201819052919250829060800160408051601f198184030181529082905262000bf6929160200162001bcf565b60408051808303601f1901815282825280516020918201206001600160f81b0319828501523060601b6bffffffffffffffffffffffff19166021850152603584019690965260558084019690965281518084039096018652607590920190528351930192909220949350505050565b6097546001600160a01b031633146200081f5760405162461bcd60e51b815260206004820181905260248201527f4f776e61626c653a2063616c6c6572206973206e6f7420746865206f776e657260448201526064016200055e565b6200060462000c65565b7f4910fdfa16fed3260ed0e7147f7cc6da11a60208b5b9406d12a635614ffd91435460ff161562000d065762000d018362000fc6565b505050565b826001600160a01b03166352d1902d6040518163ffffffff1660e01b8152600401602060405180830381865afa92505050801562000d63575060408051601f3d908101601f1916820190925262000d609181019062001c02565b60015b62000dc85760405162461bcd60e51b815260206004820152602e60248201527f45524331393637557067726164653a206e657720696d706c656d656e7461746960448201526d6f6e206973206e6f74205555505360901b60648201526084016200055e565b60008051602062004ff8833981519152811462000e3a5760405162461bcd60e51b815260206004820152602960248201527f45524331393637557067726164653a20756e737570706f727465642070726f786044820152681a58589b195555525160ba1b60648201526084016200055e565b5062000d0183838362001065565b60008062000e598b8b8b8b62001096565b6101005460ff54604080516001600160a01b038c811660248301528b81166044830152858116606483015293841660848201529290911660a483015260c48083018990528151808403909101815260e490920190526020810180516001600160e01b031663256dbbc360e21b17905290915062000ed881868662001173565b925050866001600160a01b0316826001600160a01b03167faf9641d1543a43c5d59f31bb0b58d73e50d7ae8a67d97bfb26ae4776360e19ff8686858b8b60405162000f2895949392919062001c45565b60405180910390a3509998505050505050505050565b60c980546001600160a01b03191690556200060481620012fd565b600054610100900460ff166200081f5760405162461bcd60e51b815260206004820152602b60248201527f496e697469616c697a61626c653a20636f6e7472616374206973206e6f74206960448201526a6e697469616c697a696e6760a81b60648201526084016200055e565b6001600160a01b0381163b620010355760405162461bcd60e51b815260206004820152602d60248201527f455243313936373a206e657720696d706c656d656e746174696f6e206973206e60448201526c1bdd08184818dbdb9d1c9858dd609a1b60648201526084016200055e565b60008051602062004ff883398151915280546001600160a01b0319166001600160a01b0392909216919091179055565b62001070836200134f565b6000825111806200107e5750805b1562000d015762001090838362001391565b50505050565b600080620010a686868662001490565b60408051600180825281830190925291925060009190602080830190803683370190505090508181600081518110620010e357620010e362001c7f565b6001600160a01b03929092166020928302919091019091015260408051600180825281830190925260009181602001602082028036833701905050905060008160008151811062001138576200113862001c7f565b60200260200101906001600160a01b031690816001600160a01b031681525050620011678583836000620015ef565b98975050505050505050565b60008083836040516020016200118b92919062001c95565b6040516020818303038152906040528051906020012060001c9050600060405180602001620011ba90620016d3565b601f1982820381018352601f909101166040818152610101546001600160a01b0316602083015280820152600060608201819052919250829060800160408051601f198184030181529082905262001216929160200162001bcf565b6040516020818303038152906040529050828151602083016000f59350833b6200123f57600080fd5b6000846001600160a01b0316886040516200125b919062001cab565b6000604051808303816000865af19150503d80600081146200129a576040519150601f19603f3d011682016040523d82523d6000602084013e6200129f565b606091505b5050905080620012f25760405162461bcd60e51b815260206004820152601860248201527f48756d616e466163746f72793a20696e697469616c697a65000000000000000060448201526064016200055e565b505050509392505050565b609780546001600160a01b038381166001600160a01b0319831681179093556040519116919082907f8be0079c531659141344cd1fd0a4f28419497f9722a3daafe3b4186f6b6457e090600090a35050565b6200135a8162000fc6565b6040516001600160a01b038216907fbc7cd75a20ee27fd9adebab32041f755214dbc6bffa90cc0225b39da2e5c2d3b90600090a250565b60606001600160a01b0383163b620013fb5760405162461bcd60e51b815260206004820152602660248201527f416464726573733a2064656c65676174652063616c6c20746f206e6f6e2d636f6044820152651b9d1c9858dd60d21b60648201526084016200055e565b600080846001600160a01b03168460405162001418919062001cab565b600060405180830381855af49150503d806000811462001455576040519150601f19603f3d011682016040523d82523d6000602084013e6200145a565b606091505b5091509150620014858282604051806060016040528060278152602001620050186027913962001681565b925050505b92915050565b600080620014a060028562001cc9565b620014ad90600162001cec565b6040805160008082526020820190925260fc549293509091620014e9918891889186918691906001600160a01b03168280806044850162001d5b565b60408051601f198184030181529181526020820180516001600160e01b031663b63e800d60e01b17905260fb5460fd549151631688f0b960e01b81529293506000926001600160a01b0391821692631688f0b992620015529291169086908a9060040162001dcf565b6020604051808303816000875af115801562001572573d6000803e3d6000fd5b505050506040513d601f19601f8201168201806040525081019062001598919062001e05565b9050806001600160a01b03167f683e6f16bb62a6fde8790df67d36c14adeb970999feb16342c7ba9cbd242714f88888887604051620015db949392919062001e25565b60405180910390a2925050505b9392505050565b6000848484846040516200160390620016e1565b62001612949392919062001e89565b604051809103906000f0801580156200162f573d6000803e3d6000fd5b509050806001600160a01b03167ff2a7ca047296a7ab810f485e378492dd491918711bba264ce1e9e284768c1759868686604051620016719392919062001ed2565b60405180910390a2949350505050565b6060831562001692575081620015e8565b620015e88383815115620016a95781518083602001fd5b8060405162461bcd60e51b81526004016200055e919062001bba565b6104e48062001f0c83390190565b61090080620023f083390190565b6123088062002cf083390190565b6001600160a01b03811681146200060457600080fd5b80356200171281620016ef565b919050565b6000806000606084860312156200172d57600080fd5b83356200173a81620016ef565b925060208401356200174c81620016ef565b915060408401356200175e81620016ef565b809150509250925092565b6000602082840312156200177c57600080fd5b8135620015e881620016ef565b634e487b7160e01b600052604160045260246000fd5b600067ffffffffffffffff80841115620017bd57620017bd62001789565b604051601f8501601f19908116603f01168101908282118183101715620017e857620017e862001789565b816040528093508581528686860111156200180257600080fd5b858560208301376000602087830101525050509392505050565b600080604083850312156200183057600080fd5b82356200183d81620016ef565b9150602083013567ffffffffffffffff8111156200185a57600080fd5b8301601f810185136200186c57600080fd5b6200187d858235602084016200179f565b9150509250929050565b60008083601f8401126200189a57600080fd5b50813567ffffffffffffffff811115620018b357600080fd5b602083019150836020828501011115620018cc57600080fd5b9250929050565b600080600080600080600080600060e08a8c031215620018f257600080fd5b893567ffffffffffffffff808211156200190b57600080fd5b818c0191508c601f8301126200192057600080fd5b8135818111156200193057600080fd5b8d60208260051b85010111156200194657600080fd5b60208381019c50909a508c0135985060408c013597506200196a60608d0162001705565b96506200197a60808d0162001705565b955060a08c0135945060c08c01359150808211156200199857600080fd5b50620019a78c828d0162001887565b915080935050809150509295985092959850929598565b600080600080600080600080610100898b031215620019dc57600080fd5b8835620019e981620016ef565b97506020890135620019fb81620016ef565b9650604089013562001a0d81620016ef565b9550606089013562001a1f81620016ef565b9450608089013562001a3181620016ef565b935060a089013562001a4381620016ef565b925060c089013562001a5581620016ef565b915060e089013562001a6781620016ef565b809150509295985092959890939650565b60006020828403121562001a8b57600080fd5b813567ffffffffffffffff81111562001aa357600080fd5b8201601f8101841362001ab557600080fd5b62001ac6848235602084016200179f565b949350505050565b6020808252602c908201527f46756e6374696f6e206d7573742062652063616c6c6564207468726f7567682060408201526b19195b1959d85d1958d85b1b60a21b606082015260800190565b6020808252602c908201527f46756e6374696f6e206d7573742062652063616c6c6564207468726f7567682060408201526b6163746976652070726f787960a01b606082015260800190565b60005b8381101562001b8357818101518382015260200162001b69565b50506000910152565b6000815180845262001ba681602086016020860162001b66565b601f01601f19169290920160200192915050565b602081526000620015e8602083018462001b8c565b6000835162001be381846020880162001b66565b83519083019062001bf981836020880162001b66565b01949350505050565b60006020828403121562001c1557600080fd5b5051919050565b81835281816020850137506000828201602090810191909152601f909101601f19169091010190565b60808152600062001c5b60808301878962001c1c565b6001600160a01b039586166020840152939094166040820152606001529392505050565b634e487b7160e01b600052603260045260246000fd5b60208152600062001ac660208301848662001c1c565b6000825162001cbf81846020870162001b66565b9190910192915050565b60008262001ce757634e487b7160e01b600052601260045260246000fd5b500490565b808201808211156200148a57634e487b7160e01b600052601160045260246000fd5b8183526000602080850194508260005b8581101562001d5057813562001d3481620016ef565b6001600160a01b03168752958201959082019060010162001d1e565b509495945050505050565b600061010080835262001d728184018c8e62001d0e565b602084018b90526001600160a01b038a81166040860152848203606086015290915062001da0828a62001b8c565b978116608085015295861660a0840152505060ff9290921660c083015290911660e09091015295945050505050565b6001600160a01b038416815260606020820181905260009062001df59083018562001b8c565b9050826040830152949350505050565b60006020828403121562001e1857600080fd5b8151620015e881620016ef565b60608152600062001e3b60608301868862001d0e565b6020830194909452506040015292915050565b600081518084526020808501945080840160005b8381101562001d505781516001600160a01b03168752958201959082019060010162001e62565b84815260806020820152600062001ea4608083018662001e4e565b828103604084015262001eb8818662001e4e565b91505060018060a01b038316606083015295945050505050565b83815260606020820152600062001eed606083018562001e4e565b828103604084015262001f01818562001e4e565b969550505050505056fe608060405234801561001057600080fd5b506040516104e43803806104e483398101604081905261002f91610151565b61003833610047565b61004181610097565b50610181565b600080546001600160a01b038381166001600160a01b0319831681178455604051919092169283917f8be0079c531659141344cd1fd0a4f28419497f9722a3daafe3b4186f6b6457e09190a35050565b6100aa8161014260201b6101a01760201c565b6101205760405162461bcd60e51b815260206004820152603360248201527f5570677261646561626c65426561636f6e3a20696d706c656d656e746174696f60448201527f6e206973206e6f74206120636f6e747261637400000000000000000000000000606482015260840160405180910390fd5b600180546001600160a01b0319166001600160a01b0392909216919091179055565b6001600160a01b03163b151590565b60006020828403121561016357600080fd5b81516001600160a01b038116811461017a57600080fd5b9392505050565b610354806101906000396000f3fe608060405234801561001057600080fd5b50600436106100575760003560e01c80633659cfe61461005c5780635c60da1b14610071578063715018a61461009a5780638da5cb5b146100a2578063f2fde38b146100b3575b600080fd5b61006f61006a3660046102ee565b6100c6565b005b6001546001600160a01b03165b6040516001600160a01b03909116815260200160405180910390f35b61006f61010e565b6000546001600160a01b031661007e565b61006f6100c13660046102ee565b610122565b6100ce6101af565b6100d781610209565b6040516001600160a01b038216907fbc7cd75a20ee27fd9adebab32041f755214dbc6bffa90cc0225b39da2e5c2d3b90600090a250565b6101166101af565b610120600061029e565b565b61012a6101af565b6001600160a01b0381166101945760405162461bcd60e51b815260206004820152602660248201527f4f776e61626c653a206e6577206f776e657220697320746865207a65726f206160448201526564647265737360d01b60648201526084015b60405180910390fd5b61019d8161029e565b50565b6001600160a01b03163b151590565b6000546001600160a01b031633146101205760405162461bcd60e51b815260206004820181905260248201527f4f776e61626c653a2063616c6c6572206973206e6f7420746865206f776e6572604482015260640161018b565b6001600160a01b0381163b61027c5760405162461bcd60e51b815260206004820152603360248201527f5570677261646561626c65426561636f6e3a20696d706c656d656e746174696f6044820152721b881a5cc81b9bdd08184818dbdb9d1c9858dd606a1b606482015260840161018b565b600180546001600160a01b0319166001600160a01b0392909216919091179055565b600080546001600160a01b038381166001600160a01b0319831681178455604051919092169283917f8be0079c531659141344cd1fd0a4f28419497f9722a3daafe3b4186f6b6457e09190a35050565b60006020828403121561030057600080fd5b81356001600160a01b038116811461031757600080fd5b939250505056fea2646970667358221220047c2c2ed1ed9f538fc7ed818f69226b84ed5a7549526770e4f90f73fe471e6f64736f6c6343000810003360806040526040516109003803806109008339810160408190526100229161045b565b61002e82826000610035565b5050610585565b61003e83610100565b6040516001600160a01b038416907f1cf3b03a6cf19fa2baba4df148e9dcabedea7f8a5c07840e207e5c089be95d3e90600090a260008251118061007f5750805b156100fb576100f9836001600160a01b0316635c60da1b6040518163ffffffff1660e01b8152600401602060405180830381865afa1580156100c5573d6000803e3d6000fd5b505050506040513d601f19601f820116820180604052508101906100e9919061051b565b836102a360201b6100291760201c565b505b505050565b610113816102cf60201b6100551760201c565b6101725760405162461bcd60e51b815260206004820152602560248201527f455243313936373a206e657720626561636f6e206973206e6f74206120636f6e6044820152641d1c9858dd60da1b60648201526084015b60405180910390fd5b6101e6816001600160a01b0316635c60da1b6040518163ffffffff1660e01b8152600401602060405180830381865afa1580156101b3573d6000803e3d6000fd5b505050506040513d601f19601f820116820180604052508101906101d7919061051b565b6102cf60201b6100551760201c565b61024b5760405162461bcd60e51b815260206004820152603060248201527f455243313936373a20626561636f6e20696d706c656d656e746174696f6e206960448201526f1cc81b9bdd08184818dbdb9d1c9858dd60821b6064820152608401610169565b806102827fa3f0ad74e5423aebfd80d3ef4346578335a9a72aeaee59ff6cb3582b35133d5060001b6102de60201b6100641760201c565b80546001600160a01b0319166001600160a01b039290921691909117905550565b60606102c883836040518060600160405280602781526020016108d9602791396102e1565b9392505050565b6001600160a01b03163b151590565b90565b6060600080856001600160a01b0316856040516102fe9190610536565b600060405180830381855af49150503d8060008114610339576040519150601f19603f3d011682016040523d82523d6000602084013e61033e565b606091505b5090925090506103508683838761035a565b9695505050505050565b606083156103c95782516000036103c2576001600160a01b0385163b6103c25760405162461bcd60e51b815260206004820152601d60248201527f416464726573733a2063616c6c20746f206e6f6e2d636f6e74726163740000006044820152606401610169565b50816103d3565b6103d383836103db565b949350505050565b8151156103eb5781518083602001fd5b8060405162461bcd60e51b81526004016101699190610552565b80516001600160a01b038116811461041c57600080fd5b919050565b634e487b7160e01b600052604160045260246000fd5b60005b8381101561045257818101518382015260200161043a565b50506000910152565b6000806040838503121561046e57600080fd5b61047783610405565b60208401519092506001600160401b038082111561049457600080fd5b818501915085601f8301126104a857600080fd5b8151818111156104ba576104ba610421565b604051601f8201601f19908116603f011681019083821181831017156104e2576104e2610421565b816040528281528860208487010111156104fb57600080fd5b61050c836020830160208801610437565b80955050505050509250929050565b60006020828403121561052d57600080fd5b6102c882610405565b60008251610548818460208701610437565b9190910192915050565b6020815260008251806020840152610571816040850160208701610437565b601f01601f19169190910160400192915050565b610345806105946000396000f3fe60806040523661001357610011610017565b005b6100115b610027610022610067565b610100565b565b606061004e83836040518060600160405280602781526020016102e960279139610124565b9392505050565b6001600160a01b03163b151590565b90565b600061009a7fa3f0ad74e5423aebfd80d3ef4346578335a9a72aeaee59ff6cb3582b35133d50546001600160a01b031690565b6001600160a01b0316635c60da1b6040518163ffffffff1660e01b8152600401602060405180830381865afa1580156100d7573d6000803e3d6000fd5b505050506040513d601f19601f820116820180604052508101906100fb919061024c565b905090565b3660008037600080366000845af43d6000803e80801561011f573d6000f35b3d6000fd5b6060600080856001600160a01b0316856040516101419190610299565b600060405180830381855af49150503d806000811461017c576040519150601f19603f3d011682016040523d82523d6000602084013e610181565b606091505b50915091506101928683838761019c565b9695505050505050565b60608315610210578251600003610209576001600160a01b0385163b6102095760405162461bcd60e51b815260206004820152601d60248201527f416464726573733a2063616c6c20746f206e6f6e2d636f6e747261637400000060448201526064015b60405180910390fd5b508161021a565b61021a8383610222565b949350505050565b8151156102325781518083602001fd5b8060405162461bcd60e51b815260040161020091906102b5565b60006020828403121561025e57600080fd5b81516001600160a01b038116811461004e57600080fd5b60005b83811015610290578181015183820152602001610278565b50506000910152565b600082516102ab818460208701610275565b9190910192915050565b60208152600082518060208401526102d4816040850160208701610275565b601f01601f1916919091016040019291505056fe416464726573733a206c6f772d6c6576656c2064656c65676174652063616c6c206661696c6564a2646970667358221220ddf0412455abac09e1d97acc6d95dab5b02d0b873f0e464b6d0c31c60d437d0f64736f6c63430008100033416464726573733a206c6f772d6c6576656c2064656c65676174652063616c6c206661696c656460806040523480156200001157600080fd5b506040516200230838038062002308833981016040819052620000349162000408565b6200004f60008051602062002288833981519152806200022d565b62000079600080516020620022a8833981519152600080516020620022888339815191526200022d565b620000a3600080516020620022c8833981519152600080516020620022888339815191526200022d565b620000cd600080516020620022e8833981519152600080516020620022888339815191526200022d565b620000e8600080516020620022888339815191523062000278565b6001600160a01b03811615620001135762000113600080516020620022888339815191528262000278565b60005b835181101562000199576200015d600080516020620022a88339815191528583815181106200014957620001496200048f565b60200260200101516200027860201b60201c565b62000186600080516020620022e88339815191528583815181106200014957620001496200048f565b6200019181620004a5565b905062000116565b5060005b8251811015620001e357620001d0600080516020620022c88339815191528483815181106200014957620001496200048f565b620001db81620004a5565b90506200019d565b5060028490556040805160008152602081018690527f11c24f4ead16507c69ac467fbd5e4eed5fb5c699626d2cc6d66421df253886d5910160405180910390a150505050620004cd565b600082815260208190526040808220600101805490849055905190918391839186917fbd79b86ffe0ab8e8776151514217cd7cacd52c909f66475c3af44e129f0b00ff9190a4505050565b62000284828262000288565b5050565b6000828152602081815260408083206001600160a01b038516845290915290205460ff1662000284576000828152602081815260408083206001600160a01b03851684529091529020805460ff19166001179055620002e43390565b6001600160a01b0316816001600160a01b0316837f2f8788117e7eff1d82e926ec794901d17c78024a50270940304540a733656f0d60405160405180910390a45050565b634e487b7160e01b600052604160045260246000fd5b80516001600160a01b03811681146200035657600080fd5b919050565b600082601f8301126200036d57600080fd5b815160206001600160401b03808311156200038c576200038c62000328565b8260051b604051601f19603f83011681018181108482111715620003b457620003b462000328565b604052938452858101830193838101925087851115620003d357600080fd5b83870191505b84821015620003fd57620003ed826200033e565b83529183019190830190620003d9565b979650505050505050565b600080600080608085870312156200041f57600080fd5b845160208601519094506001600160401b03808211156200043f57600080fd5b6200044d888389016200035b565b945060408701519150808211156200046457600080fd5b5062000473878288016200035b565b92505062000484606086016200033e565b905092959194509250565b634e487b7160e01b600052603260045260246000fd5b600060018201620004c657634e487b7160e01b600052601160045260246000fd5b5060010190565b611dab80620004dd6000396000f3fe6080604052600436106101bb5760003560e01c80638065657f116100ec578063bc197c811161008a578063d547741f11610064578063d547741f14610582578063e38335e5146105a2578063f23a6e61146105b5578063f27a0c92146105e157600080fd5b8063bc197c8114610509578063c4d252f514610535578063d45c44351461055557600080fd5b806391d14854116100c657806391d1485414610480578063a217fddf146104a0578063b08e51c0146104b5578063b1c5f427146104e957600080fd5b80638065657f1461040c5780638f2a0bb01461042c5780638f61f4f51461044c57600080fd5b8063248a9ca31161015957806331d507501161013357806331d507501461038c57806336568abe146103ac578063584b153e146103cc57806364d62353146103ec57600080fd5b8063248a9ca31461030b5780632ab0f5291461033b5780632f2ff15d1461036c57600080fd5b80630d3cf6fc116101955780630d3cf6fc14610260578063134008d31461029457806313bc9f20146102a7578063150b7a02146102c757600080fd5b806301d5062a146101c757806301ffc9a7146101e957806307bd02651461021e57600080fd5b366101c257005b600080fd5b3480156101d357600080fd5b506101e76101e23660046113c0565b6105f6565b005b3480156101f557600080fd5b50610209610204366004611434565b61068b565b60405190151581526020015b60405180910390f35b34801561022a57600080fd5b506102527fd8aa0f3194971a2a116679f7c2090f6939c8d4e01a2a8d7e41d55e5351469e6381565b604051908152602001610215565b34801561026c57600080fd5b506102527f5f58e3a2316349923ce3780f8d587db2d72378aed66a8261c916544fa6846ca581565b6101e76102a236600461145e565b6106b6565b3480156102b357600080fd5b506102096102c23660046114c9565b61076b565b3480156102d357600080fd5b506102f26102e2366004611597565b630a85bd0160e11b949350505050565b6040516001600160e01b03199091168152602001610215565b34801561031757600080fd5b506102526103263660046114c9565b60009081526020819052604090206001015490565b34801561034757600080fd5b506102096103563660046114c9565b6000908152600160208190526040909120541490565b34801561037857600080fd5b506101e76103873660046115fe565b610791565b34801561039857600080fd5b506102096103a73660046114c9565b6107bb565b3480156103b857600080fd5b506101e76103c73660046115fe565b6107d4565b3480156103d857600080fd5b506102096103e73660046114c9565b610857565b3480156103f857600080fd5b506101e76104073660046114c9565b61086d565b34801561041857600080fd5b5061025261042736600461145e565b610911565b34801561043857600080fd5b506101e761044736600461166e565b610950565b34801561045857600080fd5b506102527fb09aa5aeb3702cfd50b6b62bc4532604938f21248a27a1d5ca736082b6819cc181565b34801561048c57600080fd5b5061020961049b3660046115fe565b610aa2565b3480156104ac57600080fd5b50610252600081565b3480156104c157600080fd5b506102527ffd643c72710c63c0180259aba6b2d05451e3591a24e58b62239378085726f78381565b3480156104f557600080fd5b5061025261050436600461171f565b610acb565b34801561051557600080fd5b506102f2610524366004611846565b63bc197c8160e01b95945050505050565b34801561054157600080fd5b506101e76105503660046114c9565b610b10565b34801561056157600080fd5b506102526105703660046114c9565b60009081526001602052604090205490565b34801561058e57600080fd5b506101e761059d3660046115fe565b610be5565b6101e76105b036600461171f565b610c0a565b3480156105c157600080fd5b506102f26105d03660046118ef565b63f23a6e6160e01b95945050505050565b3480156105ed57600080fd5b50600254610252565b7fb09aa5aeb3702cfd50b6b62bc4532604938f21248a27a1d5ca736082b6819cc161062081610d94565b6000610630898989898989610911565b905061063c8184610da1565b6000817f4cf4410cc57040e44862ef0f45f3dd5a5e02db8eb8add648d4b0e236f1d07dca8b8b8b8b8b8a6040516106789695949392919061197c565b60405180910390a3505050505050505050565b60006001600160e01b03198216630271189760e51b14806106b057506106b082610e90565b92915050565b7fd8aa0f3194971a2a116679f7c2090f6939c8d4e01a2a8d7e41d55e5351469e636106e2816000610aa2565b6106f0576106f08133610ec5565b6000610700888888888888610911565b905061070c8185610f1e565b61071888888888610fba565b6000817fc2617efa69bab66782fa219543714338489c4e9e178271560a91b82c3f612b588a8a8a8a60405161075094939291906119b9565b60405180910390a36107618161108d565b5050505050505050565b60008181526001602052604081205460018111801561078a5750428111155b9392505050565b6000828152602081905260409020600101546107ac81610d94565b6107b683836110c6565b505050565b60008181526001602052604081205481905b1192915050565b6001600160a01b03811633146108495760405162461bcd60e51b815260206004820152602f60248201527f416363657373436f6e74726f6c3a2063616e206f6e6c792072656e6f756e636560448201526e103937b632b9903337b91039b2b63360891b60648201526084015b60405180910390fd5b610853828261114a565b5050565b60008181526001602081905260408220546107cd565b3330146108d05760405162461bcd60e51b815260206004820152602b60248201527f54696d656c6f636b436f6e74726f6c6c65723a2063616c6c6572206d7573742060448201526a62652074696d656c6f636b60a81b6064820152608401610840565b60025460408051918252602082018390527f11c24f4ead16507c69ac467fbd5e4eed5fb5c699626d2cc6d66421df253886d5910160405180910390a1600255565b600086868686868660405160200161092e9695949392919061197c565b6040516020818303038152906040528051906020012090509695505050505050565b7fb09aa5aeb3702cfd50b6b62bc4532604938f21248a27a1d5ca736082b6819cc161097a81610d94565b8887146109995760405162461bcd60e51b8152600401610840906119eb565b8885146109b85760405162461bcd60e51b8152600401610840906119eb565b60006109ca8b8b8b8b8b8b8b8b610acb565b90506109d68184610da1565b60005b8a811015610a945780827f4cf4410cc57040e44862ef0f45f3dd5a5e02db8eb8add648d4b0e236f1d07dca8e8e85818110610a1657610a16611a2e565b9050602002016020810190610a2b9190611a44565b8d8d86818110610a3d57610a3d611a2e565b905060200201358c8c87818110610a5657610a56611a2e565b9050602002810190610a689190611a5f565b8c8b604051610a7c9695949392919061197c565b60405180910390a3610a8d81611abb565b90506109d9565b505050505050505050505050565b6000918252602082815260408084206001600160a01b0393909316845291905290205460ff1690565b60008888888888888888604051602001610aec989796959493929190611b65565b60405160208183030381529060405280519060200120905098975050505050505050565b7ffd643c72710c63c0180259aba6b2d05451e3591a24e58b62239378085726f783610b3a81610d94565b610b4382610857565b610ba95760405162461bcd60e51b815260206004820152603160248201527f54696d656c6f636b436f6e74726f6c6c65723a206f7065726174696f6e2063616044820152701b9b9bdd0818994818d85b98d95b1b1959607a1b6064820152608401610840565b6000828152600160205260408082208290555183917fbaa1eb22f2a492ba1a5fea61b8df4d27c6c8b5f3971e63bb58fa14ff72eedb7091a25050565b600082815260208190526040902060010154610c0081610d94565b6107b6838361114a565b7fd8aa0f3194971a2a116679f7c2090f6939c8d4e01a2a8d7e41d55e5351469e63610c36816000610aa2565b610c4457610c448133610ec5565b878614610c635760405162461bcd60e51b8152600401610840906119eb565b878414610c825760405162461bcd60e51b8152600401610840906119eb565b6000610c948a8a8a8a8a8a8a8a610acb565b9050610ca08185610f1e565b60005b89811015610d7e5760008b8b83818110610cbf57610cbf611a2e565b9050602002016020810190610cd49190611a44565b905060008a8a84818110610cea57610cea611a2e565b9050602002013590503660008a8a86818110610d0857610d08611a2e565b9050602002810190610d1a9190611a5f565b91509150610d2a84848484610fba565b84867fc2617efa69bab66782fa219543714338489c4e9e178271560a91b82c3f612b5886868686604051610d6194939291906119b9565b60405180910390a35050505080610d7790611abb565b9050610ca3565b50610d888161108d565b50505050505050505050565b610d9e8133610ec5565b50565b610daa826107bb565b15610e0f5760405162461bcd60e51b815260206004820152602f60248201527f54696d656c6f636b436f6e74726f6c6c65723a206f7065726174696f6e20616c60448201526e1c9958591e481cd8da19591d5b1959608a1b6064820152608401610840565b600254811015610e705760405162461bcd60e51b815260206004820152602660248201527f54696d656c6f636b436f6e74726f6c6c65723a20696e73756666696369656e746044820152652064656c617960d01b6064820152608401610840565b610e7a8142611c06565b6000928352600160205260409092209190915550565b60006001600160e01b03198216637965db0b60e01b14806106b057506301ffc9a760e01b6001600160e01b03198316146106b0565b610ecf8282610aa2565b61085357610edc816111af565b610ee78360206111c1565b604051602001610ef8929190611c3d565b60408051601f198184030181529082905262461bcd60e51b825261084091600401611cb2565b610f278261076b565b610f435760405162461bcd60e51b815260040161084090611ce5565b801580610f5f5750600081815260016020819052604090912054145b6108535760405162461bcd60e51b815260206004820152602660248201527f54696d656c6f636b436f6e74726f6c6c65723a206d697373696e6720646570656044820152656e64656e637960d01b6064820152608401610840565b6000846001600160a01b0316848484604051610fd7929190611d2f565b60006040518083038185875af1925050503d8060008114611014576040519150601f19603f3d011682016040523d82523d6000602084013e611019565b606091505b50509050806110865760405162461bcd60e51b815260206004820152603360248201527f54696d656c6f636b436f6e74726f6c6c65723a20756e6465726c79696e6720746044820152721c985b9cd858dd1a5bdb881c995d995c9d1959606a1b6064820152608401610840565b5050505050565b6110968161076b565b6110b25760405162461bcd60e51b815260040161084090611ce5565b600090815260016020819052604090912055565b6110d08282610aa2565b610853576000828152602081815260408083206001600160a01b03851684529091529020805460ff191660011790556111063390565b6001600160a01b0316816001600160a01b0316837f2f8788117e7eff1d82e926ec794901d17c78024a50270940304540a733656f0d60405160405180910390a45050565b6111548282610aa2565b15610853576000828152602081815260408083206001600160a01b0385168085529252808320805460ff1916905551339285917ff6391f5c32d9c69d2a47ea670b442974b53935d1edc7fd64eb21e047a839171b9190a45050565b60606106b06001600160a01b03831660145b606060006111d0836002611d3f565b6111db906002611c06565b6001600160401b038111156111f2576111f26114e2565b6040519080825280601f01601f19166020018201604052801561121c576020820181803683370190505b509050600360fc1b8160008151811061123757611237611a2e565b60200101906001600160f81b031916908160001a905350600f60fb1b8160018151811061126657611266611a2e565b60200101906001600160f81b031916908160001a905350600061128a846002611d3f565b611295906001611c06565b90505b600181111561130d576f181899199a1a9b1b9c1cb0b131b232b360811b85600f16601081106112c9576112c9611a2e565b1a60f81b8282815181106112df576112df611a2e565b60200101906001600160f81b031916908160001a90535060049490941c9361130681611d5e565b9050611298565b50831561078a5760405162461bcd60e51b815260206004820181905260248201527f537472696e67733a20686578206c656e67746820696e73756666696369656e746044820152606401610840565b80356001600160a01b038116811461137357600080fd5b919050565b60008083601f84011261138a57600080fd5b5081356001600160401b038111156113a157600080fd5b6020830191508360208285010111156113b957600080fd5b9250929050565b600080600080600080600060c0888a0312156113db57600080fd5b6113e48861135c565b96506020880135955060408801356001600160401b0381111561140657600080fd5b6114128a828b01611378565b989b979a50986060810135976080820135975060a09091013595509350505050565b60006020828403121561144657600080fd5b81356001600160e01b03198116811461078a57600080fd5b60008060008060008060a0878903121561147757600080fd5b6114808761135c565b95506020870135945060408701356001600160401b038111156114a257600080fd5b6114ae89828a01611378565b979a9699509760608101359660809091013595509350505050565b6000602082840312156114db57600080fd5b5035919050565b634e487b7160e01b600052604160045260246000fd5b604051601f8201601f191681016001600160401b0381118282101715611520576115206114e2565b604052919050565b600082601f83011261153957600080fd5b81356001600160401b03811115611552576115526114e2565b611565601f8201601f19166020016114f8565b81815284602083860101111561157a57600080fd5b816020850160208301376000918101602001919091529392505050565b600080600080608085870312156115ad57600080fd5b6115b68561135c565b93506115c46020860161135c565b92506040850135915060608501356001600160401b038111156115e657600080fd5b6115f287828801611528565b91505092959194509250565b6000806040838503121561161157600080fd5b823591506116216020840161135c565b90509250929050565b60008083601f84011261163c57600080fd5b5081356001600160401b0381111561165357600080fd5b6020830191508360208260051b85010111156113b957600080fd5b600080600080600080600080600060c08a8c03121561168c57600080fd5b89356001600160401b03808211156116a357600080fd5b6116af8d838e0161162a565b909b50995060208c01359150808211156116c857600080fd5b6116d48d838e0161162a565b909950975060408c01359150808211156116ed57600080fd5b506116fa8c828d0161162a565b9a9d999c50979a969997986060880135976080810135975060a0013595509350505050565b60008060008060008060008060a0898b03121561173b57600080fd5b88356001600160401b038082111561175257600080fd5b61175e8c838d0161162a565b909a50985060208b013591508082111561177757600080fd5b6117838c838d0161162a565b909850965060408b013591508082111561179c57600080fd5b506117a98b828c0161162a565b999c989b509699959896976060870135966080013595509350505050565b600082601f8301126117d857600080fd5b813560206001600160401b038211156117f3576117f36114e2565b8160051b6118028282016114f8565b928352848101820192828101908785111561181c57600080fd5b83870192505b8483101561183b57823582529183019190830190611822565b979650505050505050565b600080600080600060a0868803121561185e57600080fd5b6118678661135c565b94506118756020870161135c565b935060408601356001600160401b038082111561189157600080fd5b61189d89838a016117c7565b945060608801359150808211156118b357600080fd5b6118bf89838a016117c7565b935060808801359150808211156118d557600080fd5b506118e288828901611528565b9150509295509295909350565b600080600080600060a0868803121561190757600080fd5b6119108661135c565b945061191e6020870161135c565b9350604086013592506060860135915060808601356001600160401b0381111561194757600080fd5b6118e288828901611528565b81835281816020850137506000828201602090810191909152601f909101601f19169091010190565b60018060a01b038716815285602082015260a0604082015260006119a460a083018688611953565b60608301949094525060800152949350505050565b60018060a01b03851681528360208201526060604082015260006119e1606083018486611953565b9695505050505050565b60208082526023908201527f54696d656c6f636b436f6e74726f6c6c65723a206c656e677468206d69736d616040820152620e8c6d60eb1b606082015260800190565b634e487b7160e01b600052603260045260246000fd5b600060208284031215611a5657600080fd5b61078a8261135c565b6000808335601e19843603018112611a7657600080fd5b8301803591506001600160401b03821115611a9057600080fd5b6020019150368190038213156113b957600080fd5b634e487b7160e01b600052601160045260246000fd5b600060018201611acd57611acd611aa5565b5060010190565b81835260006020808501808196508560051b810191508460005b87811015611b585782840389528135601e19883603018112611b0f57600080fd5b870185810190356001600160401b03811115611b2a57600080fd5b803603821315611b3957600080fd5b611b44868284611953565b9a87019a9550505090840190600101611aee565b5091979650505050505050565b60a0808252810188905260008960c08301825b8b811015611ba6576001600160a01b03611b918461135c565b16825260209283019290910190600101611b78565b5083810360208501528881526001600160fb1b03891115611bc657600080fd5b8860051b9150818a60208301370182810360209081016040850152611bee9082018789611ad4565b60608401959095525050608001529695505050505050565b808201808211156106b0576106b0611aa5565b60005b83811015611c34578181015183820152602001611c1c565b50506000910152565b7f416363657373436f6e74726f6c3a206163636f756e7420000000000000000000815260008351611c75816017850160208801611c19565b7001034b99036b4b9b9b4b733903937b6329607d1b6017918401918201528351611ca6816028840160208801611c19565b01602801949350505050565b6020815260008251806020840152611cd1816040850160208701611c19565b601f01601f19169190910160400192915050565b6020808252602a908201527f54696d656c6f636b436f6e74726f6c6c65723a206f7065726174696f6e206973604082015269206e6f7420726561647960b01b606082015260800190565b8183823760009101908152919050565b6000816000190483118215151615611d5957611d59611aa5565b500290565b600081611d6d57611d6d611aa5565b50600019019056fea264697066735822122026939d5af13d0476e31f058f508a8307f8b3a2d18c26644c03fb448458ad816964736f6c634300081000335f58e3a2316349923ce3780f8d587db2d72378aed66a8261c916544fa6846ca5b09aa5aeb3702cfd50b6b62bc4532604938f21248a27a1d5ca736082b6819cc1d8aa0f3194971a2a116679f7c2090f6939c8d4e01a2a8d7e41d55e5351469e63fd643c72710c63c0180259aba6b2d05451e3591a24e58b62239378085726f783360894a13ba1a3210667c828492db98dca3e2076cc3735a920a3ca505d382bbc416464726573733a206c6f772d6c6576656c2064656c65676174652063616c6c206661696c6564a2646970667358221220f92cdd46d9d8cad08501942f98ccf22477f6c9d6f7c211faef07351eef0a3cce64736f6c63430008100033",
    "linkReferences": {}
  },
  "methodIdentifiers": {
    "acceptOwnership()": "79ba5097",
    "beacon()": "59659e90",
    "deployHuman(address[],uint256,uint256,address,address,uint256,string)": "650d0994",
    "entryPoint()": "b0d691fe",
    "fallbackHandler()": "eed2f252",
    "getHuman(string)": "fe599572",
    "gnosisFactory()": "b1486fd5",
    "initialize(address,address,address,address,address,address,address,address)": "8a29e2de",
    "owner()": "8da5cb5b",
    "pendingOwner()": "e30c3978",
    "policies()": "702e7e1f",
    "proxiableUUID()": "52d1902d",
    "renounceOwnership()": "715018a6",
    "signer()": "238ac933",
    "singleton()": "b62654fb",
    "transferOwnership(address)": "f2fde38b",
    "updateConfig(address,address,address)": "11c9a94d",
    "updateSafe(address,address,address)": "229c67a5",
    "upgradeTo(address)": "3659cfe6",
    "upgradeToAndCall(address,bytes)": "4f1ef286"
  },
  "id": 103
}