{
  "abi": [
    {
      "inputs": [],
      "stateMutability": "nonpayable",
      "type": "constructor"
    },
    {
      "anonymous": false,
      "inputs": [
        {
          "indexed": false,
          "internalType": "address",
          "name": "previousAdmin",
          "type": "address"
        },
        {
          "indexed": false,
          "internalType": "address",
          "name": "newAdmin",
          "type": "address"
        }
      ],
      "name": "AdminChanged",
      "type": "event"
    },
    {
      "anonymous": false,
      "inputs": [
        {
          "indexed": true,
          "internalType": "address",
          "name": "beacon",
          "type": "address"
        }
      ],
      "name": "BeaconUpgraded",
      "type": "event"
    },
    {
      "anonymous": false,
      "inputs": [
        {
          "indexed": false,
          "internalType": "uint8",
          "name": "version",
          "type": "uint8"
        }
      ],
      "name": "Initialized",
      "type": "event"
    },
    {
      "anonymous": false,
      "inputs": [
        {
          "indexed": true,
          "internalType": "address",
          "name": "previousOwner",
          "type": "address"
        },
        {
          "indexed": true,
          "internalType": "address",
          "name": "newOwner",
          "type": "address"
        }
      ],
      "name": "OwnershipTransferStarted",
      "type": "event"
    },
    {
      "anonymous": false,
      "inputs": [
        {
          "indexed": true,
          "internalType": "address",
          "name": "previousOwner",
          "type": "address"
        },
        {
          "indexed": true,
          "internalType": "address",
          "name": "newOwner",
          "type": "address"
        }
      ],
      "name": "OwnershipTransferred",
      "type": "event"
    },
    {
      "anonymous": false,
      "inputs": [
        {
          "indexed": true,
          "internalType": "address",
          "name": "implementation",
          "type": "address"
        }
      ],
      "name": "Upgraded",
      "type": "event"
    },
    {
      "inputs": [],
      "name": "acceptOwnership",
      "outputs": [],
      "stateMutability": "nonpayable",
      "type": "function"
    },
    {
      "inputs": [
        {
          "internalType": "address",
          "name": "contractAddress",
          "type": "address"
        }
      ],
      "name": "checkContractAddress",
      "outputs": [
        {
          "internalType": "bool",
          "name": "",
          "type": "bool"
        }
      ],
      "stateMutability": "view",
      "type": "function"
    },
    {
      "inputs": [
        {
          "internalType": "address",
          "name": "contractAddress",
          "type": "address"
        },
        {
          "internalType": "bytes",
          "name": "data",
          "type": "bytes"
        }
      ],
      "name": "checkContractData",
      "outputs": [
        {
          "internalType": "bool",
          "name": "",
          "type": "bool"
        }
      ],
      "stateMutability": "view",
      "type": "function"
    },
    {
      "inputs": [
        {
          "internalType": "address",
          "name": "destination",
          "type": "address"
        },
        {
          "internalType": "bytes",
          "name": "data",
          "type": "bytes"
        },
        {
          "internalType": "uint256",
          "name": "value",
          "type": "uint256"
        }
      ],
      "name": "executeCheckOwner",
      "outputs": [
        {
          "internalType": "bool",
          "name": "",
          "type": "bool"
        }
      ],
      "stateMutability": "view",
      "type": "function"
    },
    {
      "inputs": [
        {
          "internalType": "address",
          "name": "contractAddress",
          "type": "address"
        },
        {
          "internalType": "bytes4",
          "name": "selector",
          "type": "bytes4"
        }
      ],
      "name": "getMask",
      "outputs": [
        {
          "internalType": "bytes",
          "name": "",
          "type": "bytes"
        }
      ],
      "stateMutability": "view",
      "type": "function"
    },
    {
      "inputs": [
        {
          "internalType": "address",
          "name": "owner_",
          "type": "address"
        }
      ],
      "name": "initialize",
      "outputs": [],
      "stateMutability": "nonpayable",
      "type": "function"
    },
    {
      "inputs": [],
      "name": "owner",
      "outputs": [
        {
          "internalType": "address",
          "name": "",
          "type": "address"
        }
      ],
      "stateMutability": "view",
      "type": "function"
    },
    {
      "inputs": [],
      "name": "pendingOwner",
      "outputs": [
        {
          "internalType": "address",
          "name": "",
          "type": "address"
        }
      ],
      "stateMutability": "view",
      "type": "function"
    },
    {
      "inputs": [],
      "name": "proxiableUUID",
      "outputs": [
        {
          "internalType": "bytes32",
          "name": "",
          "type": "bytes32"
        }
      ],
      "stateMutability": "view",
      "type": "function"
    },
    {
      "inputs": [],
      "name": "renounceOwnership",
      "outputs": [],
      "stateMutability": "nonpayable",
      "type": "function"
    },
    {
      "inputs": [
        {
          "internalType": "address",
          "name": "newOwner",
          "type": "address"
        }
      ],
      "name": "transferOwnership",
      "outputs": [],
      "stateMutability": "nonpayable",
      "type": "function"
    },
    {
      "inputs": [
        {
          "internalType": "address",
          "name": "contractAddress",
          "type": "address"
        },
        {
          "internalType": "bool",
          "name": "status",
          "type": "bool"
        }
      ],
      "name": "updateContract",
      "outputs": [],
      "stateMutability": "nonpayable",
      "type": "function"
    },
    {
      "inputs": [
        {
          "internalType": "address",
          "name": "contractAddress",
          "type": "address"
        },
        {
          "internalType": "bytes4",
          "name": "selector",
          "type": "bytes4"
        },
        {
          "internalType": "bytes",
          "name": "mask",
          "type": "bytes"
        }
      ],
      "name": "updateContractFunctionMask",
      "outputs": [],
      "stateMutability": "nonpayable",
      "type": "function"
    },
    {
      "inputs": [
        {
          "internalType": "address",
          "name": "contractAddress",
          "type": "address"
        },
        {
          "internalType": "bytes",
          "name": "selectorAndParams",
          "type": "bytes"
        },
        {
          "internalType": "bool",
          "name": "status",
          "type": "bool"
        }
      ],
      "name": "updateIdStatus",
      "outputs": [],
      "stateMutability": "nonpayable",
      "type": "function"
    },
    {
      "inputs": [
        {
          "internalType": "address",
          "name": "newImplementation",
          "type": "address"
        }
      ],
      "name": "upgradeTo",
      "outputs": [],
      "stateMutability": "nonpayable",
      "type": "function"
    },
    {
      "inputs": [
        {
          "internalType": "address",
          "name": "newImplementation",
          "type": "address"
        },
        {
          "internalType": "bytes",
          "name": "data",
          "type": "bytes"
        }
      ],
      "name": "upgradeToAndCall",
      "outputs": [],
      "stateMutability": "payable",
      "type": "function"
    }
  ],
  "bytecode": {
    "object": "0x60a06040523060805234801561001457600080fd5b5061001d610022565b6100e2565b600054610100900460ff161561008e5760405162461bcd60e51b815260206004820152602760248201527f496e697469616c697a61626c653a20636f6e747261637420697320696e697469604482015266616c697a696e6760c81b606482015260840160405180910390fd5b60005460ff90811610156100e0576000805460ff191660ff9081179091556040519081527f7f26b83ff96e1f2b6a682f133852f6798a09c465da95921460cefb38474024989060200160405180910390a15b565b608051611b816101196000396000818161040501528181610445015281816104e40152818161052401526105b70152611b816000f3fe6080604052600436106100f35760003560e01c806383e7942c1161008a578063c4d66de811610059578063c4d66de81461028e578063e30c3978146102ae578063f2fde38b146102cc578063f9520370146102ec57600080fd5b806383e7942c146101fc5780638da5cb5b1461021c578063a971ea061461024e578063ab1658311461026e57600080fd5b806352d1902d116100c657806352d1902d14610182578063715018a6146101a5578063732bab25146101ba57806379ba5097146101e757600080fd5b806321f01800146100f857806332543a8e1461011a5780633659cfe61461014f5780634f1ef2861461016f575b600080fd5b34801561010457600080fd5b50610118610113366004611442565b61030c565b005b34801561012657600080fd5b5061013a6101353660046114a3565b6103e4565b60405190151581526020015b60405180910390f35b34801561015b57600080fd5b5061011861016a3660046114f6565b6103fb565b61011861017d366004611527565b6104da565b34801561018e57600080fd5b506101976105aa565b604051908152602001610146565b3480156101b157600080fd5b5061011861065d565b3480156101c657600080fd5b506101da6101d53660046115e9565b610671565b604051610146919061166c565b3480156101f357600080fd5b50610118610733565b34801561020857600080fd5b5061013a61021736600461167f565b6107aa565b34801561022857600080fd5b506097546001600160a01b03165b6040516001600160a01b039091168152602001610146565b34801561025a57600080fd5b506101186102693660046116e9565b6107c0565b34801561027a57600080fd5b5061013a6102893660046114f6565b610813565b34801561029a57600080fd5b506101186102a93660046114f6565b610824565b3480156102ba57600080fd5b5060c9546001600160a01b0316610236565b3480156102d857600080fd5b506101186102e73660046114f6565b610946565b3480156102f857600080fd5b50610118610307366004611713565b6109b7565b610314610b39565b6000846040516020016103279190611778565b60408051601f198184030181529181528151602092830120600081815260fb90935291205490915060ff16156103a45760405162461bcd60e51b815260206004820152601a60248201527f436f6e74726163742069732066756c6c7920617070726f76656400000000000060448201526064015b60405180910390fd5b6001600160a01b038516600090815260fc602090815260408083206001600160e01b03198816845290915290206103dc838583611815565b505050505050565b60006103f1848484610b93565b90505b9392505050565b6001600160a01b037f00000000000000000000000000000000000000000000000000000000000000001630036104435760405162461bcd60e51b815260040161039b906118d6565b7f00000000000000000000000000000000000000000000000000000000000000006001600160a01b031661048c600080516020611b05833981519152546001600160a01b031690565b6001600160a01b0316146104b25760405162461bcd60e51b815260040161039b90611922565b6104bb81610d16565b604080516000808252602082019092526104d791839190610d1e565b50565b6001600160a01b037f00000000000000000000000000000000000000000000000000000000000000001630036105225760405162461bcd60e51b815260040161039b906118d6565b7f00000000000000000000000000000000000000000000000000000000000000006001600160a01b031661056b600080516020611b05833981519152546001600160a01b031690565b6001600160a01b0316146105915760405162461bcd60e51b815260040161039b90611922565b61059a82610d16565b6105a682826001610d1e565b5050565b6000306001600160a01b037f0000000000000000000000000000000000000000000000000000000000000000161461064a5760405162461bcd60e51b815260206004820152603860248201527f555550535570677261646561626c653a206d757374206e6f742062652063616c60448201527f6c6564207468726f7567682064656c656761746563616c6c0000000000000000606482015260840161039b565b50600080516020611b0583398151915290565b610665610b39565b61066f6000610e8e565b565b6001600160a01b038216600090815260fc602090815260408083206001600160e01b03198516845290915290208054606091906106ad90611795565b80601f01602080910402602001604051908101604052809291908181526020018280546106d990611795565b80156107265780601f106106fb57610100808354040283529160200191610726565b820191906000526020600020905b81548152906001019060200180831161070957829003601f168201915b5050505050905092915050565b60c95433906001600160a01b031681146107a15760405162461bcd60e51b815260206004820152602960248201527f4f776e61626c6532537465703a2063616c6c6572206973206e6f7420746865206044820152683732bb9037bbb732b960b91b606482015260840161039b565b6104d781610e8e565b60006107b7858585610ea7565b95945050505050565b6107c8610b39565b6000826040516020016107db9190611778565b60408051808303601f190181529181528151602092830120600090815260fb9092529020805460ff1916921515929092179091555050565b600061081e82610eca565b92915050565b600054610100900460ff16158080156108445750600054600160ff909116105b8061085e5750303b15801561085e575060005460ff166001145b6108c15760405162461bcd60e51b815260206004820152602e60248201527f496e697469616c697a61626c653a20636f6e747261637420697320616c72656160448201526d191e481a5b9a5d1a585b1a5e995960921b606482015260840161039b565b6000805460ff1916600117905580156108e4576000805461ff0019166101001790555b6108ec610f0d565b6108f4610f0d565b6108fd82610e8e565b80156105a6576000805461ff0019169055604051600181527f7f26b83ff96e1f2b6a682f133852f6798a09c465da95921460cefb38474024989060200160405180910390a15050565b61094e610b39565b60c980546001600160a01b0383166001600160a01b0319909116811790915561097f6097546001600160a01b031690565b6001600160a01b03167f38d16b8cac22d99fc7c124b9cd0de2d3fa1faef420bfe791d8c362d765e2270060405160405180910390a350565b6109bf610b39565b6000846040516020016109d29190611778565b60408051601f198184030181529181528151602092830120600081815260fb90935291205490915060ff1615610a4a5760405162461bcd60e51b815260206004820152601a60248201527f436f6e74726163742069732066756c6c7920617070726f766564000000000000604482015260640161039b565b6000610a5885856004610f78565b610a619061196e565b6001600160a01b038716600090815260fc602090815260408083206001600160e01b0319851684529091529020805491925090610a9d90611795565b9050600003610ae65760405162461bcd60e51b815260206004820152601560248201527446756e6374696f6e20776974686f7574206d61736b60581b604482015260640161039b565b6000868686604051602001610afd939291906119a5565b60408051808303601f190181529181528151602092830120600090815260fb9092529020805460ff191694151594909417909355505050505050565b6097546001600160a01b0316331461066f5760405162461bcd60e51b815260206004820181905260248201527f4f776e61626c653a2063616c6c6572206973206e6f7420746865206f776e6572604482015260640161039b565b600080610ba284846004610f78565b610bab9061196e565b6001600160a01b038616600090815260fc602090815260408083206001600160e01b031985168452909152812080549293509091610be890611795565b80601f0160208091040260200160405190810160405280929190818152602001828054610c1490611795565b8015610c615780601f10610c3657610100808354040283529160200191610c61565b820191906000526020600020905b815481529060010190602001808311610c4457829003601f168201915b505050505090506000610c7686868451610f78565b90506000825167ffffffffffffffff811115610c9457610c94611511565b6040519080825280601f01601f191660200182016040528015610cbe576020820181803683370190505b509050610ccc818385610fc4565b60008882604051602001610ce19291906119d1565b60408051808303601f190181529181528151602092830120600090815260fb90925290205460ff169998505050505050505050565b6104d7610b39565b7f4910fdfa16fed3260ed0e7147f7cc6da11a60208b5b9406d12a635614ffd91435460ff1615610d5657610d5183611148565b505050565b826001600160a01b03166352d1902d6040518163ffffffff1660e01b8152600401602060405180830381865afa925050508015610db0575060408051601f3d908101601f19168201909252610dad91810190611a09565b60015b610e135760405162461bcd60e51b815260206004820152602e60248201527f45524331393637557067726164653a206e657720696d706c656d656e7461746960448201526d6f6e206973206e6f74205555505360901b606482015260840161039b565b600080516020611b058339815191528114610e825760405162461bcd60e51b815260206004820152602960248201527f45524331393637557067726164653a20756e737570706f727465642070726f786044820152681a58589b195555525160ba1b606482015260840161039b565b50610d518383836111e4565b60c980546001600160a01b03191690556104d78161120f565b6000610eb284610eca565b15610ebf575060016103f4565b6103f1848484610b93565b60008082604051602001610ede9190611778565b60408051601f198184030181529181528151602092830120600090815260fb90925290205460ff169392505050565b600054610100900460ff1661066f5760405162461bcd60e51b815260206004820152602b60248201527f496e697469616c697a61626c653a20636f6e7472616374206973206e6f74206960448201526a6e697469616c697a696e6760a81b606482015260840161039b565b6060610f878260008587611a22565b8080601f01602080910402602001604051908101604052809392919081815260200183838082843760009201919091525092979650505050505050565b8151835114610fd257600080fd5b8051835114610fe057600080fd5b600060208451610ff09190611a62565b90506000610fff826020611a84565b90508161100d602083611a62565b1461101a5761101a611aa3565b60005b828110156110575780600101602002808501518187015181168289015182191617828901525050808061104f90611ab9565b91505061101d565b821561108457829050806001016020028085015181870151811682890151821916178289015250506103dc565b50805b85518110156103dc578481815181106110a2576110a2611ad2565b602001015160f81c60f81b8482815181106110bf576110bf611ad2565b602001015160f81c60f81b168682815181106110dd576110dd611ad2565b602001015160f81c60f81b8583815181106110fa576110fa611ad2565b602001015160f81c60f81b60ff60f81b18161786828151811061111f5761111f611ad2565b60200101906001600160f81b031916908160001a9053508061114081611ab9565b915050611087565b6001600160a01b0381163b6111b55760405162461bcd60e51b815260206004820152602d60248201527f455243313936373a206e657720696d706c656d656e746174696f6e206973206e60448201526c1bdd08184818dbdb9d1c9858dd609a1b606482015260840161039b565b600080516020611b0583398151915280546001600160a01b0319166001600160a01b0392909216919091179055565b6111ed83611261565b6000825111806111fa5750805b15610d515761120983836112a1565b50505050565b609780546001600160a01b038381166001600160a01b0319831681179093556040519116919082907f8be0079c531659141344cd1fd0a4f28419497f9722a3daafe3b4186f6b6457e090600090a35050565b61126a81611148565b6040516001600160a01b038216907fbc7cd75a20ee27fd9adebab32041f755214dbc6bffa90cc0225b39da2e5c2d3b90600090a250565b60606001600160a01b0383163b6113095760405162461bcd60e51b815260206004820152602660248201527f416464726573733a2064656c65676174652063616c6c20746f206e6f6e2d636f6044820152651b9d1c9858dd60d21b606482015260840161039b565b600080846001600160a01b0316846040516113249190611ae8565b600060405180830381855af49150503d806000811461135f576040519150601f19603f3d011682016040523d82523d6000602084013e611364565b606091505b50915091506107b78282604051806060016040528060278152602001611b2560279139606083156113965750816103f4565b6103f483838151156113ab5781518083602001fd5b8060405162461bcd60e51b815260040161039b919061166c565b80356001600160a01b03811681146113dc57600080fd5b919050565b80356001600160e01b0319811681146113dc57600080fd5b60008083601f84011261140b57600080fd5b50813567ffffffffffffffff81111561142357600080fd5b60208301915083602082850101111561143b57600080fd5b9250929050565b6000806000806060858703121561145857600080fd5b611461856113c5565b935061146f602086016113e1565b9250604085013567ffffffffffffffff81111561148b57600080fd5b611497878288016113f9565b95989497509550505050565b6000806000604084860312156114b857600080fd5b6114c1846113c5565b9250602084013567ffffffffffffffff8111156114dd57600080fd5b6114e9868287016113f9565b9497909650939450505050565b60006020828403121561150857600080fd5b6103f4826113c5565b634e487b7160e01b600052604160045260246000fd5b6000806040838503121561153a57600080fd5b611543836113c5565b9150602083013567ffffffffffffffff8082111561156057600080fd5b818501915085601f83011261157457600080fd5b81358181111561158657611586611511565b604051601f8201601f19908116603f011681019083821181831017156115ae576115ae611511565b816040528281528860208487010111156115c757600080fd5b8260208601602083013760006020848301015280955050505050509250929050565b600080604083850312156115fc57600080fd5b611605836113c5565b9150611613602084016113e1565b90509250929050565b60005b8381101561163757818101518382015260200161161f565b50506000910152565b6000815180845261165881602086016020860161161c565b601f01601f19169290920160200192915050565b6020815260006103f46020830184611640565b6000806000806060858703121561169557600080fd5b61169e856113c5565b9350602085013567ffffffffffffffff8111156116ba57600080fd5b6116c6878288016113f9565b9598909750949560400135949350505050565b803580151581146113dc57600080fd5b600080604083850312156116fc57600080fd5b611705836113c5565b9150611613602084016116d9565b6000806000806060858703121561172957600080fd5b611732856113c5565b9350602085013567ffffffffffffffff81111561174e57600080fd5b61175a878288016113f9565b909450925061176d9050604086016116d9565b905092959194509250565b60609190911b6bffffffffffffffffffffffff1916815260140190565b600181811c908216806117a957607f821691505b6020821081036117c957634e487b7160e01b600052602260045260246000fd5b50919050565b601f821115610d5157600081815260208120601f850160051c810160208610156117f65750805b601f850160051c820191505b818110156103dc57828155600101611802565b67ffffffffffffffff83111561182d5761182d611511565b6118418361183b8354611795565b836117cf565b6000601f841160018114611875576000851561185d5750838201355b600019600387901b1c1916600186901b1783556118cf565b600083815260209020601f19861690835b828110156118a65786850135825560209485019460019092019101611886565b50868210156118c35760001960f88860031b161c19848701351681555b505060018560011b0183555b5050505050565b6020808252602c908201527f46756e6374696f6e206d7573742062652063616c6c6564207468726f7567682060408201526b19195b1959d85d1958d85b1b60a21b606082015260800190565b6020808252602c908201527f46756e6374696f6e206d7573742062652063616c6c6564207468726f7567682060408201526b6163746976652070726f787960a01b606082015260800190565b805160208201516001600160e01b0319808216929190600483101561199d5780818460040360031b1b83161693505b505050919050565b6bffffffffffffffffffffffff198460601b168152818360148301376000910160140190815292915050565b6bffffffffffffffffffffffff198360601b168152600082516119fb81601485016020870161161c565b919091016014019392505050565b600060208284031215611a1b57600080fd5b5051919050565b60008085851115611a3257600080fd5b83861115611a3f57600080fd5b5050820193919092039150565b634e487b7160e01b600052601160045260246000fd5b600082611a7f57634e487b7160e01b600052601260045260246000fd5b500490565b6000816000190483118215151615611a9e57611a9e611a4c565b500290565b634e487b7160e01b600052600160045260246000fd5b600060018201611acb57611acb611a4c565b5060010190565b634e487b7160e01b600052603260045260246000fd5b60008251611afa81846020870161161c565b919091019291505056fe360894a13ba1a3210667c828492db98dca3e2076cc3735a920a3ca505d382bbc416464726573733a206c6f772d6c6576656c2064656c65676174652063616c6c206661696c6564a2646970667358221220fa8f73851de4ce57b7492d41b0df085d24d55f25361e62e19f2748a8cc96502364736f6c63430008100033",
    "linkReferences": {}
  },
  "methodIdentifiers": {
    "acceptOwnership()": "79ba5097",
    "checkContractAddress(address)": "ab165831",
    "checkContractData(address,bytes)": "32543a8e",
    "executeCheckOwner(address,bytes,uint256)": "83e7942c",
    "getMask(address,bytes4)": "732bab25",
    "initialize(address)": "c4d66de8",
    "owner()": "8da5cb5b",
    "pendingOwner()": "e30c3978",
    "proxiableUUID()": "52d1902d",
    "renounceOwnership()": "715018a6",
    "transferOwnership(address)": "f2fde38b",
    "updateContract(address,bool)": "a971ea06",
    "updateContractFunctionMask(address,bytes4,bytes)": "21f01800",
    "updateIdStatus(address,bytes,bool)": "f9520370",
    "upgradeTo(address)": "3659cfe6",
    "upgradeToAndCall(address,bytes)": "4f1ef286"
  },
  "id": 116
}