{
  "abi": [
    {
      "inputs": [
        {
          "internalType": "address",
          "name": "owner",
          "type": "address"
        }
      ],
      "stateMutability": "nonpayable",
      "type": "constructor"
    },
    {
      "anonymous": false,
      "inputs": [
        {
          "indexed": true,
          "internalType": "address",
          "name": "previousOwner",
          "type": "address"
        },
        {
          "indexed": true,
          "internalType": "address",
          "name": "newOwner",
          "type": "address"
        }
      ],
      "name": "OwnershipTransferStarted",
      "type": "event"
    },
    {
      "anonymous": false,
      "inputs": [
        {
          "indexed": true,
          "internalType": "address",
          "name": "previousOwner",
          "type": "address"
        },
        {
          "indexed": true,
          "internalType": "address",
          "name": "newOwner",
          "type": "address"
        }
      ],
      "name": "OwnershipTransferred",
      "type": "event"
    },
    {
      "inputs": [],
      "name": "acceptOwnership",
      "outputs": [],
      "stateMutability": "nonpayable",
      "type": "function"
    },
    {
      "inputs": [
        {
          "internalType": "address",
          "name": "destination",
          "type": "address"
        },
        {
          "internalType": "bytes",
          "name": "data",
          "type": "bytes"
        },
        {
          "internalType": "uint256",
          "name": "value",
          "type": "uint256"
        },
        {
          "internalType": "uint256",
          "name": "gas",
          "type": "uint256"
        }
      ],
      "name": "forwardCheckOwner",
      "outputs": [
        {
          "internalType": "bool",
          "name": "",
          "type": "bool"
        }
      ],
      "stateMutability": "view",
      "type": "function"
    },
    {
      "inputs": [],
      "name": "owner",
      "outputs": [
        {
          "internalType": "address",
          "name": "",
          "type": "address"
        }
      ],
      "stateMutability": "view",
      "type": "function"
    },
    {
      "inputs": [],
      "name": "pendingOwner",
      "outputs": [
        {
          "internalType": "address",
          "name": "",
          "type": "address"
        }
      ],
      "stateMutability": "view",
      "type": "function"
    },
    {
      "inputs": [],
      "name": "renounceOwnership",
      "outputs": [],
      "stateMutability": "nonpayable",
      "type": "function"
    },
    {
      "inputs": [
        {
          "internalType": "address",
          "name": "newOwner",
          "type": "address"
        }
      ],
      "name": "transferOwnership",
      "outputs": [],
      "stateMutability": "nonpayable",
      "type": "function"
    },
    {
      "inputs": [
        {
          "internalType": "address",
          "name": "contractAddress",
          "type": "address"
        },
        {
          "internalType": "bool",
          "name": "status",
          "type": "bool"
        }
      ],
      "name": "updateContract",
      "outputs": [],
      "stateMutability": "nonpayable",
      "type": "function"
    },
    {
      "inputs": [
        {
          "internalType": "address",
          "name": "contractAddress",
          "type": "address"
        },
        {
          "internalType": "bytes4",
          "name": "selector",
          "type": "bytes4"
        },
        {
          "internalType": "bytes",
          "name": "mask",
          "type": "bytes"
        }
      ],
      "name": "updateContractFunctionMask",
      "outputs": [],
      "stateMutability": "nonpayable",
      "type": "function"
    },
    {
      "inputs": [
        {
          "internalType": "address",
          "name": "contractAddress",
          "type": "address"
        },
        {
          "internalType": "bytes",
          "name": "selectorAndParams",
          "type": "bytes"
        },
        {
          "internalType": "bool",
          "name": "status",
          "type": "bool"
        }
      ],
      "name": "updateIdStatus",
      "outputs": [],
      "stateMutability": "nonpayable",
      "type": "function"
    }
  ],
  "bytecode": {
    "object": "0x608060405234801561001057600080fd5b50604051610f9c380380610f9c83398101604081905261002f916100c0565b8061003933610049565b61004281610049565b50506100f0565b600180546001600160a01b031916905561006d81610070602090811b61051717901c565b50565b600080546001600160a01b038381166001600160a01b0319831681178455604051919092169283917f8be0079c531659141344cd1fd0a4f28419497f9722a3daafe3b4186f6b6457e09190a35050565b6000602082840312156100d257600080fd5b81516001600160a01b03811681146100e957600080fd5b9392505050565b610e9d806100ff6000396000f3fe608060405234801561001057600080fd5b50600436106100935760003560e01c8063a971ea0611610066578063a971ea06146100e7578063bde7f9e2146100fa578063e30c39781461011d578063f2fde38b1461012e578063f95203701461014157600080fd5b806321f0180014610098578063715018a6146100ad57806379ba5097146100b55780638da5cb5b146100bd575b600080fd5b6100ab6100a63660046109e2565b610154565b005b6100ab61022c565b6100ab610240565b6000546001600160a01b03165b6040516001600160a01b0390911681526020015b60405180910390f35b6100ab6100f5366004610a62565b6102ba565b61010d610108366004610a95565b61030d565b60405190151581526020016100de565b6001546001600160a01b03166100ca565b6100ab61013c366004610afa565b610324565b6100ab61014f366004610b15565b610395565b61015c610567565b60008460405160200161016f9190610b7a565b60408051601f1981840301815291815281516020928301206000818152600290935291205490915060ff16156101ec5760405162461bcd60e51b815260206004820152601a60248201527f436f6e74726163742069732066756c6c7920617070726f76656400000000000060448201526064015b60405180910390fd5b6001600160a01b03851660009081526003602090815260408083206001600160e01b0319881684529091529020610224838583610c32565b505050505050565b610234610567565b61023e60006105c1565b565b60015433906001600160a01b031681146102ae5760405162461bcd60e51b815260206004820152602960248201527f4f776e61626c6532537465703a2063616c6c6572206973206e6f7420746865206044820152683732bb9037bbb732b960b91b60648201526084016101e3565b6102b7816105c1565b50565b6102c2610567565b6000826040516020016102d59190610b7a565b60408051808303601f190181529181528151602092830120600090815260029092529020805460ff1916921515929092179091555050565b600061031a8686866105da565b9695505050505050565b61032c610567565b600180546001600160a01b0383166001600160a01b0319909116811790915561035d6000546001600160a01b031690565b6001600160a01b03167f38d16b8cac22d99fc7c124b9cd0de2d3fa1faef420bfe791d8c362d765e2270060405160405180910390a350565b61039d610567565b6000846040516020016103b09190610b7a565b60408051601f1981840301815291815281516020928301206000818152600290935291205490915060ff16156104285760405162461bcd60e51b815260206004820152601a60248201527f436f6e74726163742069732066756c6c7920617070726f76656400000000000060448201526064016101e3565b6000610436858560046107ad565b61043f90610cf3565b6001600160a01b03871660009081526003602090815260408083206001600160e01b031985168452909152902080549192509061047b90610bad565b90506000036104c45760405162461bcd60e51b815260206004820152601560248201527446756e6374696f6e20776974686f7574206d61736b60581b60448201526064016101e3565b60008686866040516020016104db93929190610d2a565b60408051808303601f190181529181528151602092830120600090815260029092529020805460ff191694151594909417909355505050505050565b600080546001600160a01b038381166001600160a01b0319831681178455604051919092169283917f8be0079c531659141344cd1fd0a4f28419497f9722a3daafe3b4186f6b6457e09190a35050565b6000546001600160a01b0316331461023e5760405162461bcd60e51b815260206004820181905260248201527f4f776e61626c653a2063616c6c6572206973206e6f7420746865206f776e657260448201526064016101e3565b600180546001600160a01b03191690556102b781610517565b600080846040516020016105ee9190610b7a565b60408051601f1981840301815291815281516020928301206000818152600290935291205490915060ff16156106285760019150506107a6565b6000610636858560046107ad565b61063f90610cf3565b6001600160a01b03871660009081526003602090815260408083206001600160e01b03198516845290915281208054929350909161067c90610bad565b80601f01602080910402602001604051908101604052809291908181526020018280546106a890610bad565b80156106f55780601f106106ca576101008083540402835291602001916106f5565b820191906000526020600020905b8154815290600101906020018083116106d857829003601f168201915b50505050509050600061070a878784516107ad565b90506000825167ffffffffffffffff81111561072857610728610b97565b6040519080825280601f01601f191660200182016040528015610752576020820181803683370190505b5090506107608183856107f9565b60008982604051602001610775929190610d56565b60408051601f1981840301815291815281516020928301206000908152600290925290205460ff1696505050505050505b9392505050565b60606107bc8260008587610da1565b8080601f01602080910402602001604051908101604052809392919081815260200183838082843760009201919091525092979650505050505050565b815183511461080757600080fd5b805183511461081557600080fd5b6000602084516108259190610de1565b90506000610834826020610e03565b905081610842602083610de1565b1461084f5761084f610e22565b60005b8281101561088c5780600101602002808501518187015181168289015182191617828901525050808061088490610e38565b915050610852565b82156108b95782905080600101602002808501518187015181168289015182191617828901525050610224565b50805b8551811015610224578481815181106108d7576108d7610e51565b602001015160f81c60f81b8482815181106108f4576108f4610e51565b602001015160f81c60f81b1686828151811061091257610912610e51565b602001015160f81c60f81b85838151811061092f5761092f610e51565b602001015160f81c60f81b60ff60f81b18161786828151811061095457610954610e51565b60200101906001600160f81b031916908160001a9053508061097581610e38565b9150506108bc565b80356001600160a01b038116811461099457600080fd5b919050565b60008083601f8401126109ab57600080fd5b50813567ffffffffffffffff8111156109c357600080fd5b6020830191508360208285010111156109db57600080fd5b9250929050565b600080600080606085870312156109f857600080fd5b610a018561097d565b935060208501356001600160e01b031981168114610a1e57600080fd5b9250604085013567ffffffffffffffff811115610a3a57600080fd5b610a4687828801610999565b95989497509550505050565b8035801515811461099457600080fd5b60008060408385031215610a7557600080fd5b610a7e8361097d565b9150610a8c60208401610a52565b90509250929050565b600080600080600060808688031215610aad57600080fd5b610ab68661097d565b9450602086013567ffffffffffffffff811115610ad257600080fd5b610ade88828901610999565b9699909850959660408101359660609091013595509350505050565b600060208284031215610b0c57600080fd5b6107a68261097d565b60008060008060608587031215610b2b57600080fd5b610b348561097d565b9350602085013567ffffffffffffffff811115610b5057600080fd5b610b5c87828801610999565b9094509250610b6f905060408601610a52565b905092959194509250565b60609190911b6bffffffffffffffffffffffff1916815260140190565b634e487b7160e01b600052604160045260246000fd5b600181811c90821680610bc157607f821691505b602082108103610be157634e487b7160e01b600052602260045260246000fd5b50919050565b601f821115610c2d57600081815260208120601f850160051c81016020861015610c0e5750805b601f850160051c820191505b8181101561022457828155600101610c1a565b505050565b67ffffffffffffffff831115610c4a57610c4a610b97565b610c5e83610c588354610bad565b83610be7565b6000601f841160018114610c925760008515610c7a5750838201355b600019600387901b1c1916600186901b178355610cec565b600083815260209020601f19861690835b82811015610cc35786850135825560209485019460019092019101610ca3565b5086821015610ce05760001960f88860031b161c19848701351681555b505060018560011b0183555b5050505050565b805160208201516001600160e01b03198082169291906004831015610d225780818460040360031b1b83161693505b505050919050565b6bffffffffffffffffffffffff198460601b168152818360148301376000910160140190815292915050565b6bffffffffffffffffffffffff198360601b1681526000825160005b81811015610d8f5760208186018101516014868401015201610d72565b50600092016014019182525092915050565b60008085851115610db157600080fd5b83861115610dbe57600080fd5b5050820193919092039150565b634e487b7160e01b600052601160045260246000fd5b600082610dfe57634e487b7160e01b600052601260045260246000fd5b500490565b6000816000190483118215151615610e1d57610e1d610dcb565b500290565b634e487b7160e01b600052600160045260246000fd5b600060018201610e4a57610e4a610dcb565b5060010190565b634e487b7160e01b600052603260045260246000fdfea26469706673582212203c2c26d7554f5b364d5bb7a03b282e5f3f1e9f51156b7a043f33333f687dffce64736f6c63430008100033",
    "linkReferences": {}
  },
  "methodIdentifiers": {
    "acceptOwnership()": "79ba5097",
    "forwardCheckOwner(address,bytes,uint256,uint256)": "bde7f9e2",
    "owner()": "8da5cb5b",
    "pendingOwner()": "e30c3978",
    "renounceOwnership()": "715018a6",
    "transferOwnership(address)": "f2fde38b",
    "updateContract(address,bool)": "a971ea06",
    "updateContractFunctionMask(address,bytes4,bytes)": "21f01800",
    "updateIdStatus(address,bytes,bool)": "f9520370"
  },
  "id": 40
}