{
  "abi": [
    {
      "inputs": [
        {
          "internalType": "address",
          "name": "owner",
          "type": "address"
        }
      ],
      "stateMutability": "nonpayable",
      "type": "constructor"
    },
    {
      "anonymous": false,
      "inputs": [
        {
          "indexed": true,
          "internalType": "address",
          "name": "previousOwner",
          "type": "address"
        },
        {
          "indexed": true,
          "internalType": "address",
          "name": "newOwner",
          "type": "address"
        }
      ],
      "name": "OwnershipTransferStarted",
      "type": "event"
    },
    {
      "anonymous": false,
      "inputs": [
        {
          "indexed": true,
          "internalType": "address",
          "name": "previousOwner",
          "type": "address"
        },
        {
          "indexed": true,
          "internalType": "address",
          "name": "newOwner",
          "type": "address"
        }
      ],
      "name": "OwnershipTransferred",
      "type": "event"
    },
    {
      "inputs": [],
      "name": "acceptOwnership",
      "outputs": [],
      "stateMutability": "nonpayable",
      "type": "function"
    },
    {
      "inputs": [
        {
          "internalType": "address",
          "name": "contractAddress",
          "type": "address"
        }
      ],
      "name": "checkContractAddress",
      "outputs": [
        {
          "internalType": "bool",
          "name": "",
          "type": "bool"
        }
      ],
      "stateMutability": "view",
      "type": "function"
    },
    {
      "inputs": [
        {
          "internalType": "address",
          "name": "contractAddress",
          "type": "address"
        },
        {
          "internalType": "bytes",
          "name": "data",
          "type": "bytes"
        }
      ],
      "name": "checkContractData",
      "outputs": [
        {
          "internalType": "bool",
          "name": "",
          "type": "bool"
        }
      ],
      "stateMutability": "view",
      "type": "function"
    },
    {
      "inputs": [
        {
          "internalType": "address",
          "name": "destination",
          "type": "address"
        },
        {
          "internalType": "bytes",
          "name": "data",
          "type": "bytes"
        },
        {
          "internalType": "uint256",
          "name": "value",
          "type": "uint256"
        },
        {
          "internalType": "uint256",
          "name": "gas",
          "type": "uint256"
        }
      ],
      "name": "forwardCheckOwner",
      "outputs": [
        {
          "internalType": "bool",
          "name": "",
          "type": "bool"
        }
      ],
      "stateMutability": "view",
      "type": "function"
    },
    {
      "inputs": [
        {
          "internalType": "address",
          "name": "contractAddress",
          "type": "address"
        },
        {
          "internalType": "bytes4",
          "name": "selector",
          "type": "bytes4"
        }
      ],
      "name": "getMask",
      "outputs": [
        {
          "internalType": "bytes",
          "name": "",
          "type": "bytes"
        }
      ],
      "stateMutability": "view",
      "type": "function"
    },
    {
      "inputs": [],
      "name": "owner",
      "outputs": [
        {
          "internalType": "address",
          "name": "",
          "type": "address"
        }
      ],
      "stateMutability": "view",
      "type": "function"
    },
    {
      "inputs": [],
      "name": "pendingOwner",
      "outputs": [
        {
          "internalType": "address",
          "name": "",
          "type": "address"
        }
      ],
      "stateMutability": "view",
      "type": "function"
    },
    {
      "inputs": [],
      "name": "renounceOwnership",
      "outputs": [],
      "stateMutability": "nonpayable",
      "type": "function"
    },
    {
      "inputs": [
        {
          "internalType": "address",
          "name": "newOwner",
          "type": "address"
        }
      ],
      "name": "transferOwnership",
      "outputs": [],
      "stateMutability": "nonpayable",
      "type": "function"
    },
    {
      "inputs": [
        {
          "internalType": "address",
          "name": "contractAddress",
          "type": "address"
        },
        {
          "internalType": "bool",
          "name": "status",
          "type": "bool"
        }
      ],
      "name": "updateContract",
      "outputs": [],
      "stateMutability": "nonpayable",
      "type": "function"
    },
    {
      "inputs": [
        {
          "internalType": "address",
          "name": "contractAddress",
          "type": "address"
        },
        {
          "internalType": "bytes4",
          "name": "selector",
          "type": "bytes4"
        },
        {
          "internalType": "bytes",
          "name": "mask",
          "type": "bytes"
        }
      ],
      "name": "updateContractFunctionMask",
      "outputs": [],
      "stateMutability": "nonpayable",
      "type": "function"
    },
    {
      "inputs": [
        {
          "internalType": "address",
          "name": "contractAddress",
          "type": "address"
        },
        {
          "internalType": "bytes",
          "name": "selectorAndParams",
          "type": "bytes"
        },
        {
          "internalType": "bool",
          "name": "status",
          "type": "bool"
        }
      ],
      "name": "updateIdStatus",
      "outputs": [],
      "stateMutability": "nonpayable",
      "type": "function"
    }
  ],
  "bytecode": {
    "object": "0x608060405234801561001057600080fd5b506040516111cd3803806111cd83398101604081905261002f916100c0565b8061003933610049565b61004281610049565b50506100f0565b600180546001600160a01b031916905561006d81610070602090811b61066817901c565b50565b600080546001600160a01b038381166001600160a01b0319831681178455604051919092169283917f8be0079c531659141344cd1fd0a4f28419497f9722a3daafe3b4186f6b6457e09190a35050565b6000602082840312156100d257600080fd5b81516001600160a01b03811681146100e957600080fd5b9392505050565b6110ce806100ff6000396000f3fe608060405234801561001057600080fd5b50600436106100b45760003560e01c8063a971ea0611610071578063a971ea061461014b578063ab1658311461015e578063bde7f9e214610171578063e30c397814610184578063f2fde38b14610195578063f9520370146101a857600080fd5b806321f01800146100b957806332543a8e146100ce578063715018a6146100f6578063732bab25146100fe57806379ba50971461011e5780638da5cb5b14610126575b600080fd5b6100cc6100c7366004610b61565b6101bb565b005b6100e16100dc366004610bc2565b610293565b60405190151581526020015b60405180910390f35b6100cc6102aa565b61011161010c366004610c15565b6102be565b6040516100ed9190610c6c565b6100cc610380565b6000546001600160a01b03165b6040516001600160a01b0390911681526020016100ed565b6100cc610159366004610caf565b6103fa565b6100e161016c366004610cd9565b61044d565b6100e161017f366004610cf4565b61045e565b6001546001600160a01b0316610133565b6100cc6101a3366004610cd9565b610475565b6100cc6101b6366004610d59565b6104e6565b6101c36106b8565b6000846040516020016101d69190610dbe565b60408051601f1981840301815291815281516020928301206000818152600290935291205490915060ff16156102535760405162461bcd60e51b815260206004820152601a60248201527f436f6e74726163742069732066756c6c7920617070726f76656400000000000060448201526064015b60405180910390fd5b6001600160a01b03851660009081526003602090815260408083206001600160e01b031988168452909152902061028b838583610e76565b505050505050565b60006102a0848484610712565b90505b9392505050565b6102b26106b8565b6102bc6000610895565b565b6001600160a01b03821660009081526003602090815260408083206001600160e01b03198516845290915290208054606091906102fa90610df1565b80601f016020809104026020016040519081016040528092919081815260200182805461032690610df1565b80156103735780601f1061034857610100808354040283529160200191610373565b820191906000526020600020905b81548152906001019060200180831161035657829003601f168201915b5050505050905092915050565b60015433906001600160a01b031681146103ee5760405162461bcd60e51b815260206004820152602960248201527f4f776e61626c6532537465703a2063616c6c6572206973206e6f7420746865206044820152683732bb9037bbb732b960b91b606482015260840161024a565b6103f781610895565b50565b6104026106b8565b6000826040516020016104159190610dbe565b60408051808303601f190181529181528151602092830120600090815260029092529020805460ff1916921515929092179091555050565b6000610458826108ae565b92915050565b600061046b8686866108f1565b9695505050505050565b61047d6106b8565b600180546001600160a01b0383166001600160a01b031990911681179091556104ae6000546001600160a01b031690565b6001600160a01b03167f38d16b8cac22d99fc7c124b9cd0de2d3fa1faef420bfe791d8c362d765e2270060405160405180910390a350565b6104ee6106b8565b6000846040516020016105019190610dbe565b60408051601f1981840301815291815281516020928301206000818152600290935291205490915060ff16156105795760405162461bcd60e51b815260206004820152601a60248201527f436f6e74726163742069732066756c6c7920617070726f766564000000000000604482015260640161024a565b600061058785856004610914565b61059090610f37565b6001600160a01b03871660009081526003602090815260408083206001600160e01b03198516845290915290208054919250906105cc90610df1565b90506000036106155760405162461bcd60e51b815260206004820152601560248201527446756e6374696f6e20776974686f7574206d61736b60581b604482015260640161024a565b600086868660405160200161062c93929190610f6e565b60408051808303601f190181529181528151602092830120600090815260029092529020805460ff191694151594909417909355505050505050565b600080546001600160a01b038381166001600160a01b0319831681178455604051919092169283917f8be0079c531659141344cd1fd0a4f28419497f9722a3daafe3b4186f6b6457e09190a35050565b6000546001600160a01b031633146102bc5760405162461bcd60e51b815260206004820181905260248201527f4f776e61626c653a2063616c6c6572206973206e6f7420746865206f776e6572604482015260640161024a565b60008061072184846004610914565b61072a90610f37565b6001600160a01b03861660009081526003602090815260408083206001600160e01b03198516845290915281208054929350909161076790610df1565b80601f016020809104026020016040519081016040528092919081815260200182805461079390610df1565b80156107e05780601f106107b5576101008083540402835291602001916107e0565b820191906000526020600020905b8154815290600101906020018083116107c357829003601f168201915b5050505050905060006107f586868451610914565b90506000825167ffffffffffffffff81111561081357610813610ddb565b6040519080825280601f01601f19166020018201604052801561083d576020820181803683370190505b50905061084b818385610960565b60008882604051602001610860929190610f9a565b60408051808303601f1901815291815281516020928301206000908152600290925290205460ff169998505050505050505050565b600180546001600160a01b03191690556103f781610668565b600080826040516020016108c29190610dbe565b60408051601f1981840301815291815281516020928301206000908152600290925290205460ff169392505050565b60006108fc846108ae565b15610909575060016102a3565b6102a0848484610712565b60606109238260008587610fd2565b8080601f01602080910402602001604051908101604052809392919081815260200183838082843760009201919091525092979650505050505050565b815183511461096e57600080fd5b805183511461097c57600080fd5b60006020845161098c9190611012565b9050600061099b826020611034565b9050816109a9602083611012565b146109b6576109b6611053565b60005b828110156109f3578060010160200280850151818701518116828901518219161782890152505080806109eb90611069565b9150506109b9565b8215610a20578290508060010160200280850151818701518116828901518219161782890152505061028b565b50805b855181101561028b57848181518110610a3e57610a3e611082565b602001015160f81c60f81b848281518110610a5b57610a5b611082565b602001015160f81c60f81b16868281518110610a7957610a79611082565b602001015160f81c60f81b858381518110610a9657610a96611082565b602001015160f81c60f81b60ff60f81b181617868281518110610abb57610abb611082565b60200101906001600160f81b031916908160001a90535080610adc81611069565b915050610a23565b80356001600160a01b0381168114610afb57600080fd5b919050565b80356001600160e01b031981168114610afb57600080fd5b60008083601f840112610b2a57600080fd5b50813567ffffffffffffffff811115610b4257600080fd5b602083019150836020828501011115610b5a57600080fd5b9250929050565b60008060008060608587031215610b7757600080fd5b610b8085610ae4565b9350610b8e60208601610b00565b9250604085013567ffffffffffffffff811115610baa57600080fd5b610bb687828801610b18565b95989497509550505050565b600080600060408486031215610bd757600080fd5b610be084610ae4565b9250602084013567ffffffffffffffff811115610bfc57600080fd5b610c0886828701610b18565b9497909650939450505050565b60008060408385031215610c2857600080fd5b610c3183610ae4565b9150610c3f60208401610b00565b90509250929050565b60005b83811015610c63578181015183820152602001610c4b565b50506000910152565b6020815260008251806020840152610c8b816040850160208701610c48565b601f01601f19169190910160400192915050565b80358015158114610afb57600080fd5b60008060408385031215610cc257600080fd5b610ccb83610ae4565b9150610c3f60208401610c9f565b600060208284031215610ceb57600080fd5b6102a382610ae4565b600080600080600060808688031215610d0c57600080fd5b610d1586610ae4565b9450602086013567ffffffffffffffff811115610d3157600080fd5b610d3d88828901610b18565b9699909850959660408101359660609091013595509350505050565b60008060008060608587031215610d6f57600080fd5b610d7885610ae4565b9350602085013567ffffffffffffffff811115610d9457600080fd5b610da087828801610b18565b9094509250610db3905060408601610c9f565b905092959194509250565b60609190911b6bffffffffffffffffffffffff1916815260140190565b634e487b7160e01b600052604160045260246000fd5b600181811c90821680610e0557607f821691505b602082108103610e2557634e487b7160e01b600052602260045260246000fd5b50919050565b601f821115610e7157600081815260208120601f850160051c81016020861015610e525750805b601f850160051c820191505b8181101561028b57828155600101610e5e565b505050565b67ffffffffffffffff831115610e8e57610e8e610ddb565b610ea283610e9c8354610df1565b83610e2b565b6000601f841160018114610ed65760008515610ebe5750838201355b600019600387901b1c1916600186901b178355610f30565b600083815260209020601f19861690835b82811015610f075786850135825560209485019460019092019101610ee7565b5086821015610f245760001960f88860031b161c19848701351681555b505060018560011b0183555b5050505050565b805160208201516001600160e01b03198082169291906004831015610f665780818460040360031b1b83161693505b505050919050565b6bffffffffffffffffffffffff198460601b168152818360148301376000910160140190815292915050565b6bffffffffffffffffffffffff198360601b16815260008251610fc4816014850160208701610c48565b919091016014019392505050565b60008085851115610fe257600080fd5b83861115610fef57600080fd5b5050820193919092039150565b634e487b7160e01b600052601160045260246000fd5b60008261102f57634e487b7160e01b600052601260045260246000fd5b500490565b600081600019048311821515161561104e5761104e610ffc565b500290565b634e487b7160e01b600052600160045260246000fd5b60006001820161107b5761107b610ffc565b5060010190565b634e487b7160e01b600052603260045260246000fdfea264697066735822122024d3456b724f5f03475a25df01cd200fa492b9b66a42857abe753bc6bbf1b27b64736f6c63430008100033",
    "linkReferences": {}
  },
  "methodIdentifiers": {
    "acceptOwnership()": "79ba5097",
    "checkContractAddress(address)": "ab165831",
    "checkContractData(address,bytes)": "32543a8e",
    "forwardCheckOwner(address,bytes,uint256,uint256)": "bde7f9e2",
    "getMask(address,bytes4)": "732bab25",
    "owner()": "8da5cb5b",
    "pendingOwner()": "e30c3978",
    "renounceOwnership()": "715018a6",
    "transferOwnership(address)": "f2fde38b",
    "updateContract(address,bool)": "a971ea06",
    "updateContractFunctionMask(address,bytes4,bytes)": "21f01800",
    "updateIdStatus(address,bytes,bool)": "f9520370"
  },
  "id": 66
}