{
  "abi": [
    {
      "inputs": [
        {
          "internalType": "address",
          "name": "owner",
          "type": "address"
        }
      ],
      "stateMutability": "nonpayable",
      "type": "constructor"
    },
    {
      "anonymous": false,
      "inputs": [
        {
          "indexed": true,
          "internalType": "address",
          "name": "previousOwner",
          "type": "address"
        },
        {
          "indexed": true,
          "internalType": "address",
          "name": "newOwner",
          "type": "address"
        }
      ],
      "name": "OwnershipTransferStarted",
      "type": "event"
    },
    {
      "anonymous": false,
      "inputs": [
        {
          "indexed": true,
          "internalType": "address",
          "name": "previousOwner",
          "type": "address"
        },
        {
          "indexed": true,
          "internalType": "address",
          "name": "newOwner",
          "type": "address"
        }
      ],
      "name": "OwnershipTransferred",
      "type": "event"
    },
    {
      "inputs": [],
      "name": "acceptOwnership",
      "outputs": [],
      "stateMutability": "nonpayable",
      "type": "function"
    },
    {
      "inputs": [
        {
          "internalType": "address",
          "name": "contractAddress",
          "type": "address"
        }
      ],
      "name": "checkContractAddress",
      "outputs": [
        {
          "internalType": "bool",
          "name": "",
          "type": "bool"
        }
      ],
      "stateMutability": "view",
      "type": "function"
    },
    {
      "inputs": [
        {
          "internalType": "address",
          "name": "contractAddress",
          "type": "address"
        },
        {
          "internalType": "bytes",
          "name": "data",
          "type": "bytes"
        }
      ],
      "name": "checkContractData",
      "outputs": [
        {
          "internalType": "bool",
          "name": "",
          "type": "bool"
        }
      ],
      "stateMutability": "view",
      "type": "function"
    },
    {
      "inputs": [
        {
          "internalType": "address",
          "name": "destination",
          "type": "address"
        },
        {
          "internalType": "bytes",
          "name": "data",
          "type": "bytes"
        },
        {
          "internalType": "uint256",
          "name": "value",
          "type": "uint256"
        },
        {
          "internalType": "uint256",
          "name": "gas",
          "type": "uint256"
        }
      ],
      "name": "forwardCheckOwner",
      "outputs": [
        {
          "internalType": "bool",
          "name": "",
          "type": "bool"
        }
      ],
      "stateMutability": "view",
      "type": "function"
    },
    {
      "inputs": [],
      "name": "owner",
      "outputs": [
        {
          "internalType": "address",
          "name": "",
          "type": "address"
        }
      ],
      "stateMutability": "view",
      "type": "function"
    },
    {
      "inputs": [],
      "name": "pendingOwner",
      "outputs": [
        {
          "internalType": "address",
          "name": "",
          "type": "address"
        }
      ],
      "stateMutability": "view",
      "type": "function"
    },
    {
      "inputs": [],
      "name": "renounceOwnership",
      "outputs": [],
      "stateMutability": "nonpayable",
      "type": "function"
    },
    {
      "inputs": [
        {
          "internalType": "address",
          "name": "newOwner",
          "type": "address"
        }
      ],
      "name": "transferOwnership",
      "outputs": [],
      "stateMutability": "nonpayable",
      "type": "function"
    },
    {
      "inputs": [
        {
          "internalType": "address",
          "name": "contractAddress",
          "type": "address"
        },
        {
          "internalType": "bool",
          "name": "status",
          "type": "bool"
        }
      ],
      "name": "updateContract",
      "outputs": [],
      "stateMutability": "nonpayable",
      "type": "function"
    },
    {
      "inputs": [
        {
          "internalType": "address",
          "name": "contractAddress",
          "type": "address"
        },
        {
          "internalType": "bytes4",
          "name": "selector",
          "type": "bytes4"
        },
        {
          "internalType": "bytes",
          "name": "mask",
          "type": "bytes"
        }
      ],
      "name": "updateContractFunctionMask",
      "outputs": [],
      "stateMutability": "nonpayable",
      "type": "function"
    },
    {
      "inputs": [
        {
          "internalType": "address",
          "name": "contractAddress",
          "type": "address"
        },
        {
          "internalType": "bytes",
          "name": "selectorAndParams",
          "type": "bytes"
        },
        {
          "internalType": "bool",
          "name": "status",
          "type": "bool"
        }
      ],
      "name": "updateIdStatus",
      "outputs": [],
      "stateMutability": "nonpayable",
      "type": "function"
    }
  ],
  "bytecode": {
    "object": "0x608060405234801561001057600080fd5b5060405161106938038061106983398101604081905261002f916100c0565b8061003933610049565b61004281610049565b50506100f0565b600180546001600160a01b031916905561006d81610070602090811b61057b17901c565b50565b600080546001600160a01b038381166001600160a01b0319831681178455604051919092169283917f8be0079c531659141344cd1fd0a4f28419497f9722a3daafe3b4186f6b6457e09190a35050565b6000602082840312156100d257600080fd5b81516001600160a01b03811681146100e957600080fd5b9392505050565b610f6a806100ff6000396000f3fe608060405234801561001057600080fd5b50600436106100a95760003560e01c8063a971ea0611610071578063a971ea0614610120578063ab16583114610133578063bde7f9e214610146578063e30c397814610159578063f2fde38b1461016a578063f95203701461017d57600080fd5b806321f01800146100ae57806332543a8e146100c3578063715018a6146100eb57806379ba5097146100f35780638da5cb5b146100fb575b600080fd5b6100c16100bc366004610a5c565b610190565b005b6100d66100d1366004610acc565b610268565b60405190151581526020015b60405180910390f35b6100c161027f565b6100c1610293565b6000546001600160a01b03165b6040516001600160a01b0390911681526020016100e2565b6100c161012e366004610b2f565b61030d565b6100d6610141366004610b62565b610360565b6100d6610154366004610b7d565b610371565b6001546001600160a01b0316610108565b6100c1610178366004610b62565b610388565b6100c161018b366004610be2565b6103f9565b6101986105cb565b6000846040516020016101ab9190610c47565b60408051601f1981840301815291815281516020928301206000818152600290935291205490915060ff16156102285760405162461bcd60e51b815260206004820152601a60248201527f436f6e74726163742069732066756c6c7920617070726f76656400000000000060448201526064015b60405180910390fd5b6001600160a01b03851660009081526003602090815260408083206001600160e01b0319881684529091529020610260838583610cff565b505050505050565b6000610275848484610625565b90505b9392505050565b6102876105cb565b61029160006107a8565b565b60015433906001600160a01b031681146103015760405162461bcd60e51b815260206004820152602960248201527f4f776e61626c6532537465703a2063616c6c6572206973206e6f7420746865206044820152683732bb9037bbb732b960b91b606482015260840161021f565b61030a816107a8565b50565b6103156105cb565b6000826040516020016103289190610c47565b60408051808303601f190181529181528151602092830120600090815260029092529020805460ff1916921515929092179091555050565b600061036b826107c1565b92915050565b600061037e868686610804565b9695505050505050565b6103906105cb565b600180546001600160a01b0383166001600160a01b031990911681179091556103c16000546001600160a01b031690565b6001600160a01b03167f38d16b8cac22d99fc7c124b9cd0de2d3fa1faef420bfe791d8c362d765e2270060405160405180910390a350565b6104016105cb565b6000846040516020016104149190610c47565b60408051601f1981840301815291815281516020928301206000818152600290935291205490915060ff161561048c5760405162461bcd60e51b815260206004820152601a60248201527f436f6e74726163742069732066756c6c7920617070726f766564000000000000604482015260640161021f565b600061049a85856004610827565b6104a390610dc0565b6001600160a01b03871660009081526003602090815260408083206001600160e01b03198516845290915290208054919250906104df90610c7a565b90506000036105285760405162461bcd60e51b815260206004820152601560248201527446756e6374696f6e20776974686f7574206d61736b60581b604482015260640161021f565b600086868660405160200161053f93929190610df7565b60408051808303601f190181529181528151602092830120600090815260029092529020805460ff191694151594909417909355505050505050565b600080546001600160a01b038381166001600160a01b0319831681178455604051919092169283917f8be0079c531659141344cd1fd0a4f28419497f9722a3daafe3b4186f6b6457e09190a35050565b6000546001600160a01b031633146102915760405162461bcd60e51b815260206004820181905260248201527f4f776e61626c653a2063616c6c6572206973206e6f7420746865206f776e6572604482015260640161021f565b60008061063484846004610827565b61063d90610dc0565b6001600160a01b03861660009081526003602090815260408083206001600160e01b03198516845290915281208054929350909161067a90610c7a565b80601f01602080910402602001604051908101604052809291908181526020018280546106a690610c7a565b80156106f35780601f106106c8576101008083540402835291602001916106f3565b820191906000526020600020905b8154815290600101906020018083116106d657829003601f168201915b50505050509050600061070886868451610827565b90506000825167ffffffffffffffff81111561072657610726610c64565b6040519080825280601f01601f191660200182016040528015610750576020820181803683370190505b50905061075e818385610873565b60008882604051602001610773929190610e23565b60408051808303601f1901815291815281516020928301206000908152600290925290205460ff169998505050505050505050565b600180546001600160a01b031916905561030a8161057b565b600080826040516020016107d59190610c47565b60408051601f1981840301815291815281516020928301206000908152600290925290205460ff169392505050565b600061080f846107c1565b1561081c57506001610278565b610275848484610625565b60606108368260008587610e6e565b8080601f01602080910402602001604051908101604052809392919081815260200183838082843760009201919091525092979650505050505050565b815183511461088157600080fd5b805183511461088f57600080fd5b60006020845161089f9190610eae565b905060006108ae826020610ed0565b9050816108bc602083610eae565b146108c9576108c9610eef565b60005b82811015610906578060010160200280850151818701518116828901518219161782890152505080806108fe90610f05565b9150506108cc565b82156109335782905080600101602002808501518187015181168289015182191617828901525050610260565b50805b85518110156102605784818151811061095157610951610f1e565b602001015160f81c60f81b84828151811061096e5761096e610f1e565b602001015160f81c60f81b1686828151811061098c5761098c610f1e565b602001015160f81c60f81b8583815181106109a9576109a9610f1e565b602001015160f81c60f81b60ff60f81b1816178682815181106109ce576109ce610f1e565b60200101906001600160f81b031916908160001a905350806109ef81610f05565b915050610936565b80356001600160a01b0381168114610a0e57600080fd5b919050565b60008083601f840112610a2557600080fd5b50813567ffffffffffffffff811115610a3d57600080fd5b602083019150836020828501011115610a5557600080fd5b9250929050565b60008060008060608587031215610a7257600080fd5b610a7b856109f7565b935060208501356001600160e01b031981168114610a9857600080fd5b9250604085013567ffffffffffffffff811115610ab457600080fd5b610ac087828801610a13565b95989497509550505050565b600080600060408486031215610ae157600080fd5b610aea846109f7565b9250602084013567ffffffffffffffff811115610b0657600080fd5b610b1286828701610a13565b9497909650939450505050565b80358015158114610a0e57600080fd5b60008060408385031215610b4257600080fd5b610b4b836109f7565b9150610b5960208401610b1f565b90509250929050565b600060208284031215610b7457600080fd5b610278826109f7565b600080600080600060808688031215610b9557600080fd5b610b9e866109f7565b9450602086013567ffffffffffffffff811115610bba57600080fd5b610bc688828901610a13565b9699909850959660408101359660609091013595509350505050565b60008060008060608587031215610bf857600080fd5b610c01856109f7565b9350602085013567ffffffffffffffff811115610c1d57600080fd5b610c2987828801610a13565b9094509250610c3c905060408601610b1f565b905092959194509250565b60609190911b6bffffffffffffffffffffffff1916815260140190565b634e487b7160e01b600052604160045260246000fd5b600181811c90821680610c8e57607f821691505b602082108103610cae57634e487b7160e01b600052602260045260246000fd5b50919050565b601f821115610cfa57600081815260208120601f850160051c81016020861015610cdb5750805b601f850160051c820191505b8181101561026057828155600101610ce7565b505050565b67ffffffffffffffff831115610d1757610d17610c64565b610d2b83610d258354610c7a565b83610cb4565b6000601f841160018114610d5f5760008515610d475750838201355b600019600387901b1c1916600186901b178355610db9565b600083815260209020601f19861690835b82811015610d905786850135825560209485019460019092019101610d70565b5086821015610dad5760001960f88860031b161c19848701351681555b505060018560011b0183555b5050505050565b805160208201516001600160e01b03198082169291906004831015610def5780818460040360031b1b83161693505b505050919050565b6bffffffffffffffffffffffff198460601b168152818360148301376000910160140190815292915050565b6bffffffffffffffffffffffff198360601b1681526000825160005b81811015610e5c5760208186018101516014868401015201610e3f565b50600092016014019182525092915050565b60008085851115610e7e57600080fd5b83861115610e8b57600080fd5b5050820193919092039150565b634e487b7160e01b600052601160045260246000fd5b600082610ecb57634e487b7160e01b600052601260045260246000fd5b500490565b6000816000190483118215151615610eea57610eea610e98565b500290565b634e487b7160e01b600052600160045260246000fd5b600060018201610f1757610f17610e98565b5060010190565b634e487b7160e01b600052603260045260246000fdfea26469706673582212209c9dc285d3029b28dc99aedd808d3543ff023bd2642cf256f048c2a8d44c432664736f6c63430008100033",
    "linkReferences": {}
  },
  "methodIdentifiers": {
    "acceptOwnership()": "79ba5097",
    "checkContractAddress(address)": "ab165831",
    "checkContractData(address,bytes)": "32543a8e",
    "forwardCheckOwner(address,bytes,uint256,uint256)": "bde7f9e2",
    "owner()": "8da5cb5b",
    "pendingOwner()": "e30c3978",
    "renounceOwnership()": "715018a6",
    "transferOwnership(address)": "f2fde38b",
    "updateContract(address,bool)": "a971ea06",
    "updateContractFunctionMask(address,bytes4,bytes)": "21f01800",
    "updateIdStatus(address,bytes,bool)": "f9520370"
  },
  "id": 66
}