{
  "abi": [
    {
      "inputs": [
        {
          "internalType": "address",
          "name": "owner",
          "type": "address"
        }
      ],
      "stateMutability": "nonpayable",
      "type": "constructor"
    },
    {
      "anonymous": false,
      "inputs": [
        {
          "indexed": true,
          "internalType": "address",
          "name": "previousOwner",
          "type": "address"
        },
        {
          "indexed": true,
          "internalType": "address",
          "name": "newOwner",
          "type": "address"
        }
      ],
      "name": "OwnershipTransferStarted",
      "type": "event"
    },
    {
      "anonymous": false,
      "inputs": [
        {
          "indexed": true,
          "internalType": "address",
          "name": "previousOwner",
          "type": "address"
        },
        {
          "indexed": true,
          "internalType": "address",
          "name": "newOwner",
          "type": "address"
        }
      ],
      "name": "OwnershipTransferred",
      "type": "event"
    },
    {
      "inputs": [],
      "name": "acceptOwnership",
      "outputs": [],
      "stateMutability": "nonpayable",
      "type": "function"
    },
    {
      "inputs": [
        {
          "internalType": "address",
          "name": "destination",
          "type": "address"
        },
        {
          "internalType": "bytes",
          "name": "data",
          "type": "bytes"
        },
        {
          "internalType": "uint256",
          "name": "value",
          "type": "uint256"
        },
        {
          "internalType": "uint256",
          "name": "gas",
          "type": "uint256"
        }
      ],
      "name": "forwardCheckOwner",
      "outputs": [
        {
          "internalType": "bool",
          "name": "",
          "type": "bool"
        }
      ],
      "stateMutability": "view",
      "type": "function"
    },
    {
      "inputs": [],
      "name": "owner",
      "outputs": [
        {
          "internalType": "address",
          "name": "",
          "type": "address"
        }
      ],
      "stateMutability": "view",
      "type": "function"
    },
    {
      "inputs": [],
      "name": "pendingOwner",
      "outputs": [
        {
          "internalType": "address",
          "name": "",
          "type": "address"
        }
      ],
      "stateMutability": "view",
      "type": "function"
    },
    {
      "inputs": [],
      "name": "renounceOwnership",
      "outputs": [],
      "stateMutability": "nonpayable",
      "type": "function"
    },
    {
      "inputs": [
        {
          "internalType": "address",
          "name": "newOwner",
          "type": "address"
        }
      ],
      "name": "transferOwnership",
      "outputs": [],
      "stateMutability": "nonpayable",
      "type": "function"
    },
    {
      "inputs": [
        {
          "internalType": "address",
          "name": "contractAddress",
          "type": "address"
        },
        {
          "internalType": "bool",
          "name": "status",
          "type": "bool"
        }
      ],
      "name": "updateContract",
      "outputs": [],
      "stateMutability": "nonpayable",
      "type": "function"
    },
    {
      "inputs": [
        {
          "internalType": "address",
          "name": "contractAddress",
          "type": "address"
        },
        {
          "internalType": "bytes4",
          "name": "selector",
          "type": "bytes4"
        },
        {
          "internalType": "bytes",
          "name": "mask",
          "type": "bytes"
        }
      ],
      "name": "updateContractFunctionMask",
      "outputs": [],
      "stateMutability": "nonpayable",
      "type": "function"
    },
    {
      "inputs": [
        {
          "internalType": "address",
          "name": "contractAddress",
          "type": "address"
        },
        {
          "internalType": "bytes",
          "name": "selectorAndParams",
          "type": "bytes"
        },
        {
          "internalType": "bool",
          "name": "status",
          "type": "bool"
        }
      ],
      "name": "updateIdStatus",
      "outputs": [],
      "stateMutability": "nonpayable",
      "type": "function"
    }
  ],
  "bytecode": {
    "object": "0x608060405234801561001057600080fd5b50604051610b55380380610b5583398101604081905261002f916100c0565b8061003933610049565b61004281610049565b50506100f0565b600180546001600160a01b031916905561006d81610070602090811b61052417901c565b50565b600080546001600160a01b038381166001600160a01b0319831681178455604051919092169283917f8be0079c531659141344cd1fd0a4f28419497f9722a3daafe3b4186f6b6457e09190a35050565b6000602082840312156100d257600080fd5b81516001600160a01b03811681146100e957600080fd5b9392505050565b610a56806100ff6000396000f3fe608060405234801561001057600080fd5b50600436106100935760003560e01c8063a971ea0611610066578063a971ea06146100e7578063bde7f9e2146100fa578063e30c397814610123578063f2fde38b14610134578063f95203701461014757600080fd5b806321f0180014610098578063715018a6146100ad57806379ba5097146100b55780638da5cb5b146100bd575b600080fd5b6100ab6100a6366004610698565b61015a565b005b6100ab61023c565b6100ab610250565b6000546001600160a01b03165b6040516001600160a01b0390911681526020015b60405180910390f35b6100ab6100f5366004610718565b6102ca565b61011361010836600461074b565b506001949350505050565b60405190151581526020016100de565b6001546001600160a01b03166100ca565b6100ab6101423660046107b0565b610327565b6100ab6101553660046107d2565b610398565b610162610574565b6040516001600160601b0319606086901b16602082015260009060340160408051601f1981840301815291815281516020928301206000818152600290935291205490915060ff16156101fc5760405162461bcd60e51b815260206004820152601a60248201527f436f6e74726163742069732066756c6c7920617070726f76656400000000000060448201526064015b60405180910390fd5b6001600160a01b03851660009081526003602090815260408083206001600160e01b03198816845290915290206102348385836108d2565b505050505050565b610244610574565b61024e60006105ce565b565b60015433906001600160a01b031681146102be5760405162461bcd60e51b815260206004820152602960248201527f4f776e61626c6532537465703a2063616c6c6572206973206e6f7420746865206044820152683732bb9037bbb732b960b91b60648201526084016101f3565b6102c7816105ce565b50565b6102d2610574565b6040516001600160601b0319606084901b16602082015260009060340160408051808303601f190181529181528151602092830120600090815260029092529020805460ff1916921515929092179091555050565b61032f610574565b600180546001600160a01b0383166001600160a01b031990911681179091556103606000546001600160a01b031690565b6001600160a01b03167f38d16b8cac22d99fc7c124b9cd0de2d3fa1faef420bfe791d8c362d765e2270060405160405180910390a350565b6103a0610574565b6040516001600160601b0319606086901b16602082015260009060340160408051601f1981840301815291815281516020928301206000818152600290935291205490915060ff16156104355760405162461bcd60e51b815260206004820152601a60248201527f436f6e74726163742069732066756c6c7920617070726f76656400000000000060448201526064016101f3565b6000610443858560046105e7565b61044c90610993565b6001600160a01b03871660009081526003602090815260408083206001600160e01b03198516845290915290208054919250906104889061084d565b90506000036104d15760405162461bcd60e51b815260206004820152601560248201527446756e6374696f6e20776974686f7574206d61736b60581b60448201526064016101f3565b60008686866040516020016104e8939291906109ca565b60408051808303601f190181529181528151602092830120600090815260029092529020805460ff191694151594909417909355505050505050565b600080546001600160a01b038381166001600160a01b0319831681178455604051919092169283917f8be0079c531659141344cd1fd0a4f28419497f9722a3daafe3b4186f6b6457e09190a35050565b6000546001600160a01b0316331461024e5760405162461bcd60e51b815260206004820181905260248201527f4f776e61626c653a2063616c6c6572206973206e6f7420746865206f776e657260448201526064016101f3565b600180546001600160a01b03191690556102c781610524565b60606105f682600085876109f6565b8080601f01602080910402602001604051908101604052809392919081815260200183838082843760009201919091525092979650505050505050565b80356001600160a01b038116811461064a57600080fd5b919050565b60008083601f84011261066157600080fd5b50813567ffffffffffffffff81111561067957600080fd5b60208301915083602082850101111561069157600080fd5b9250929050565b600080600080606085870312156106ae57600080fd5b6106b785610633565b935060208501356001600160e01b0319811681146106d457600080fd5b9250604085013567ffffffffffffffff8111156106f057600080fd5b6106fc8782880161064f565b95989497509550505050565b8035801515811461064a57600080fd5b6000806040838503121561072b57600080fd5b61073483610633565b915061074260208401610708565b90509250929050565b60008060008060006080868803121561076357600080fd5b61076c86610633565b9450602086013567ffffffffffffffff81111561078857600080fd5b6107948882890161064f565b9699909850959660408101359660609091013595509350505050565b6000602082840312156107c257600080fd5b6107cb82610633565b9392505050565b600080600080606085870312156107e857600080fd5b6107f185610633565b9350602085013567ffffffffffffffff81111561080d57600080fd5b6108198782880161064f565b909450925061082c905060408601610708565b905092959194509250565b634e487b7160e01b600052604160045260246000fd5b600181811c9082168061086157607f821691505b60208210810361088157634e487b7160e01b600052602260045260246000fd5b50919050565b601f8211156108cd57600081815260208120601f850160051c810160208610156108ae5750805b601f850160051c820191505b81811015610234578281556001016108ba565b505050565b67ffffffffffffffff8311156108ea576108ea610837565b6108fe836108f8835461084d565b83610887565b6000601f841160018114610932576000851561091a5750838201355b600019600387901b1c1916600186901b17835561098c565b600083815260209020601f19861690835b828110156109635786850135825560209485019460019092019101610943565b50868210156109805760001960f88860031b161c19848701351681555b505060018560011b0183555b5050505050565b805160208201516001600160e01b031980821692919060048310156109c25780818460040360031b1b83161693505b505050919050565b6bffffffffffffffffffffffff198460601b168152818360148301376000910160140190815292915050565b60008085851115610a0657600080fd5b83861115610a1357600080fd5b505082019391909203915056fea2646970667358221220ab4f1ec26d1d9ab48b06e38170c8265bf07d0e14636f13d0773fb62396a137a264736f6c63430008100033",
    "linkReferences": {}
  },
  "methodIdentifiers": {
    "acceptOwnership()": "79ba5097",
    "forwardCheckOwner(address,bytes,uint256,uint256)": "bde7f9e2",
    "owner()": "8da5cb5b",
    "pendingOwner()": "e30c3978",
    "renounceOwnership()": "715018a6",
    "transferOwnership(address)": "f2fde38b",
    "updateContract(address,bool)": "a971ea06",
    "updateContractFunctionMask(address,bytes4,bytes)": "21f01800",
    "updateIdStatus(address,bytes,bool)": "f9520370"
  },
  "id": 39
}