{
  "abi": [
    {
      "inputs": [],
      "stateMutability": "nonpayable",
      "type": "constructor"
    },
    {
      "anonymous": false,
      "inputs": [
        {
          "indexed": false,
          "internalType": "address",
          "name": "previousAdmin",
          "type": "address"
        },
        {
          "indexed": false,
          "internalType": "address",
          "name": "newAdmin",
          "type": "address"
        }
      ],
      "name": "AdminChanged",
      "type": "event"
    },
    {
      "anonymous": false,
      "inputs": [
        {
          "indexed": true,
          "internalType": "address",
          "name": "beacon",
          "type": "address"
        }
      ],
      "name": "BeaconUpgraded",
      "type": "event"
    },
    {
      "anonymous": false,
      "inputs": [
        {
          "indexed": false,
          "internalType": "uint8",
          "name": "version",
          "type": "uint8"
        }
      ],
      "name": "Initialized",
      "type": "event"
    },
    {
      "anonymous": false,
      "inputs": [
        {
          "indexed": false,
          "internalType": "address",
          "name": "proxy",
          "type": "address"
        },
        {
          "indexed": false,
          "internalType": "bytes",
          "name": "initializeCalldata",
          "type": "bytes"
        }
      ],
      "name": "NewProxy",
      "type": "event"
    },
    {
      "anonymous": false,
      "inputs": [
        {
          "indexed": true,
          "internalType": "address",
          "name": "implementation",
          "type": "address"
        }
      ],
      "name": "Upgraded",
      "type": "event"
    },
    {
      "inputs": [
        {
          "internalType": "bytes",
          "name": "initializeCalldata",
          "type": "bytes"
        }
      ],
      "name": "createProxy",
      "outputs": [
        {
          "internalType": "address",
          "name": "",
          "type": "address"
        }
      ],
      "stateMutability": "nonpayable",
      "type": "function"
    },
    {
      "inputs": [
        {
          "internalType": "bytes[]",
          "name": "initializeCalldata",
          "type": "bytes[]"
        }
      ],
      "name": "createProxyBatch",
      "outputs": [
        {
          "internalType": "address[]",
          "name": "",
          "type": "address[]"
        }
      ],
      "stateMutability": "nonpayable",
      "type": "function"
    },
    {
      "inputs": [
        {
          "internalType": "address",
          "name": "implementation",
          "type": "address"
        }
      ],
      "name": "initialize",
      "outputs": [],
      "stateMutability": "nonpayable",
      "type": "function"
    },
    {
      "inputs": [],
      "name": "proxiableUUID",
      "outputs": [
        {
          "internalType": "bytes32",
          "name": "",
          "type": "bytes32"
        }
      ],
      "stateMutability": "view",
      "type": "function"
    },
    {
      "inputs": [
        {
          "internalType": "address",
          "name": "newImplementation",
          "type": "address"
        }
      ],
      "name": "upgradeTo",
      "outputs": [],
      "stateMutability": "nonpayable",
      "type": "function"
    },
    {
      "inputs": [
        {
          "internalType": "address",
          "name": "newImplementation",
          "type": "address"
        },
        {
          "internalType": "bytes",
          "name": "data",
          "type": "bytes"
        }
      ],
      "name": "upgradeToAndCall",
      "outputs": [],
      "stateMutability": "payable",
      "type": "function"
    }
  ],
  "bytecode": {
    "object": "0x60a06040523060805234801561001457600080fd5b5061001d61002a565b61002561002a565b6100ea565b600054610100900460ff16156100965760405162461bcd60e51b815260206004820152602760248201527f496e697469616c697a61626c653a20636f6e747261637420697320696e697469604482015266616c697a696e6760c81b606482015260840160405180910390fd5b60005460ff90811610156100e8576000805460ff191660ff9081179091556040519081527f7f26b83ff96e1f2b6a682f133852f6798a09c465da95921460cefb38474024989060200160405180910390a15b565b608051611e0c6101216000396000818161016b015281816101b7015281816102540152818161029701526103280152611e0c6000f3fe6080604052600436106200005c5760003560e01c80633659cfe614620000615780634f1ef286146200008857806352d1902d146200009f5780638ea88c3014620000ca5780638f295d5914620000fe578063c4d66de8146200013c575b600080fd5b3480156200006e57600080fd5b50620000866200008036600462000b4b565b62000161565b005b620000866200009936600462000c14565b6200024a565b348015620000ac57600080fd5b50620000b76200031b565b6040519081526020015b60405180910390f35b348015620000d757600080fd5b50620000ef620000e936600462000c68565b620003d1565b604051620000c1919062000ce2565b3480156200010b57600080fd5b50620001236200011d36600462000d31565b620004ae565b6040516001600160a01b039091168152602001620000c1565b3480156200014957600080fd5b50620000866200015b36600462000b4b565b620004c1565b6001600160a01b037f0000000000000000000000000000000000000000000000000000000000000000163003620001b55760405162461bcd60e51b8152600401620001ac9062000d72565b60405180910390fd5b7f00000000000000000000000000000000000000000000000000000000000000006001600160a01b03166200020060008051602062001d90833981519152546001600160a01b031690565b6001600160a01b031614620002295760405162461bcd60e51b8152600401620001ac9062000dbe565b604080516000808252602082019092526200024791839190620005dc565b50565b6001600160a01b037f0000000000000000000000000000000000000000000000000000000000000000163003620002955760405162461bcd60e51b8152600401620001ac9062000d72565b7f00000000000000000000000000000000000000000000000000000000000000006001600160a01b0316620002e060008051602062001d90833981519152546001600160a01b031690565b6001600160a01b031614620003095760405162461bcd60e51b8152600401620001ac9062000dbe565b6200031782826001620005dc565b5050565b6000306001600160a01b037f00000000000000000000000000000000000000000000000000000000000000001614620003bd5760405162461bcd60e51b815260206004820152603860248201527f555550535570677261646561626c653a206d757374206e6f742062652063616c60448201527f6c6564207468726f7567682064656c656761746563616c6c00000000000000006064820152608401620001ac565b5060008051602062001d9083398151915290565b606060008267ffffffffffffffff811115620003f157620003f162000b69565b6040519080825280602002602001820160405280156200041b578160200160208202803683370190505b50905060005b83811015620004a6576200049285858381811062000443576200044362000e0a565b905060200281019062000457919062000e20565b8080601f016020809104026020016040519081016040528093929190818152602001838380828437600092019190915250620004ae92505050565b506200049e8162000e71565b905062000421565b509392505050565b6000620004bb8262000759565b92915050565b600054610100900460ff1615808015620004e25750600054600160ff909116105b80620004fe5750303b158015620004fe575060005460ff166001145b620005635760405162461bcd60e51b815260206004820152602e60248201527f496e697469616c697a61626c653a20636f6e747261637420697320616c72656160448201526d191e481a5b9a5d1a585b1a5e995960921b6064820152608401620001ac565b6000805460ff19166001179055801562000587576000805461ff0019166101001790555b620005928262000766565b801562000317576000805461ff0019169055604051600181527f7f26b83ff96e1f2b6a682f133852f6798a09c465da95921460cefb38474024989060200160405180910390a15050565b7f4910fdfa16fed3260ed0e7147f7cc6da11a60208b5b9406d12a635614ffd91435460ff1615620006175762000612836200079b565b505050565b826001600160a01b03166352d1902d6040518163ffffffff1660e01b8152600401602060405180830381865afa92505050801562000674575060408051601f3d908101601f19168201909252620006719181019062000e99565b60015b620006d95760405162461bcd60e51b815260206004820152602e60248201527f45524331393637557067726164653a206e657720696d706c656d656e7461746960448201526d6f6e206973206e6f74205555505360901b6064820152608401620001ac565b60008051602062001d9083398151915281146200074b5760405162461bcd60e51b815260206004820152602960248201527f45524331393637557067726164653a20756e737570706f727465642070726f786044820152681a58589b195555525160ba1b6064820152608401620001ac565b50620006128383836200083a565b6000620004bb826200086b565b600054610100900460ff16620007905760405162461bcd60e51b8152600401620001ac9062000eb3565b6200024781620008f8565b6001600160a01b0381163b6200080a5760405162461bcd60e51b815260206004820152602d60248201527f455243313936373a206e657720696d706c656d656e746174696f6e206973206e60448201526c1bdd08184818dbdb9d1c9858dd609a1b6064820152608401620001ac565b60008051602062001d9083398151915280546001600160a01b0319166001600160a01b0392909216919091179055565b620008458362000982565b600082511180620008535750805b156200061257620008658383620009c4565b50505050565b6065546040516000916001600160a01b03169083906200088b9062000b12565b6200089892919062000f52565b604051809103906000f080158015620008b5573d6000803e3d6000fd5b5090507f7b5a07b12c6c3c16c5eaaa0921b544108fed455e3221796c9e25f89643ab90408183604051620008eb92919062000f52565b60405180910390a1919050565b600054610100900460ff16620009225760405162461bcd60e51b8152600401620001ac9062000eb3565b80604051620009319062000b20565b6001600160a01b039091168152602001604051809103906000f0801580156200095e573d6000803e3d6000fd5b50606580546001600160a01b0319166001600160a01b039290921691909117905550565b6200098d816200079b565b6040516001600160a01b038216907fbc7cd75a20ee27fd9adebab32041f755214dbc6bffa90cc0225b39da2e5c2d3b90600090a250565b60606001600160a01b0383163b62000a2e5760405162461bcd60e51b815260206004820152602660248201527f416464726573733a2064656c65676174652063616c6c20746f206e6f6e2d636f6044820152651b9d1c9858dd60d21b6064820152608401620001ac565b600080846001600160a01b03168460405162000a4b919062000f78565b600060405180830381855af49150503d806000811462000a88576040519150601f19603f3d011682016040523d82523d6000602084013e62000a8d565b606091505b509150915062000ab8828260405180606001604052806027815260200162001db06027913962000ac1565b95945050505050565b6060831562000ad257508162000ade565b62000ade838362000ae5565b9392505050565b81511562000af65781518083602001fd5b8060405162461bcd60e51b8152600401620001ac919062000f96565b6109008062000fac83390190565b6104e480620018ac83390190565b80356001600160a01b038116811462000b4657600080fd5b919050565b60006020828403121562000b5e57600080fd5b62000ade8262000b2e565b634e487b7160e01b600052604160045260246000fd5b600082601f83011262000b9157600080fd5b813567ffffffffffffffff8082111562000baf5762000baf62000b69565b604051601f8301601f19908116603f0116810190828211818310171562000bda5762000bda62000b69565b8160405283815286602085880101111562000bf457600080fd5b836020870160208301376000602085830101528094505050505092915050565b6000806040838503121562000c2857600080fd5b62000c338362000b2e565b9150602083013567ffffffffffffffff81111562000c5057600080fd5b62000c5e8582860162000b7f565b9150509250929050565b6000806020838503121562000c7c57600080fd5b823567ffffffffffffffff8082111562000c9557600080fd5b818501915085601f83011262000caa57600080fd5b81358181111562000cba57600080fd5b8660208260051b850101111562000cd057600080fd5b60209290920196919550909350505050565b6020808252825182820181905260009190848201906040850190845b8181101562000d255783516001600160a01b03168352928401929184019160010162000cfe565b50909695505050505050565b60006020828403121562000d4457600080fd5b813567ffffffffffffffff81111562000d5c57600080fd5b62000d6a8482850162000b7f565b949350505050565b6020808252602c908201527f46756e6374696f6e206d7573742062652063616c6c6564207468726f7567682060408201526b19195b1959d85d1958d85b1b60a21b606082015260800190565b6020808252602c908201527f46756e6374696f6e206d7573742062652063616c6c6564207468726f7567682060408201526b6163746976652070726f787960a01b606082015260800190565b634e487b7160e01b600052603260045260246000fd5b6000808335601e1984360301811262000e3857600080fd5b83018035915067ffffffffffffffff82111562000e5457600080fd5b60200191503681900382131562000e6a57600080fd5b9250929050565b60006001820162000e9257634e487b7160e01b600052601160045260246000fd5b5060010190565b60006020828403121562000eac57600080fd5b5051919050565b6020808252602b908201527f496e697469616c697a61626c653a20636f6e7472616374206973206e6f74206960408201526a6e697469616c697a696e6760a81b606082015260800190565b60005b8381101562000f1b57818101518382015260200162000f01565b50506000910152565b6000815180845262000f3e81602086016020860162000efe565b601f01601f19169290920160200192915050565b6001600160a01b038316815260406020820181905260009062000d6a9083018462000f24565b6000825162000f8c81846020870162000efe565b9190910192915050565b60208152600062000ade602083018462000f2456fe60806040526040516109003803806109008339810160408190526100229161045b565b61002e82826000610035565b5050610585565b61003e83610100565b6040516001600160a01b038416907f1cf3b03a6cf19fa2baba4df148e9dcabedea7f8a5c07840e207e5c089be95d3e90600090a260008251118061007f5750805b156100fb576100f9836001600160a01b0316635c60da1b6040518163ffffffff1660e01b8152600401602060405180830381865afa1580156100c5573d6000803e3d6000fd5b505050506040513d601f19601f820116820180604052508101906100e9919061051b565b836102a360201b6100291760201c565b505b505050565b610113816102cf60201b6100551760201c565b6101725760405162461bcd60e51b815260206004820152602560248201527f455243313936373a206e657720626561636f6e206973206e6f74206120636f6e6044820152641d1c9858dd60da1b60648201526084015b60405180910390fd5b6101e6816001600160a01b0316635c60da1b6040518163ffffffff1660e01b8152600401602060405180830381865afa1580156101b3573d6000803e3d6000fd5b505050506040513d601f19601f820116820180604052508101906101d7919061051b565b6102cf60201b6100551760201c565b61024b5760405162461bcd60e51b815260206004820152603060248201527f455243313936373a20626561636f6e20696d706c656d656e746174696f6e206960448201526f1cc81b9bdd08184818dbdb9d1c9858dd60821b6064820152608401610169565b806102827fa3f0ad74e5423aebfd80d3ef4346578335a9a72aeaee59ff6cb3582b35133d5060001b6102de60201b6100641760201c565b80546001600160a01b0319166001600160a01b039290921691909117905550565b60606102c883836040518060600160405280602781526020016108d9602791396102e1565b9392505050565b6001600160a01b03163b151590565b90565b6060600080856001600160a01b0316856040516102fe9190610536565b600060405180830381855af49150503d8060008114610339576040519150601f19603f3d011682016040523d82523d6000602084013e61033e565b606091505b5090925090506103508683838761035a565b9695505050505050565b606083156103c95782516000036103c2576001600160a01b0385163b6103c25760405162461bcd60e51b815260206004820152601d60248201527f416464726573733a2063616c6c20746f206e6f6e2d636f6e74726163740000006044820152606401610169565b50816103d3565b6103d383836103db565b949350505050565b8151156103eb5781518083602001fd5b8060405162461bcd60e51b81526004016101699190610552565b80516001600160a01b038116811461041c57600080fd5b919050565b634e487b7160e01b600052604160045260246000fd5b60005b8381101561045257818101518382015260200161043a565b50506000910152565b6000806040838503121561046e57600080fd5b61047783610405565b60208401519092506001600160401b038082111561049457600080fd5b818501915085601f8301126104a857600080fd5b8151818111156104ba576104ba610421565b604051601f8201601f19908116603f011681019083821181831017156104e2576104e2610421565b816040528281528860208487010111156104fb57600080fd5b61050c836020830160208801610437565b80955050505050509250929050565b60006020828403121561052d57600080fd5b6102c882610405565b60008251610548818460208701610437565b9190910192915050565b6020815260008251806020840152610571816040850160208701610437565b601f01601f19169190910160400192915050565b610345806105946000396000f3fe60806040523661001357610011610017565b005b6100115b610027610022610067565b610100565b565b606061004e83836040518060600160405280602781526020016102e960279139610124565b9392505050565b6001600160a01b03163b151590565b90565b600061009a7fa3f0ad74e5423aebfd80d3ef4346578335a9a72aeaee59ff6cb3582b35133d50546001600160a01b031690565b6001600160a01b0316635c60da1b6040518163ffffffff1660e01b8152600401602060405180830381865afa1580156100d7573d6000803e3d6000fd5b505050506040513d601f19601f820116820180604052508101906100fb919061024c565b905090565b3660008037600080366000845af43d6000803e80801561011f573d6000f35b3d6000fd5b6060600080856001600160a01b0316856040516101419190610299565b600060405180830381855af49150503d806000811461017c576040519150601f19603f3d011682016040523d82523d6000602084013e610181565b606091505b50915091506101928683838761019c565b9695505050505050565b60608315610210578251600003610209576001600160a01b0385163b6102095760405162461bcd60e51b815260206004820152601d60248201527f416464726573733a2063616c6c20746f206e6f6e2d636f6e747261637400000060448201526064015b60405180910390fd5b508161021a565b61021a8383610222565b949350505050565b8151156102325781518083602001fd5b8060405162461bcd60e51b815260040161020091906102b5565b60006020828403121561025e57600080fd5b81516001600160a01b038116811461004e57600080fd5b60005b83811015610290578181015183820152602001610278565b50506000910152565b600082516102ab818460208701610275565b9190910192915050565b60208152600082518060208401526102d4816040850160208701610275565b601f01601f1916919091016040019291505056fe416464726573733a206c6f772d6c6576656c2064656c65676174652063616c6c206661696c6564a2646970667358221220fe578137dee80d0034b4874b702492043acd0b46ac8f95ccd3a5bcc57c3fcf4b64736f6c63430008100033416464726573733a206c6f772d6c6576656c2064656c65676174652063616c6c206661696c6564608060405234801561001057600080fd5b506040516104e43803806104e483398101604081905261002f91610151565b61003833610047565b61004181610097565b50610181565b600080546001600160a01b038381166001600160a01b0319831681178455604051919092169283917f8be0079c531659141344cd1fd0a4f28419497f9722a3daafe3b4186f6b6457e09190a35050565b6100aa8161014260201b6101a01760201c565b6101205760405162461bcd60e51b815260206004820152603360248201527f5570677261646561626c65426561636f6e3a20696d706c656d656e746174696f60448201527f6e206973206e6f74206120636f6e747261637400000000000000000000000000606482015260840160405180910390fd5b600180546001600160a01b0319166001600160a01b0392909216919091179055565b6001600160a01b03163b151590565b60006020828403121561016357600080fd5b81516001600160a01b038116811461017a57600080fd5b9392505050565b610354806101906000396000f3fe608060405234801561001057600080fd5b50600436106100575760003560e01c80633659cfe61461005c5780635c60da1b14610071578063715018a61461009a5780638da5cb5b146100a2578063f2fde38b146100b3575b600080fd5b61006f61006a3660046102ee565b6100c6565b005b6001546001600160a01b03165b6040516001600160a01b03909116815260200160405180910390f35b61006f61010e565b6000546001600160a01b031661007e565b61006f6100c13660046102ee565b610122565b6100ce6101af565b6100d781610209565b6040516001600160a01b038216907fbc7cd75a20ee27fd9adebab32041f755214dbc6bffa90cc0225b39da2e5c2d3b90600090a250565b6101166101af565b610120600061029e565b565b61012a6101af565b6001600160a01b0381166101945760405162461bcd60e51b815260206004820152602660248201527f4f776e61626c653a206e6577206f776e657220697320746865207a65726f206160448201526564647265737360d01b60648201526084015b60405180910390fd5b61019d8161029e565b50565b6001600160a01b03163b151590565b6000546001600160a01b031633146101205760405162461bcd60e51b815260206004820181905260248201527f4f776e61626c653a2063616c6c6572206973206e6f7420746865206f776e6572604482015260640161018b565b6001600160a01b0381163b61027c5760405162461bcd60e51b815260206004820152603360248201527f5570677261646561626c65426561636f6e3a20696d706c656d656e746174696f6044820152721b881a5cc81b9bdd08184818dbdb9d1c9858dd606a1b606482015260840161018b565b600180546001600160a01b0319166001600160a01b0392909216919091179055565b600080546001600160a01b038381166001600160a01b0319831681178455604051919092169283917f8be0079c531659141344cd1fd0a4f28419497f9722a3daafe3b4186f6b6457e09190a35050565b60006020828403121561030057600080fd5b81356001600160a01b038116811461031757600080fd5b939250505056fea2646970667358221220bf51bfe5bbf59f36bc196d29b9fa2c23a1fbc42b74de2439494505426ef4243e64736f6c63430008100033360894a13ba1a3210667c828492db98dca3e2076cc3735a920a3ca505d382bbc416464726573733a206c6f772d6c6576656c2064656c65676174652063616c6c206661696c6564a26469706673582212209bc2543701c123fa7a2fd476f8ec3bcc2f97df3cf7d0e71e65694a2df9af5d7d64736f6c63430008100033",
    "linkReferences": {}
  },
  "methodIdentifiers": {
    "createProxy(bytes)": "8f295d59",
    "createProxyBatch(bytes[])": "8ea88c30",
    "initialize(address)": "c4d66de8",
    "proxiableUUID()": "52d1902d",
    "upgradeTo(address)": "3659cfe6",
    "upgradeToAndCall(address,bytes)": "4f1ef286"
  },
  "id": 65
}