{
  "abi": [
    {
      "inputs": [],
      "stateMutability": "nonpayable",
      "type": "constructor"
    },
    {
      "anonymous": false,
      "inputs": [
        {
          "indexed": false,
          "internalType": "address",
          "name": "previousAdmin",
          "type": "address"
        },
        {
          "indexed": false,
          "internalType": "address",
          "name": "newAdmin",
          "type": "address"
        }
      ],
      "name": "AdminChanged",
      "type": "event"
    },
    {
      "anonymous": false,
      "inputs": [
        {
          "indexed": true,
          "internalType": "address",
          "name": "beacon",
          "type": "address"
        }
      ],
      "name": "BeaconUpgraded",
      "type": "event"
    },
    {
      "anonymous": false,
      "inputs": [
        {
          "indexed": false,
          "internalType": "uint8",
          "name": "version",
          "type": "uint8"
        }
      ],
      "name": "Initialized",
      "type": "event"
    },
    {
      "anonymous": false,
      "inputs": [
        {
          "indexed": true,
          "internalType": "address",
          "name": "previousOwner",
          "type": "address"
        },
        {
          "indexed": true,
          "internalType": "address",
          "name": "newOwner",
          "type": "address"
        }
      ],
      "name": "MastershipTransferStarted",
      "type": "event"
    },
    {
      "anonymous": false,
      "inputs": [
        {
          "indexed": true,
          "internalType": "address",
          "name": "previousMaster",
          "type": "address"
        },
        {
          "indexed": true,
          "internalType": "address",
          "name": "newMaster",
          "type": "address"
        }
      ],
      "name": "MastershipTransferred",
      "type": "event"
    },
    {
      "anonymous": false,
      "inputs": [
        {
          "indexed": true,
          "internalType": "address",
          "name": "previousOwner",
          "type": "address"
        },
        {
          "indexed": true,
          "internalType": "address",
          "name": "newOwner",
          "type": "address"
        }
      ],
      "name": "OwnershipTransferStarted",
      "type": "event"
    },
    {
      "anonymous": false,
      "inputs": [
        {
          "indexed": true,
          "internalType": "address",
          "name": "previousOwner",
          "type": "address"
        },
        {
          "indexed": true,
          "internalType": "address",
          "name": "newOwner",
          "type": "address"
        }
      ],
      "name": "OwnershipTransferred",
      "type": "event"
    },
    {
      "anonymous": false,
      "inputs": [
        {
          "indexed": true,
          "internalType": "address",
          "name": "implementation",
          "type": "address"
        }
      ],
      "name": "Upgraded",
      "type": "event"
    },
    {
      "inputs": [],
      "name": "acceptMastership",
      "outputs": [],
      "stateMutability": "nonpayable",
      "type": "function"
    },
    {
      "inputs": [],
      "name": "acceptOwnership",
      "outputs": [],
      "stateMutability": "nonpayable",
      "type": "function"
    },
    {
      "inputs": [
        {
          "internalType": "address",
          "name": "destination",
          "type": "address"
        },
        {
          "internalType": "bytes",
          "name": "data",
          "type": "bytes"
        },
        {
          "internalType": "uint256",
          "name": "value",
          "type": "uint256"
        },
        {
          "internalType": "uint256",
          "name": "gas",
          "type": "uint256"
        }
      ],
      "name": "forwardMaster",
      "outputs": [
        {
          "internalType": "bytes",
          "name": "",
          "type": "bytes"
        }
      ],
      "stateMutability": "nonpayable",
      "type": "function"
    },
    {
      "inputs": [
        {
          "internalType": "address[]",
          "name": "destination",
          "type": "address[]"
        },
        {
          "internalType": "bytes[]",
          "name": "data",
          "type": "bytes[]"
        },
        {
          "internalType": "uint256[]",
          "name": "value",
          "type": "uint256[]"
        },
        {
          "internalType": "uint256[]",
          "name": "gas",
          "type": "uint256[]"
        }
      ],
      "name": "forwardMasterBatch",
      "outputs": [
        {
          "internalType": "bytes[]",
          "name": "",
          "type": "bytes[]"
        }
      ],
      "stateMutability": "nonpayable",
      "type": "function"
    },
    {
      "inputs": [
        {
          "internalType": "address",
          "name": "destination",
          "type": "address"
        },
        {
          "internalType": "bytes",
          "name": "data",
          "type": "bytes"
        },
        {
          "internalType": "uint256",
          "name": "value",
          "type": "uint256"
        },
        {
          "internalType": "uint256",
          "name": "gas",
          "type": "uint256"
        }
      ],
      "name": "forwardOwner",
      "outputs": [
        {
          "internalType": "bytes",
          "name": "",
          "type": "bytes"
        }
      ],
      "stateMutability": "nonpayable",
      "type": "function"
    },
    {
      "inputs": [
        {
          "internalType": "address[]",
          "name": "destination",
          "type": "address[]"
        },
        {
          "internalType": "bytes[]",
          "name": "data",
          "type": "bytes[]"
        },
        {
          "internalType": "uint256[]",
          "name": "value",
          "type": "uint256[]"
        },
        {
          "internalType": "uint256[]",
          "name": "gas",
          "type": "uint256[]"
        }
      ],
      "name": "forwardOwnerBatch",
      "outputs": [
        {
          "internalType": "bytes[]",
          "name": "",
          "type": "bytes[]"
        }
      ],
      "stateMutability": "nonpayable",
      "type": "function"
    },
    {
      "inputs": [],
      "name": "implementation",
      "outputs": [
        {
          "internalType": "address",
          "name": "",
          "type": "address"
        }
      ],
      "stateMutability": "view",
      "type": "function"
    },
    {
      "inputs": [
        {
          "internalType": "contract ProxyForwardPolicies",
          "name": "policies",
          "type": "address"
        },
        {
          "internalType": "address",
          "name": "gnosisFactory",
          "type": "address"
        },
        {
          "internalType": "address",
          "name": "singleton",
          "type": "address"
        },
        {
          "internalType": "address",
          "name": "fallbackHandler",
          "type": "address"
        },
        {
          "internalType": "uint256",
          "name": "saltNonce",
          "type": "uint256"
        },
        {
          "internalType": "address[]",
          "name": "initialOwners",
          "type": "address[]"
        },
        {
          "internalType": "address[]",
          "name": "initialMasters",
          "type": "address[]"
        }
      ],
      "name": "initialize",
      "outputs": [],
      "stateMutability": "nonpayable",
      "type": "function"
    },
    {
      "inputs": [],
      "name": "master",
      "outputs": [
        {
          "internalType": "address",
          "name": "",
          "type": "address"
        }
      ],
      "stateMutability": "view",
      "type": "function"
    },
    {
      "inputs": [],
      "name": "owner",
      "outputs": [
        {
          "internalType": "address",
          "name": "",
          "type": "address"
        }
      ],
      "stateMutability": "view",
      "type": "function"
    },
    {
      "inputs": [],
      "name": "pendingMaster",
      "outputs": [
        {
          "internalType": "address",
          "name": "",
          "type": "address"
        }
      ],
      "stateMutability": "view",
      "type": "function"
    },
    {
      "inputs": [],
      "name": "pendingOwner",
      "outputs": [
        {
          "internalType": "address",
          "name": "",
          "type": "address"
        }
      ],
      "stateMutability": "view",
      "type": "function"
    },
    {
      "inputs": [],
      "name": "proxiableUUID",
      "outputs": [
        {
          "internalType": "bytes32",
          "name": "",
          "type": "bytes32"
        }
      ],
      "stateMutability": "view",
      "type": "function"
    },
    {
      "inputs": [],
      "name": "renounceMastership",
      "outputs": [],
      "stateMutability": "nonpayable",
      "type": "function"
    },
    {
      "inputs": [],
      "name": "renounceOwnership",
      "outputs": [],
      "stateMutability": "nonpayable",
      "type": "function"
    },
    {
      "inputs": [
        {
          "internalType": "address",
          "name": "newMaster",
          "type": "address"
        }
      ],
      "name": "transferMastership",
      "outputs": [],
      "stateMutability": "nonpayable",
      "type": "function"
    },
    {
      "inputs": [
        {
          "internalType": "address",
          "name": "newOwner",
          "type": "address"
        }
      ],
      "name": "transferOwnership",
      "outputs": [],
      "stateMutability": "nonpayable",
      "type": "function"
    },
    {
      "inputs": [
        {
          "internalType": "address",
          "name": "newImplementation",
          "type": "address"
        }
      ],
      "name": "upgradeTo",
      "outputs": [],
      "stateMutability": "nonpayable",
      "type": "function"
    },
    {
      "inputs": [
        {
          "internalType": "address",
          "name": "newImplementation",
          "type": "address"
        },
        {
          "internalType": "bytes",
          "name": "data",
          "type": "bytes"
        }
      ],
      "name": "upgradeToAndCall",
      "outputs": [],
      "stateMutability": "payable",
      "type": "function"
    }
  ],
  "bytecode": {
    "object": "0x60a0604052306080523480156200001557600080fd5b506200002062000044565b6200002a62000044565b6200003462000044565b6200003e62000044565b62000106565b600054610100900460ff1615620000b15760405162461bcd60e51b815260206004820152602760248201527f496e697469616c697a61626c653a20636f6e747261637420697320696e697469604482015266616c697a696e6760c81b606482015260840160405180910390fd5b60005460ff908116101562000104576000805460ff191660ff9081179091556040519081527f7f26b83ff96e1f2b6a682f133852f6798a09c465da95921460cefb38474024989060200160405180910390a15b565b608051611d9f6200013e600039600081816103f301528181610433015281816104af015281816104ef01526105620152611d9f6000f3fe6080604052600436106101145760003560e01c80638da5cb5b116100a0578063c3f5968711610064578063c3f59687146102cf578063c9b6e974146102ef578063e30c39781461030d578063ee97f7f31461032b578063f2fde38b1461034957600080fd5b80638da5cb5b146102245780638e4976a2146102425780639096c3631461026257806396f1a5a41461028f578063be37a229146102af57600080fd5b80635c60da1b116100e75780635c60da1b1461018b57806361537335146101b8578063715018a6146101cd57806379ba5097146101e25780638723ed15146101f757600080fd5b8063346db791146101195780633659cfe6146101305780634f1ef2861461015057806352d1902d14610163575b600080fd5b34801561012557600080fd5b5061012e610369565b005b34801561013c57600080fd5b5061012e61014b36600461157f565b6103e9565b61012e61015e366004611661565b6104a5565b34801561016f57600080fd5b50610178610555565b6040519081526020015b60405180910390f35b34801561019757600080fd5b506101a0610608565b6040516001600160a01b039091168152602001610182565b3480156101c457600080fd5b5061012e610617565b3480156101d957600080fd5b5061012e61062b565b3480156101ee57600080fd5b5061012e61063d565b34801561020357600080fd5b506102176102123660046116b1565b6106b4565b6040516101829190611761565b34801561023057600080fd5b506033546001600160a01b03166101a0565b34801561024e57600080fd5b5061021761025d3660046116b1565b6106d3565b34801561026e57600080fd5b5061028261027d3660046117c0565b61072c565b6040516101829190611884565b34801561029b57600080fd5b5061012e6102aa3660046118e6565b610882565b3480156102bb57600080fd5b506102826102ca3660046117c0565b6109c0565b3480156102db57600080fd5b5061012e6102ea36600461157f565b610b08565b3480156102fb57600080fd5b506066546001600160a01b03166101a0565b34801561031957600080fd5b506065546001600160a01b03166101a0565b34801561033757600080fd5b506034546001600160a01b03166101a0565b34801561035557600080fd5b5061012e61036436600461157f565b610b79565b60665433906001600160a01b031681146103dd5760405162461bcd60e51b815260206004820152602a60248201527f4f776e61626c6532537465703a2063616c6c6572206973206e6f7420746865206044820152693732bb9036b0b9ba32b960b11b60648201526084015b60405180910390fd5b6103e681610bea565b50565b6001600160a01b037f00000000000000000000000000000000000000000000000000000000000000001630036104315760405162461bcd60e51b81526004016103d4906119ac565b7f00000000000000000000000000000000000000000000000000000000000000006001600160a01b0316610463610c03565b6001600160a01b0316146104895760405162461bcd60e51b81526004016103d4906119f8565b604080516000808252602082019092526103e691839190610c1f565b6001600160a01b037f00000000000000000000000000000000000000000000000000000000000000001630036104ed5760405162461bcd60e51b81526004016103d4906119ac565b7f00000000000000000000000000000000000000000000000000000000000000006001600160a01b031661051f610c03565b6001600160a01b0316146105455760405162461bcd60e51b81526004016103d4906119f8565b61055182826001610c1f565b5050565b6000306001600160a01b037f000000000000000000000000000000000000000000000000000000000000000016146105f55760405162461bcd60e51b815260206004820152603860248201527f555550535570677261646561626c653a206d757374206e6f742062652063616c60448201527f6c6564207468726f7567682064656c656761746563616c6c000000000000000060648201526084016103d4565b50600080516020611d2383398151915290565b6000610612610c03565b905090565b61061f610d8f565b6106296000610bea565b565b610633610df3565b6106296000610e4d565b60655433906001600160a01b031681146106ab5760405162461bcd60e51b815260206004820152602960248201527f4f776e61626c6532537465703a2063616c6c6572206973206e6f7420746865206044820152683732bb9037bbb732b960b91b60648201526084016103d4565b6103e681610e4d565b60606106be610d8f565b6106ca85858585610e66565b95945050505050565b60606106dd610df3565b848484846106ed84848484610eff565b6107135760405162461bcd60e51b815260206004820152600060248201526044016103d4565b61071f89898989610e66565b9998505050505050505050565b606060008867ffffffffffffffff8111156107495761074961159c565b60405190808252806020026020018201604052801561077c57816020015b60608152602001906001900390816107675790505b50905060005b89811015610874576108468b8b8381811061079f5761079f611a44565b90506020020160208101906107b4919061157f565b8a8a848181106107c6576107c6611a44565b90506020028101906107d89190611a5a565b8080601f0160208091040260200160405190810160405280939291908181526020018383808284376000920191909152508c92508b915086905081811061082157610821611a44565b9050602002013588888681811061083a5761083a611a44565b905060200201356106b4565b82828151811061085857610858611a44565b60200260200101819052508061086d90611aa1565b9050610782565b509998505050505050505050565b600054610100900460ff16158080156108a25750600054600160ff909116105b806108bc5750303b1580156108bc575060005460ff166001145b61091f5760405162461bcd60e51b815260206004820152602e60248201527f496e697469616c697a61626c653a20636f6e747261637420697320616c72656160448201526d191e481a5b9a5d1a585b1a5e995960921b60648201526084016103d4565b6000805460ff191660011790558015610942576000805461ff0019166101001790555b6109528989898989898989610f78565b61012d80546001600160a01b0319166001600160a01b038c1617905580156109b4576000805461ff0019169055604051600181527f7f26b83ff96e1f2b6a682f133852f6798a09c465da95921460cefb38474024989060200160405180910390a15b50505050505050505050565b606060008867ffffffffffffffff8111156109dd576109dd61159c565b604051908082528060200260200182016040528015610a1057816020015b60608152602001906001900390816109fb5790505b50905060005b8981101561087457610ada8b8b83818110610a3357610a33611a44565b9050602002016020810190610a48919061157f565b8a8a84818110610a5a57610a5a611a44565b9050602002810190610a6c9190611a5a565b8080601f0160208091040260200160405190810160405280939291908181526020018383808284376000920191909152508c92508b9150869050818110610ab557610ab5611a44565b90506020020135888886818110610ace57610ace611a44565b905060200201356106d3565b828281518110610aec57610aec611a44565b602002602001018190525080610b0190611aa1565b9050610a16565b610b10610d8f565b606680546001600160a01b0383166001600160a01b03199091168117909155610b416034546001600160a01b031690565b6001600160a01b03167f9038d20cb9576a714b9d3c8bb312692f1a8a4733bf5e34c3395a62cecbeb523460405160405180910390a350565b610b81610d8f565b606580546001600160a01b0383166001600160a01b03199091168117909155610bb26033546001600160a01b031690565b6001600160a01b03167f38d16b8cac22d99fc7c124b9cd0de2d3fa1faef420bfe791d8c362d765e2270060405160405180910390a350565b606680546001600160a01b03191690556103e681610fc0565b600080516020611d23833981519152546001600160a01b031690565b7f4910fdfa16fed3260ed0e7147f7cc6da11a60208b5b9406d12a635614ffd91435460ff1615610c5757610c5283611012565b505050565b826001600160a01b03166352d1902d6040518163ffffffff1660e01b8152600401602060405180830381865afa925050508015610cb1575060408051601f3d908101601f19168201909252610cae91810190611ac8565b60015b610d145760405162461bcd60e51b815260206004820152602e60248201527f45524331393637557067726164653a206e657720696d706c656d656e7461746960448201526d6f6e206973206e6f74205555505360901b60648201526084016103d4565b600080516020611d238339815191528114610d835760405162461bcd60e51b815260206004820152602960248201527f45524331393637557067726164653a20756e737570706f727465642070726f786044820152681a58589b195555525160ba1b60648201526084016103d4565b50610c528383836110ae565b6034546001600160a01b031633146106295760405162461bcd60e51b815260206004820152602160248201527f4f776e61626c653a2063616c6c6572206973206e6f7420746865206d617374656044820152603960f91b60648201526084016103d4565b6033546001600160a01b031633146106295760405162461bcd60e51b815260206004820181905260248201527f4f776e61626c653a2063616c6c6572206973206e6f7420746865206f776e657260448201526064016103d4565b606580546001600160a01b03191690556103e6816110d9565b6060600080866001600160a01b031685859088604051610e869190611ae1565b600060405180830381858888f193505050503d8060008114610ec4576040519150601f19603f3d011682016040523d82523d6000602084013e610ec9565b606091505b509150915081610ef557610edc8161112b565b60405162461bcd60e51b81526004016103d49190611761565b9695505050505050565b61012d54604051635ef3fcf160e11b81526000916001600160a01b03169063bde7f9e290610f37908890889088908890600401611afd565b602060405180830381865afa158015610f54573d6000803e3d6000fd5b505050506040513d601f19601f820116820180604052508101906106ca9190611b34565b600054610100900460ff16610f9f5760405162461bcd60e51b81526004016103d490611b56565b600080610fb28a8a8a8a8a8a8a8a611190565b915091506109b4828261135c565b603480546001600160a01b038381166001600160a01b0319831681179093556040519116919082907fcdcbd4b72fc8f770531ce2b3fd5fa59dd682740e699d4a37fd65062507a8d22c90600090a35050565b6001600160a01b0381163b61107f5760405162461bcd60e51b815260206004820152602d60248201527f455243313936373a206e657720696d706c656d656e746174696f6e206973206e60448201526c1bdd08184818dbdb9d1c9858dd609a1b60648201526084016103d4565b600080516020611d2383398151915280546001600160a01b0319166001600160a01b0392909216919091179055565b6110b783611395565b6000825111806110c45750805b15610c52576110d383836113d5565b50505050565b603380546001600160a01b038381166001600160a01b0319831681179093556040519116919082907f8be0079c531659141344cd1fd0a4f28419497f9722a3daafe3b4186f6b6457e090600090a35050565b606060448251101561117057505060408051808201909152601d81527f5472616e73616374696f6e2072657665727465642073696c656e746c79000000602082015290565b6004820191508180602001905181019061118a9190611ba1565b92915050565b600080548190610100900460ff166111ba5760405162461bcd60e51b81526004016103d490611b56565b604080516000808252602082019092526111e39088908890819085908e82808060448501611c0f565b60408051601f19818403018152918152602080830180516001600160e01b031663b63e800d60e01b179052815160008082529181019092529192506112379087908790819085908f82808060448501611c0f565b60408051601f198184030181529181526020820180516001600160e01b031663b63e800d60e01b17905251631688f0b960e01b81529091506001600160a01b038d1690631688f0b990611292908e9086908e90600401611cd1565b6020604051808303816000875af11580156112b1573d6000803e3d6000fd5b505050506040513d601f19601f820116820180604052508101906112d59190611d05565b604051631688f0b960e01b81529094506001600160a01b038d1690631688f0b990611308908e9085908e90600401611cd1565b6020604051808303816000875af1158015611327573d6000803e3d6000fd5b505050506040513d601f19601f8201168201806040525081019061134b9190611d05565b925050509850989650505050505050565b600054610100900460ff166113835760405162461bcd60e51b81526004016103d490611b56565b61138d82826114c0565b6105516114f9565b61139e81611012565b6040516001600160a01b038216907fbc7cd75a20ee27fd9adebab32041f755214dbc6bffa90cc0225b39da2e5c2d3b90600090a250565b60606001600160a01b0383163b61143d5760405162461bcd60e51b815260206004820152602660248201527f416464726573733a2064656c65676174652063616c6c20746f206e6f6e2d636f6044820152651b9d1c9858dd60d21b60648201526084016103d4565b600080846001600160a01b0316846040516114589190611ae1565b600060405180830381855af49150503d8060008114611493576040519150601f19603f3d011682016040523d82523d6000602084013e611498565b606091505b50915091506106ca8282604051806060016040528060278152602001611d4360279139611520565b600054610100900460ff166114e75760405162461bcd60e51b81526004016103d490611b56565b6114f082610e4d565b61055181610bea565b600054610100900460ff166106295760405162461bcd60e51b81526004016103d490611b56565b6060831561152f575081611539565b6115398383611540565b9392505050565b8151156115505781518083602001fd5b8060405162461bcd60e51b81526004016103d49190611761565b6001600160a01b03811681146103e657600080fd5b60006020828403121561159157600080fd5b81356115398161156a565b634e487b7160e01b600052604160045260246000fd5b604051601f8201601f1916810167ffffffffffffffff811182821017156115db576115db61159c565b604052919050565b600067ffffffffffffffff8211156115fd576115fd61159c565b50601f01601f191660200190565b600082601f83011261161c57600080fd5b813561162f61162a826115e3565b6115b2565b81815284602083860101111561164457600080fd5b816020850160208301376000918101602001919091529392505050565b6000806040838503121561167457600080fd5b823561167f8161156a565b9150602083013567ffffffffffffffff81111561169b57600080fd5b6116a78582860161160b565b9150509250929050565b600080600080608085870312156116c757600080fd5b84356116d28161156a565b9350602085013567ffffffffffffffff8111156116ee57600080fd5b6116fa8782880161160b565b949794965050505060408301359260600135919050565b60005b8381101561172c578181015183820152602001611714565b50506000910152565b6000815180845261174d816020860160208601611711565b601f01601f19169290920160200192915050565b6020815260006115396020830184611735565b60008083601f84011261178657600080fd5b50813567ffffffffffffffff81111561179e57600080fd5b6020830191508360208260051b85010111156117b957600080fd5b9250929050565b6000806000806000806000806080898b0312156117dc57600080fd5b883567ffffffffffffffff808211156117f457600080fd5b6118008c838d01611774565b909a50985060208b013591508082111561181957600080fd5b6118258c838d01611774565b909850965060408b013591508082111561183e57600080fd5b61184a8c838d01611774565b909650945060608b013591508082111561186357600080fd5b506118708b828c01611774565b999c989b5096995094979396929594505050565b6000602080830181845280855180835260408601915060408160051b870101925083870160005b828110156118d957603f198886030184526118c7858351611735565b945092850192908501906001016118ab565b5092979650505050505050565b600080600080600080600080600060e08a8c03121561190457600080fd5b893561190f8161156a565b985060208a013561191f8161156a565b975060408a013561192f8161156a565b965060608a013561193f8161156a565b955060808a0135945060a08a013567ffffffffffffffff8082111561196357600080fd5b61196f8d838e01611774565b909650945060c08c013591508082111561198857600080fd5b506119958c828d01611774565b915080935050809150509295985092959850929598565b6020808252602c908201527f46756e6374696f6e206d7573742062652063616c6c6564207468726f7567682060408201526b19195b1959d85d1958d85b1b60a21b606082015260800190565b6020808252602c908201527f46756e6374696f6e206d7573742062652063616c6c6564207468726f7567682060408201526b6163746976652070726f787960a01b606082015260800190565b634e487b7160e01b600052603260045260246000fd5b6000808335601e19843603018112611a7157600080fd5b83018035915067ffffffffffffffff821115611a8c57600080fd5b6020019150368190038213156117b957600080fd5b600060018201611ac157634e487b7160e01b600052601160045260246000fd5b5060010190565b600060208284031215611ada57600080fd5b5051919050565b60008251611af3818460208701611711565b9190910192915050565b6001600160a01b0385168152608060208201819052600090611b2190830186611735565b6040830194909452506060015292915050565b600060208284031215611b4657600080fd5b8151801515811461153957600080fd5b6020808252602b908201527f496e697469616c697a61626c653a20636f6e7472616374206973206e6f74206960408201526a6e697469616c697a696e6760a81b606082015260800190565b600060208284031215611bb357600080fd5b815167ffffffffffffffff811115611bca57600080fd5b8201601f81018413611bdb57600080fd5b8051611be961162a826115e3565b818152856020838501011115611bfe57600080fd5b6106ca826020830160208601611711565b6101008082528101899052600061012082018b825b8c811015611c55578135611c378161156a565b6001600160a01b031683526020928301929190910190600101611c24565b5050896020840152611c72604084018a6001600160a01b03169052565b8281036060840152611c848189611735565b915050611c9c60808301876001600160a01b03169052565b6001600160a01b03851660a083015260ff841660c08301526001600160a01b03831660e08301529a9950505050505050505050565b6001600160a01b0384168152606060208201819052600090611cf590830185611735565b9050826040830152949350505050565b600060208284031215611d1757600080fd5b81516115398161156a56fe360894a13ba1a3210667c828492db98dca3e2076cc3735a920a3ca505d382bbc416464726573733a206c6f772d6c6576656c2064656c65676174652063616c6c206661696c6564a264697066735822122037134e6bad67be5248a2c888a85c8449dfe73ade0ec84231b33e176222c2d8cb64736f6c63430008100033",
    "linkReferences": {}
  },
  "methodIdentifiers": {
    "acceptMastership()": "346db791",
    "acceptOwnership()": "79ba5097",
    "forwardMaster(address,bytes,uint256,uint256)": "8723ed15",
    "forwardMasterBatch(address[],bytes[],uint256[],uint256[])": "9096c363",
    "forwardOwner(address,bytes,uint256,uint256)": "8e4976a2",
    "forwardOwnerBatch(address[],bytes[],uint256[],uint256[])": "be37a229",
    "implementation()": "5c60da1b",
    "initialize(address,address,address,address,uint256,address[],address[])": "96f1a5a4",
    "master()": "ee97f7f3",
    "owner()": "8da5cb5b",
    "pendingMaster()": "c9b6e974",
    "pendingOwner()": "e30c3978",
    "proxiableUUID()": "52d1902d",
    "renounceMastership()": "61537335",
    "renounceOwnership()": "715018a6",
    "transferMastership(address)": "c3f59687",
    "transferOwnership(address)": "f2fde38b",
    "upgradeTo(address)": "3659cfe6",
    "upgradeToAndCall(address,bytes)": "4f1ef286"
  },
  "id": 66
}